{
  "transactions": [
    {
      "hash": "0x083930028419269ef1720373d8a4e0c533be4bd2e2423eb7d07e861ca3688120",
      "transactionType": "CALL",
      "contractName": "FootyDAO",
      "contractAddress": "0x6B227e698028994f00b41375072F8A536f636c9c",
      "function": "propose(address[],uint256[],bytes[],string):(uint256)",
      "arguments": [
        "[0x0000000000000000000000000000000000000000]",
        "[0]",
        "[0x6ca0f3210000000000000000000000000000000000000000000000000000000000000064]",
        "Test Proposal2"
      ],
      "transaction": {
        "type": "0x00",
        "from": "0xde3089d40f3491de794fbb1eca109fac36f889d0",
        "to": "0x6b227e698028994f00b41375072f8a536f636c9c",
        "gas": "0xf0943",
        "value": "0x0",
        "data": "0x7d5e81e2000000000000000000000000000000000000000000000000000000000000008000000000000000000000000000000000000000000000000000000000000000c0000000000000000000000000000000000000000000000000000000000000010000000000000000000000000000000000000000000000000000000000000001a000000000000000000000000000000000000000000000000000000000000000010000000000000000000000000000000000000000000000000000000000000000000000000000000000000000000000000000000000000000000000000000000100000000000000000000000000000000000000000000000000000000000000000000000000000000000000000000000000000000000000000000000000000001000000000000000000000000000000000000000000000000000000000000002000000000000000000000000000000000000000000000000000000000000000246ca0f321000000000000000000000000000000000000000000000000000000000000006400000000000000000000000000000000000000000000000000000000000000000000000000000000000000000000000000000000000000000000000e546573742050726f706f73616c32000000000000000000000000000000000000",
        "nonce": "0x38d"
      },
      "additionalContracts": [],
      "isFixedGasLimit": false
    }
  ],
  "receipts": [],
  "libraries": [],
  "pending": [
    "0x083930028419269ef1720373d8a4e0c533be4bd2e2423eb7d07e861ca3688120"
  ],
  "returns": {},
  "timestamp": 1690029335,
  "chain": 80001,
  "multi": false,
  "commit": "2a7742d"
}