{
  "transactions": [
    {
      "hash": "0x8bdabc43066f3825d259189b2010f420bfab4a338113b0f0c686ab206136fec1",
      "transactionType": "CALL",
      "contractName": "FootyDAO",
      "contractAddress": "0xb84BAc17afc8B074dbC83C7920982E41Bf11478B",
      "function": "propose(address[],uint256[],bytes[],string):(uint256)",
      "arguments": [
        "[0x4a7270A346A84B175f27daecDa9D8de3C3539992]",
        "[0]",
        "[0x6ca0f3210000000000000000000000000000000000000000000000000000000000000064]",
        "Test Proposal7"
      ],
      "transaction": {
        "type": "0x00",
        "from": "0xde3089d40f3491de794fbb1eca109fac36f889d0",
        "to": "0xb84bac17afc8b074dbc83c7920982e41bf11478b",
        "gas": "0xeaec1",
        "value": "0x0",
        "data": "0x7d5e81e2000000000000000000000000000000000000000000000000000000000000008000000000000000000000000000000000000000000000000000000000000000c0000000000000000000000000000000000000000000000000000000000000010000000000000000000000000000000000000000000000000000000000000001a000000000000000000000000000000000000000000000000000000000000000010000000000000000000000004a7270a346a84b175f27daecda9d8de3c3539992000000000000000000000000000000000000000000000000000000000000000100000000000000000000000000000000000000000000000000000000000000000000000000000000000000000000000000000000000000000000000000000001000000000000000000000000000000000000000000000000000000000000002000000000000000000000000000000000000000000000000000000000000000246ca0f321000000000000000000000000000000000000000000000000000000000000006400000000000000000000000000000000000000000000000000000000000000000000000000000000000000000000000000000000000000000000000e546573742050726f706f73616c37000000000000000000000000000000000000",
        "nonce": "0x3d1"
      },
      "additionalContracts": [],
      "isFixedGasLimit": false
    }
  ],
  "receipts": [
    {
      "transactionHash": "0x8bdabc43066f3825d259189b2010f420bfab4a338113b0f0c686ab206136fec1",
      "transactionIndex": "0x1a",
      "blockHash": "0xb14c6c00b83d741539e894333e6a143edf7453338186f78cab73d3f6cee9afda",
      "blockNumber": "0x246f0c1",
      "from": "0xDe3089d40F3491De794fBb1ECA109fAc36F889d0",
      "to": "0xb84BAc17afc8B074dbC83C7920982E41Bf11478B",
      "cumulativeGasUsed": "0x35be11",
      "gasUsed": "0xaef02",
      "contractAddress": null,
      "logs": [
        {
          "address": "0xb84BAc17afc8B074dbC83C7920982E41Bf11478B",
          "topics": [
            "0x7d84a6263ae0d98d3329bd7b46bb4e8d6f98cd35a7adb45c274c8b7fd5ebd5e0"
          ],
          "data": "0xbc8c7a510072106fff88326be594b89fae215dc46eff225e37c99038b705f7da000000000000000000000000de3089d40f3491de794fbb1eca109fac36f889d00000000000000000000000000000000000000000000000000000000000000120000000000000000000000000000000000000000000000000000000000000016000000000000000000000000000000000000000000000000000000000000001a000000000000000000000000000000000000000000000000000000000000002000000000000000000000000000000000000000000000000000000000064bc14700000000000000000000000000000000000000000000000000000000064beb77000000000000000000000000000000000000000000000000000000000000002a000000000000000000000000000000000000000000000000000000000000000010000000000000000000000004a7270a346a84b175f27daecda9d8de3c3539992000000000000000000000000000000000000000000000000000000000000000100000000000000000000000000000000000000000000000000000000000000000000000000000000000000000000000000000000000000000000000000000001000000000000000000000000000000000000000000000000000000000000002000000000000000000000000000000000000000000000000000000000000000000000000000000000000000000000000000000000000000000000000000000001000000000000000000000000000000000000000000000000000000000000002000000000000000000000000000000000000000000000000000000000000000246ca0f321000000000000000000000000000000000000000000000000000000000000006400000000000000000000000000000000000000000000000000000000000000000000000000000000000000000000000000000000000000000000000e546573742050726f706f73616c37000000000000000000000000000000000000",
          "blockHash": "0xb14c6c00b83d741539e894333e6a143edf7453338186f78cab73d3f6cee9afda",
          "blockNumber": "0x246f0c1",
          "transactionHash": "0x8bdabc43066f3825d259189b2010f420bfab4a338113b0f0c686ab206136fec1",
          "transactionIndex": "0x1a",
          "logIndex": "0x76",
          "removed": false
        },
        {
          "address": "0xEe9Bf52E5Ea228404bB54BCFbbDa8c21131b9039",
          "topics": [
            "0x99f7f4e65b4b9fbabd4e357c47ed3099b36e57ecd3a43e84662f34c207d0ebe4",
            "0x088fd484c2d673b34a7986556aeb2fe1f23c5c27bccb9600e40eb74b8cdfec83"
          ],
          "data": "0x0000000000000000000000000000000000000000000000000000000000000769000000000000000000000000de6cc3ba502c43f9e5a7606a649d0e268c544bec00000000000000000000000000000000000000000000000000000000000493e00000000000000000000000000000000000000000000000000000000059682f11000000000000000000000000ea6721ac65bced841b8ec3fc5fedea6141a0ade4000000000000000000000000000000000000000000000000000000000000000000000000000000000000000000000000000000000000000002c68af0bb14000000000000000000000000000000000000000000000000000002c6fa9638f023620000000000000000000000000000000000000000000000000000000064bc1470",
          "blockHash": "0xb14c6c00b83d741539e894333e6a143edf7453338186f78cab73d3f6cee9afda",
          "blockNumber": "0x246f0c1",
          "transactionHash": "0x8bdabc43066f3825d259189b2010f420bfab4a338113b0f0c686ab206136fec1",
          "transactionIndex": "0x1a",
          "logIndex": "0x77",
          "removed": false
        },
        {
          "address": "0xeA6721aC65BCeD841B8ec3fc5fEdeA6141a0aDE4",
          "topics": [
            "0xa1ec73989d79578cd6f67d4f593ac3e0a4d1020e5c0164db52108d7ff785406c",
            "0x088fd484c2d673b34a7986556aeb2fe1f23c5c27bccb9600e40eb74b8cdfec83"
          ],
          "data": "0x000000000000000000000000de6cc3ba502c43f9e5a7606a649d0e268c544bec000000000000000000000000de3089d40f3491de794fbb1eca109fac36f889d00000000000000000000000000000000000000000000000000000000000000769000000000000000000000000de3089d40f3491de794fbb1eca109fac36f889d000000000000000000000000000000000000000000000000000000000000000a000000000000000000000000000000000000000000000000000000000000005de6c636f64654c6f636174696f6ec258200000000000000000000000000000000000000000000000000000000000000000686c616e6775616765c25820000000000000000000000000000000000000000000000000000000000000000066736f7572636579051b2f2f2054686973206578616d706c652073686f777320686f7720746f2063616c63756c617465206120636f6e74696e756f75736c7920636f6d706f756e64696e6720696e746572657374656420726174652e0a2f2f20546869732063616c63756c6174696f6e20776f756c642072657175697265207369676e69666963616e74206f6e2d636861696e206761732c20627574206973206561737920666f72206120646563656e7472616c697a6564206f7261636c65206e6574776f726b2e0a0a2f2f20417267756d656e74732063616e2062652070726f7669646564207768656e2061207265717565737420697320696e697461746564206f6e2d636861696e20616e64207573656420696e20746865207265717565737420736f7572636520636f64652061732073686f776e2062656c6f770a636f6e73742050726f706f73616c4964203d20617267735b305d0a636f6e73742050726f706f73616c5374617465537472203d20617267735b315d0a6c65742050726f706f73616c5374617465203d20303b0a69662850726f706f73616c5374617465537472203d3d20224163746976652229207b0a202050726f706f73616c5374617465203d20300a7d656c7365206966202850726f706f73616c5374617465537472203d3d20225175657565642229207b0a202050726f706f73616c5374617465203d20310a7d656c7365206966202850726f706f73616c5374617465537472203d3d202245786563757465642229207b0a202050726f706f73616c5374617465203d20320a7d0a2f2f20636f6e73742050726f706f73616c4964203d20617267735b305d0a2f2f20636f6e73742050726f706f73616c5374617465203d20617267735b315d0a0a636f6e73742072657175657374203d2046756e6374696f6e732e6d616b654874747052657175657374287b0a202075726c3a206068747470733a2f2f636861696e6c696e6b2d66756e632e6f6e72656e6465722e636f6d2f6170692f73657473746174652f247b50726f706f73616c49647d2f247b50726f706f73616c53746174657d602c0a20206d6574686f64203a2027504f5354272c0a7d290a0a2f2f20436f6e74696e756f75736c792d636f6d706f756e64696e6720696e74657265737420666f726d756c613a2041203d2050655e287274290a636f6e7374205b726573706f6e73655d203d2061776169742050726f6d6973652e616c6c285b0a2020726571756573740a5d290a0a2f2f2054686520736f7572636520636f6465204d5553542072657475726e206120427566666572206f722074686520726571756573742077696c6c2072657475726e20616e206572726f72206d6573736167650a2f2f20557365206f6e65206f662074686520666f6c6c6f77696e672066756e6374696f6e7320746f20636f6e7665727420746f20612042756666657220726570726573656e74696e672074686520726573706f6e73652062797465732074686174206172652072657475726e656420746f2074686520636c69656e7420736d61727420636f6e74726163743a0a2f2f202d2046756e6374696f6e732e656e636f646555696e743235360a2f2f202d2046756e6374696f6e732e656e636f6465496e743235360a2f2f202d2046756e6374696f6e732e656e636f6465537472696e670a2f2f204f722072657475726e206120637573746f6d2042756666657220666f72206120637573746f6d206279746520656e636f64696e670a72657475726e2046756e6374696f6e732e656e636f646555696e743235362831293b0a64617267739f784d383532383330313833313935373939363636303232323637373632303138313234393539353336393233333938323032383334383230363134383439393834333934303631393231363237373866416374697665ff0000",
          "blockHash": "0xb14c6c00b83d741539e894333e6a143edf7453338186f78cab73d3f6cee9afda",
          "blockNumber": "0x246f0c1",
          "transactionHash": "0x8bdabc43066f3825d259189b2010f420bfab4a338113b0f0c686ab206136fec1",
          "transactionIndex": "0x1a",
          "logIndex": "0x78",
          "removed": false
        },
        {
          "address": "0xDE6cC3BA502C43f9E5A7606A649d0e268C544bEC",
          "topics": [
            "0x1131472297a800fee664d1d89cfa8f7676ff07189ecc53f80bbb5f4969099db8",
            "0x088fd484c2d673b34a7986556aeb2fe1f23c5c27bccb9600e40eb74b8cdfec83"
          ],
          "data": "0x",
          "blockHash": "0xb14c6c00b83d741539e894333e6a143edf7453338186f78cab73d3f6cee9afda",
          "blockNumber": "0x246f0c1",
          "transactionHash": "0x8bdabc43066f3825d259189b2010f420bfab4a338113b0f0c686ab206136fec1",
          "transactionIndex": "0x1a",
          "logIndex": "0x79",
          "removed": false
        },
        {
          "address": "0x0000000000000000000000000000000000001010",
          "topics": [
            "0x4dfe1bbbcf077ddc3e01291eea2d5c70c2b422b415d95645b9adcfd678cb1d63",
            "0x0000000000000000000000000000000000000000000000000000000000001010",
            "0x000000000000000000000000de3089d40f3491de794fbb1eca109fac36f889d0",
            "0x000000000000000000000000be188d6641e8b680743a4815dfa0f6208038960f"
          ],
          "data": "0x0000000000000000000000000000000000000000000000000003d18accb15e000000000000000000000000000000000000000000000000001ba967bc623048be0000000000000000000000000000000000000000000033402ffc48c57d27dda20000000000000000000000000000000000000000000000001ba59631957eeabe00000000000000000000000000000000000000000000334030001a5049d93ba2",
          "blockHash": "0xb14c6c00b83d741539e894333e6a143edf7453338186f78cab73d3f6cee9afda",
          "blockNumber": "0x246f0c1",
          "transactionHash": "0x8bdabc43066f3825d259189b2010f420bfab4a338113b0f0c686ab206136fec1",
          "transactionIndex": "0x1a",
          "logIndex": "0x7a",
          "removed": false
        }
      ],
      "status": "0x1",
      "logsBloom": "0x00000000000000000000000000001000000000000100000000000000000001000400000000000008000000000000000000008000100000000000000000000040000000000002000000000000000000a00020000000000000000100080000004000000000000000000000000000000000000000008000004080000000001000000000008000000200000000000008000000000000001080000000001000000000280000000000000000000000000000000000000000000000000004008000004200000000000000000001000800000000000000000000000000100040001000800000000000000000000000000000000000001000080080400000000000100000",
      "effectiveGasPrice": "0x59682f11"
    }
  ],
  "libraries": [],
  "pending": [],
  "returns": {},
  "timestamp": 1690047600,
  "chain": 80001,
  "multi": false,
  "commit": "edaf0a6"
}