{
  "transactions": [
    {
      "hash": "0x976eb28916251244981f4b152ddc009ec1117162a56b5d4b8615e0d0ff2eadc6",
      "transactionType": "CALL",
      "contractName": "CrossChainMessage",
      "contractAddress": "0xf127fef5EbA2dE47fBfF7011d330Eda4a5376DE5",
      "function": "setInteractorByChainId(uint256,bytes)",
      "arguments": [
        "5",
        "0x86695f03264e4676b896cdd590e013815f3493b2"
      ],
      "transaction": {
        "type": "0x00",
        "from": "0xde3089d40f3491de794fbb1eca109fac36f889d0",
        "to": "0xf127fef5eba2de47fbff7011d330eda4a5376de5",
        "gas": "0xfe03",
        "value": "0x0",
        "data": "0x4fd3f7d700000000000000000000000000000000000000000000000000000000000000050000000000000000000000000000000000000000000000000000000000000040000000000000000000000000000000000000000000000000000000000000001486695f03264e4676b896cdd590e013815f3493b2000000000000000000000000",
        "nonce": "0x389"
      },
      "additionalContracts": [],
      "isFixedGasLimit": false
    }
  ],
  "receipts": [],
  "libraries": [],
  "pending": [
    "0x976eb28916251244981f4b152ddc009ec1117162a56b5d4b8615e0d0ff2eadc6"
  ],
  "returns": {},
  "timestamp": 1690026073,
  "chain": 80001,
  "multi": false,
  "commit": "2a7742d"
}