{
  "transactions": [
    {
      "hash": "0xab6ad7651b03b7aa353e47158bab69119d678a30cebe7d245a8960b782cfd2c5",
      "transactionType": "CALL",
      "contractName": "FootyDAO",
      "contractAddress": "0x872487058cD5B585550b60C49396f7cf1e1d0C59",
      "function": "propose(address[],uint256[],bytes[],string):(uint256)",
      "arguments": [
        "[0x30AD46387058A1F8d3C8Ed96a8F3f0A5B0782172]",
        "[0]",
        "[0x6ca0f3210000000000000000000000000000000000000000000000000000000000000064]",
        "Test Proposal2"
      ],
      "transaction": {
        "type": "0x00",
        "from": "0xde3089d40f3491de794fbb1eca109fac36f889d0",
        "to": "0x872487058cd5b585550b60c49396f7cf1e1d0c59",
        "gas": "0xfde03",
        "value": "0x0",
        "data": "0x7d5e81e2000000000000000000000000000000000000000000000000000000000000008000000000000000000000000000000000000000000000000000000000000000c0000000000000000000000000000000000000000000000000000000000000010000000000000000000000000000000000000000000000000000000000000001a0000000000000000000000000000000000000000000000000000000000000000100000000000000000000000030ad46387058a1f8d3c8ed96a8f3f0a5b0782172000000000000000000000000000000000000000000000000000000000000000100000000000000000000000000000000000000000000000000000000000000000000000000000000000000000000000000000000000000000000000000000001000000000000000000000000000000000000000000000000000000000000002000000000000000000000000000000000000000000000000000000000000000246ca0f321000000000000000000000000000000000000000000000000000000000000006400000000000000000000000000000000000000000000000000000000000000000000000000000000000000000000000000000000000000000000000e546573742050726f706f73616c32000000000000000000000000000000000000",
        "nonce": "0x3a8"
      },
      "additionalContracts": [],
      "isFixedGasLimit": false
    }
  ],
  "receipts": [],
  "libraries": [],
  "pending": [
    "0xab6ad7651b03b7aa353e47158bab69119d678a30cebe7d245a8960b782cfd2c5"
  ],
  "returns": {},
  "timestamp": 1690036060,
  "chain": 80001,
  "multi": false,
  "commit": "11626f6"
}