{
  "transactions": [
    {
      "hash": "0x6fba89085e2fa83a7aa8c8f35aea76c09ace233f151a25c085afcde372c25879",
      "transactionType": "CALL",
      "contractName": "FootyDAO",
      "contractAddress": "0xb84BAc17afc8B074dbC83C7920982E41Bf11478B",
      "function": "propose(address[],uint256[],bytes[],string):(uint256)",
      "arguments": [
        "[0x4a7270A346A84B175f27daecDa9D8de3C3539992]",
        "[0]",
        "[0x6ca0f3210000000000000000000000000000000000000000000000000000000000000064]",
        "Test Proposal5"
      ],
      "transaction": {
        "type": "0x00",
        "from": "0xde3089d40f3491de794fbb1eca109fac36f889d0",
        "to": "0xb84bac17afc8b074dbc83c7920982e41bf11478b",
        "gas": "0xeaec1",
        "value": "0x0",
        "data": "0x7d5e81e2000000000000000000000000000000000000000000000000000000000000008000000000000000000000000000000000000000000000000000000000000000c0000000000000000000000000000000000000000000000000000000000000010000000000000000000000000000000000000000000000000000000000000001a000000000000000000000000000000000000000000000000000000000000000010000000000000000000000004a7270a346a84b175f27daecda9d8de3c3539992000000000000000000000000000000000000000000000000000000000000000100000000000000000000000000000000000000000000000000000000000000000000000000000000000000000000000000000000000000000000000000000001000000000000000000000000000000000000000000000000000000000000002000000000000000000000000000000000000000000000000000000000000000246ca0f321000000000000000000000000000000000000000000000000000000000000006400000000000000000000000000000000000000000000000000000000000000000000000000000000000000000000000000000000000000000000000e546573742050726f706f73616c35000000000000000000000000000000000000",
        "nonce": "0x3d0"
      },
      "additionalContracts": [],
      "isFixedGasLimit": false
    }
  ],
  "receipts": [],
  "libraries": [],
  "pending": [
    "0x6fba89085e2fa83a7aa8c8f35aea76c09ace233f151a25c085afcde372c25879"
  ],
  "returns": {},
  "timestamp": 1690040623,
  "chain": 80001,
  "multi": false,
  "commit": "edaf0a6"
}