{
  "transactions": [
    {
      "hash": "0x976eb28916251244981f4b152ddc009ec1117162a56b5d4b8615e0d0ff2eadc6",
      "transactionType": "CALL",
      "contractName": "CrossChainMessage",
      "contractAddress": "0xf127fef5EbA2dE47fBfF7011d330Eda4a5376DE5",
      "function": "setInteractorByChainId(uint256,bytes)",
      "arguments": [
        "5",
        "0x86695f03264e4676b896cdd590e013815f3493b2"
      ],
      "transaction": {
        "type": "0x00",
        "from": "0xde3089d40f3491de794fbb1eca109fac36f889d0",
        "to": "0xf127fef5eba2de47fbff7011d330eda4a5376de5",
        "gas": "0xfe03",
        "value": "0x0",
        "data": "0x4fd3f7d700000000000000000000000000000000000000000000000000000000000000050000000000000000000000000000000000000000000000000000000000000040000000000000000000000000000000000000000000000000000000000000001486695f03264e4676b896cdd590e013815f3493b2000000000000000000000000",
        "nonce": "0x389"
      },
      "additionalContracts": [],
      "isFixedGasLimit": false
    }
  ],
  "receipts": [
    {
      "transactionHash": "0x976eb28916251244981f4b152ddc009ec1117162a56b5d4b8615e0d0ff2eadc6",
      "transactionIndex": "0x0",
      "blockHash": "0x90c41b3e47cadd0fa8a9db182bc5ecd8a6d3fe23159c023ba88aae625d19f915",
      "blockNumber": "0x246d60f",
      "from": "0xDe3089d40F3491De794fBb1ECA109fAc36F889d0",
      "to": "0xf127fef5EbA2dE47fBfF7011d330Eda4a5376DE5",
      "cumulativeGasUsed": "0xb7e7",
      "gasUsed": "0xb7e7",
      "contractAddress": null,
      "logs": [
        {
          "address": "0x0000000000000000000000000000000000001010",
          "topics": [
            "0x4dfe1bbbcf077ddc3e01291eea2d5c70c2b422b415d95645b9adcfd678cb1d63",
            "0x0000000000000000000000000000000000000000000000000000000000001010",
            "0x000000000000000000000000de3089d40f3491de794fbb1eca109fac36f889d0",
            "0x000000000000000000000000c275dc8be39f50d12f66b6a63629c39da5bae5bd"
          ],
          "data": "0x0000000000000000000000000000000000000000000000000010b9cf631891770000000000000000000000000000000000000000000000002ebc3ddca8c0a42a0000000000000000000000000000000000000000000012523534fee2e5ae2d300000000000000000000000000000000000000000000000002eab840d45a812b30000000000000000000000000000000000000000000012523545b8b248c6bea7",
          "blockHash": "0x90c41b3e47cadd0fa8a9db182bc5ecd8a6d3fe23159c023ba88aae625d19f915",
          "blockNumber": "0x246d60f",
          "transactionHash": "0x976eb28916251244981f4b152ddc009ec1117162a56b5d4b8615e0d0ff2eadc6",
          "transactionIndex": "0x0",
          "logIndex": "0x0",
          "removed": false
        }
      ],
      "status": "0x1",
      "logsBloom": "0x00000000000000000000000000000000000000000000000000000000000000000000000000000000000000000000000000008000102000000000000000000040000000000000000000000000000000800000000000000000040100000000000000000000000000000000000000000000000000000000000080000000000000000000000000000000000000000000000000000000001000000000000000000000200000000000000000000000000000000000000000000000000040000000004000000000000000000001000000000000000000000000000000100000000000000000000000000000000000000000000000000000000000000000000000100000",
      "type": "0x0",
      "effectiveGasPrice": "0x174876e801"
    }
  ],
  "libraries": [],
  "pending": [],
  "returns": {},
  "timestamp": 1690026080,
  "chain": 80001,
  "multi": false,
  "commit": "2a7742d"
}