{
  "transactions": [
    {
      "hash": "0x1d8b8935f0a50f9877ec78d18774f62a01d00aae30345a1e27cce77101084918",
      "transactionType": "CALL",
      "contractName": "FootyDAOToken",
      "contractAddress": "0xB4B2D82F6CfEeFdbf90E5E633Af6D63D46BD7478",
      "function": "setInteractorByChainId(uint256,bytes)",
      "arguments": [
        "5",
        "0xd09e495c4a3c2cf4ceee3739708eb2a810e1e7b3"
      ],
      "transaction": {
        "type": "0x00",
        "from": "0xde3089d40f3491de794fbb1eca109fac36f889d0",
        "to": "0xb4b2d82f6cfeefdbf90e5e633af6d63d46bd7478",
        "gas": "0x9267",
        "value": "0x0",
        "data": "0x4fd3f7d7000000000000000000000000000000000000000000000000000000000000000500000000000000000000000000000000000000000000000000000000000000400000000000000000000000000000000000000000000000000000000000000014d09e495c4a3c2cf4ceee3739708eb2a810e1e7b3000000000000000000000000",
        "nonce": "0x3bb"
      },
      "additionalContracts": [],
      "isFixedGasLimit": false
    },
    {
      "hash": "0xc09ab266ec1cbe129156e9d0fa4d996238fe2cc7a876223f00ab59b04d62b6dc",
      "transactionType": "CALL",
      "contractName": "FootyDAO",
      "contractAddress": "0x0Ca3549Ed2C0Fa6942D7585BE2363990812aFb18",
      "function": "setInteractorByChainId(uint256,bytes)",
      "arguments": [
        "5",
        "0x26e328bc62207d7acf801c405167bc0f4eccedea"
      ],
      "transaction": {
        "type": "0x00",
        "from": "0xde3089d40f3491de794fbb1eca109fac36f889d0",
        "to": "0x0ca3549ed2c0fa6942d7585be2363990812afb18",
        "gas": "0x932d",
        "value": "0x0",
        "data": "0x4fd3f7d700000000000000000000000000000000000000000000000000000000000000050000000000000000000000000000000000000000000000000000000000000040000000000000000000000000000000000000000000000000000000000000001426e328bc62207d7acf801c405167bc0f4eccedea000000000000000000000000",
        "nonce": "0x3bc"
      },
      "additionalContracts": [],
      "isFixedGasLimit": false
    },
    {
      "hash": "0xae0deff1a0e109aff69fd8501443947f2b51a7a739a6e6b887f2a92003e8d780",
      "transactionType": "CALL",
      "contractName": "FootyDAO",
      "contractAddress": "0x0Ca3549Ed2C0Fa6942D7585BE2363990812aFb18",
      "function": "propose(address[],uint256[],bytes[],string):(uint256)",
      "arguments": [
        "[0xd9f999c0ad7aD15a10cdE364993F71657e8Fd713]",
        "[0]",
        "[0x6ca0f3210000000000000000000000000000000000000000000000000000000000000064]",
        "Test Proposal2"
      ],
      "transaction": {
        "type": "0x00",
        "from": "0xde3089d40f3491de794fbb1eca109fac36f889d0",
        "to": "0x0ca3549ed2c0fa6942d7585be2363990812afb18",
        "gas": "0xefcc0",
        "value": "0x0",
        "data": "0x7d5e81e2000000000000000000000000000000000000000000000000000000000000008000000000000000000000000000000000000000000000000000000000000000c0000000000000000000000000000000000000000000000000000000000000010000000000000000000000000000000000000000000000000000000000000001a00000000000000000000000000000000000000000000000000000000000000001000000000000000000000000d9f999c0ad7ad15a10cde364993f71657e8fd713000000000000000000000000000000000000000000000000000000000000000100000000000000000000000000000000000000000000000000000000000000000000000000000000000000000000000000000000000000000000000000000001000000000000000000000000000000000000000000000000000000000000002000000000000000000000000000000000000000000000000000000000000000246ca0f321000000000000000000000000000000000000000000000000000000000000006400000000000000000000000000000000000000000000000000000000000000000000000000000000000000000000000000000000000000000000000e546573742050726f706f73616c32000000000000000000000000000000000000",
        "nonce": "0x3bd"
      },
      "additionalContracts": [],
      "isFixedGasLimit": false
    }
  ],
  "receipts": [],
  "libraries": [],
  "pending": [
    "0x1d8b8935f0a50f9877ec78d18774f62a01d00aae30345a1e27cce77101084918",
    "0xc09ab266ec1cbe129156e9d0fa4d996238fe2cc7a876223f00ab59b04d62b6dc",
    "0xae0deff1a0e109aff69fd8501443947f2b51a7a739a6e6b887f2a92003e8d780"
  ],
  "returns": {},
  "timestamp": 1690038409,
  "chain": 80001,
  "multi": false,
  "commit": "11626f6"
}