{
  "transactions": [
    {
      "hash": "0x87d9167288f5d586fdd120cc185857d46bf68a1977f766a5ca76b73bb2c9dd60",
      "transactionType": "CALL",
      "contractName": "FootyDAOToken",
      "contractAddress": "0xAb1cE3C12a85B7FA613DE482bfD3a731E7B8C28e",
      "function": "setInteractorByChainId(uint256,bytes)",
      "arguments": [
        "5",
        "0x66a70844a816066530eec13b5c17c82d8df991d7"
      ],
      "transaction": {
        "type": "0x00",
        "from": "0xde3089d40f3491de794fbb1eca109fac36f889d0",
        "to": "0xab1ce3c12a85b7fa613de482bfd3a731e7b8c28e",
        "gas": "0x10cb4",
        "value": "0x0",
        "data": "0x4fd3f7d700000000000000000000000000000000000000000000000000000000000000050000000000000000000000000000000000000000000000000000000000000040000000000000000000000000000000000000000000000000000000000000001466a70844a816066530eec13b5c17c82d8df991d7000000000000000000000000",
        "nonce": "0x3cc"
      },
      "additionalContracts": [],
      "isFixedGasLimit": false
    },
    {
      "hash": "0x7e0144266318e7be66fb852fe5c3430428dff4fcdbb8c851fe3688bad891d147",
      "transactionType": "CALL",
      "contractName": "FootyDAO",
      "contractAddress": "0xb84BAc17afc8B074dbC83C7920982E41Bf11478B",
      "function": "setInteractorByChainId(uint256,bytes)",
      "arguments": [
        "5",
        "0x15a16c761dac6880cbc25fdc4fd4e8773c357727"
      ],
      "transaction": {
        "type": "0x00",
        "from": "0xde3089d40f3491de794fbb1eca109fac36f889d0",
        "to": "0xb84bac17afc8b074dbc83c7920982e41bf11478b",
        "gas": "0x10d86",
        "value": "0x0",
        "data": "0x4fd3f7d700000000000000000000000000000000000000000000000000000000000000050000000000000000000000000000000000000000000000000000000000000040000000000000000000000000000000000000000000000000000000000000001415a16c761dac6880cbc25fdc4fd4e8773c357727000000000000000000000000",
        "nonce": "0x3cd"
      },
      "additionalContracts": [],
      "isFixedGasLimit": false
    },
    {
      "hash": "0xb10a2051e99f14563bd557545640930823c8d724bf8a59b6faa6195f67fc8b8d",
      "transactionType": "CALL",
      "contractName": "FootyDAO",
      "contractAddress": "0xb84BAc17afc8B074dbC83C7920982E41Bf11478B",
      "function": "propose(address[],uint256[],bytes[],string):(uint256)",
      "arguments": [
        "[0x4a7270A346A84B175f27daecDa9D8de3C3539992]",
        "[0]",
        "[0x6ca0f3210000000000000000000000000000000000000000000000000000000000000064]",
        "Test Proposal2"
      ],
      "transaction": {
        "type": "0x00",
        "from": "0xde3089d40f3491de794fbb1eca109fac36f889d0",
        "to": "0xb84bac17afc8b074dbc83c7920982e41bf11478b",
        "gas": "0xfde03",
        "value": "0x0",
        "data": "0x7d5e81e2000000000000000000000000000000000000000000000000000000000000008000000000000000000000000000000000000000000000000000000000000000c0000000000000000000000000000000000000000000000000000000000000010000000000000000000000000000000000000000000000000000000000000001a000000000000000000000000000000000000000000000000000000000000000010000000000000000000000004a7270a346a84b175f27daecda9d8de3c3539992000000000000000000000000000000000000000000000000000000000000000100000000000000000000000000000000000000000000000000000000000000000000000000000000000000000000000000000000000000000000000000000001000000000000000000000000000000000000000000000000000000000000002000000000000000000000000000000000000000000000000000000000000000246ca0f321000000000000000000000000000000000000000000000000000000000000006400000000000000000000000000000000000000000000000000000000000000000000000000000000000000000000000000000000000000000000000e546573742050726f706f73616c32000000000000000000000000000000000000",
        "nonce": "0x3ce"
      },
      "additionalContracts": [],
      "isFixedGasLimit": false
    }
  ],
  "receipts": [],
  "libraries": [],
  "pending": [
    "0x87d9167288f5d586fdd120cc185857d46bf68a1977f766a5ca76b73bb2c9dd60",
    "0x7e0144266318e7be66fb852fe5c3430428dff4fcdbb8c851fe3688bad891d147",
    "0xb10a2051e99f14563bd557545640930823c8d724bf8a59b6faa6195f67fc8b8d"
  ],
  "returns": {},
  "timestamp": 1690039201,
  "chain": 80001,
  "multi": false,
  "commit": "11626f6"
}