{
  "transactions": [
    {
      "hash": "0x5ff0376455713d70d42b70ad080d41a454d79e5e0dd1af422cebe65af6dfe3c2",
      "transactionType": "CALL",
      "contractName": "FootyDAO",
      "contractAddress": "0x6B227e698028994f00b41375072F8A536f636c9c",
      "function": "propose(address[],uint256[],bytes[],string):(uint256)",
      "arguments": [
        "[0x0000000000000000000000000000000000000000]",
        "[0]",
        "[0x6ca0f3210000000000000000000000000000000000000000000000000000000000000064]",
        "Test Proposal1"
      ],
      "transaction": {
        "type": "0x00",
        "from": "0xde3089d40f3491de794fbb1eca109fac36f889d0",
        "to": "0x6b227e698028994f00b41375072f8a536f636c9c",
        "gas": "0xf0943",
        "value": "0x0",
        "data": "0x7d5e81e2000000000000000000000000000000000000000000000000000000000000008000000000000000000000000000000000000000000000000000000000000000c0000000000000000000000000000000000000000000000000000000000000010000000000000000000000000000000000000000000000000000000000000001a000000000000000000000000000000000000000000000000000000000000000010000000000000000000000000000000000000000000000000000000000000000000000000000000000000000000000000000000000000000000000000000000100000000000000000000000000000000000000000000000000000000000000000000000000000000000000000000000000000000000000000000000000000001000000000000000000000000000000000000000000000000000000000000002000000000000000000000000000000000000000000000000000000000000000246ca0f321000000000000000000000000000000000000000000000000000000000000006400000000000000000000000000000000000000000000000000000000000000000000000000000000000000000000000000000000000000000000000e546573742050726f706f73616c31000000000000000000000000000000000000",
        "nonce": "0x38b"
      },
      "additionalContracts": [],
      "isFixedGasLimit": false
    }
  ],
  "receipts": [
    {
      "transactionHash": "0x5ff0376455713d70d42b70ad080d41a454d79e5e0dd1af422cebe65af6dfe3c2",
      "transactionIndex": "0x0",
      "blockHash": "0x6e22639082d34709df8524fe3ef4827f895244f4319ef6daa2fad1ac5a07cf39",
      "blockNumber": "0x246d9a1",
      "from": "0xDe3089d40F3491De794fBb1ECA109fAc36F889d0",
      "to": "0x6B227e698028994f00b41375072F8A536f636c9c",
      "cumulativeGasUsed": "0xa95b6",
      "gasUsed": "0xa95b6",
      "contractAddress": null,
      "logs": [
        {
          "address": "0x6B227e698028994f00b41375072F8A536f636c9c",
          "topics": [
            "0x7d84a6263ae0d98d3329bd7b46bb4e8d6f98cd35a7adb45c274c8b7fd5ebd5e0"
          ],
          "data": "0x36a0ae89e9a19f560c87fa0c295cc7a1eaf86b5e8dd18ae94a768dfc8d151849000000000000000000000000de3089d40f3491de794fbb1eca109fac36f889d00000000000000000000000000000000000000000000000000000000000000120000000000000000000000000000000000000000000000000000000000000016000000000000000000000000000000000000000000000000000000000000001a00000000000000000000000000000000000000000000000000000000000000200000000000000000000000000000000000000000000000000000000000246d9a10000000000000000000000000000000000000000000000000000000002497ca100000000000000000000000000000000000000000000000000000000000002a000000000000000000000000000000000000000000000000000000000000000010000000000000000000000000000000000000000000000000000000000000000000000000000000000000000000000000000000000000000000000000000000100000000000000000000000000000000000000000000000000000000000000000000000000000000000000000000000000000000000000000000000000000001000000000000000000000000000000000000000000000000000000000000002000000000000000000000000000000000000000000000000000000000000000000000000000000000000000000000000000000000000000000000000000000001000000000000000000000000000000000000000000000000000000000000002000000000000000000000000000000000000000000000000000000000000000246ca0f321000000000000000000000000000000000000000000000000000000000000006400000000000000000000000000000000000000000000000000000000000000000000000000000000000000000000000000000000000000000000000e546573742050726f706f73616c31000000000000000000000000000000000000",
          "blockHash": "0x6e22639082d34709df8524fe3ef4827f895244f4319ef6daa2fad1ac5a07cf39",
          "blockNumber": "0x246d9a1",
          "transactionHash": "0x5ff0376455713d70d42b70ad080d41a454d79e5e0dd1af422cebe65af6dfe3c2",
          "transactionIndex": "0x0",
          "logIndex": "0x0",
          "removed": false
        },
        {
          "address": "0xEe9Bf52E5Ea228404bB54BCFbbDa8c21131b9039",
          "topics": [
            "0x99f7f4e65b4b9fbabd4e357c47ed3099b36e57ecd3a43e84662f34c207d0ebe4",
            "0xc4f5b19387b8cd2233217f9e1e41af5ad7162a043d3177483436a3bd7b4caa6a"
          ],
          "data": "0x0000000000000000000000000000000000000000000000000000000000000769000000000000000000000000b403efd23af2c157c3f67699dfd681f75a3cf91c00000000000000000000000000000000000000000000000000000000000493e0000000000000000000000000000000000000000000000000000000174876e800000000000000000000000000ea6721ac65bced841b8ec3fc5fedea6141a0ade4000000000000000000000000000000000000000000000000000000000000000000000000000000000000000000000000000000000000000002c68af0bb14000000000000000000000000000000000000000000000000000002e3ade2a851f44a0000000000000000000000000000000000000000000000000000000064bbcb7a",
          "blockHash": "0x6e22639082d34709df8524fe3ef4827f895244f4319ef6daa2fad1ac5a07cf39",
          "blockNumber": "0x246d9a1",
          "transactionHash": "0x5ff0376455713d70d42b70ad080d41a454d79e5e0dd1af422cebe65af6dfe3c2",
          "transactionIndex": "0x0",
          "logIndex": "0x1",
          "removed": false
        },
        {
          "address": "0xeA6721aC65BCeD841B8ec3fc5fEdeA6141a0aDE4",
          "topics": [
            "0xa1ec73989d79578cd6f67d4f593ac3e0a4d1020e5c0164db52108d7ff785406c",
            "0xc4f5b19387b8cd2233217f9e1e41af5ad7162a043d3177483436a3bd7b4caa6a"
          ],
          "data": "0x000000000000000000000000b403efd23af2c157c3f67699dfd681f75a3cf91c000000000000000000000000de3089d40f3491de794fbb1eca109fac36f889d00000000000000000000000000000000000000000000000000000000000000769000000000000000000000000de3089d40f3491de794fbb1eca109fac36f889d000000000000000000000000000000000000000000000000000000000000000a000000000000000000000000000000000000000000000000000000000000005de6c636f64654c6f636174696f6ec258200000000000000000000000000000000000000000000000000000000000000000686c616e6775616765c25820000000000000000000000000000000000000000000000000000000000000000066736f7572636579051b2f2f2054686973206578616d706c652073686f777320686f7720746f2063616c63756c617465206120636f6e74696e756f75736c7920636f6d706f756e64696e6720696e746572657374656420726174652e0a2f2f20546869732063616c63756c6174696f6e20776f756c642072657175697265207369676e69666963616e74206f6e2d636861696e206761732c20627574206973206561737920666f72206120646563656e7472616c697a6564206f7261636c65206e6574776f726b2e0a0a2f2f20417267756d656e74732063616e2062652070726f7669646564207768656e2061207265717565737420697320696e697461746564206f6e2d636861696e20616e64207573656420696e20746865207265717565737420736f7572636520636f64652061732073686f776e2062656c6f770a636f6e73742050726f706f73616c4964203d20617267735b305d0a636f6e73742050726f706f73616c5374617465537472203d20617267735b315d0a6c65742050726f706f73616c5374617465203d20303b0a69662850726f706f73616c5374617465537472203d3d20224163746976652229207b0a202050726f706f73616c5374617465203d20300a7d656c7365206966202850726f706f73616c5374617465537472203d3d20225175657565642229207b0a202050726f706f73616c5374617465203d20310a7d656c7365206966202850726f706f73616c5374617465537472203d3d202245786563757465642229207b0a202050726f706f73616c5374617465203d20320a7d0a2f2f20636f6e73742050726f706f73616c4964203d20617267735b305d0a2f2f20636f6e73742050726f706f73616c5374617465203d20617267735b315d0a0a636f6e73742072657175657374203d2046756e6374696f6e732e6d616b654874747052657175657374287b0a202075726c3a206068747470733a2f2f636861696e6c696e6b2d66756e632e6f6e72656e6465722e636f6d2f6170692f73657473746174652f247b50726f706f73616c49647d2f247b50726f706f73616c53746174657d602c0a20206d6574686f64203a2027504f5354272c0a7d290a0a2f2f20436f6e74696e756f75736c792d636f6d706f756e64696e6720696e74657265737420666f726d756c613a2041203d2050655e287274290a636f6e7374205b726573706f6e73655d203d2061776169742050726f6d6973652e616c6c285b0a2020726571756573740a5d290a0a2f2f2054686520736f7572636520636f6465204d5553542072657475726e206120427566666572206f722074686520726571756573742077696c6c2072657475726e20616e206572726f72206d6573736167650a2f2f20557365206f6e65206f662074686520666f6c6c6f77696e672066756e6374696f6e7320746f20636f6e7665727420746f20612042756666657220726570726573656e74696e672074686520726573706f6e73652062797465732074686174206172652072657475726e656420746f2074686520636c69656e7420736d61727420636f6e74726163743a0a2f2f202d2046756e6374696f6e732e656e636f646555696e743235360a2f2f202d2046756e6374696f6e732e656e636f6465496e743235360a2f2f202d2046756e6374696f6e732e656e636f6465537472696e670a2f2f204f722072657475726e206120637573746f6d2042756666657220666f72206120637573746f6d206279746520656e636f64696e670a72657475726e2046756e6374696f6e732e656e636f646555696e743235362831293b0a64617267739f784d323437303837393339373538343232313239383331323235353033363236363133323335373536303239313435313132353432383431343636373232383236363033343331373939373437323966416374697665ff0000",
          "blockHash": "0x6e22639082d34709df8524fe3ef4827f895244f4319ef6daa2fad1ac5a07cf39",
          "blockNumber": "0x246d9a1",
          "transactionHash": "0x5ff0376455713d70d42b70ad080d41a454d79e5e0dd1af422cebe65af6dfe3c2",
          "transactionIndex": "0x0",
          "logIndex": "0x2",
          "removed": false
        },
        {
          "address": "0xb403eFD23aF2C157c3F67699dFD681f75A3cf91c",
          "topics": [
            "0x1131472297a800fee664d1d89cfa8f7676ff07189ecc53f80bbb5f4969099db8",
            "0xc4f5b19387b8cd2233217f9e1e41af5ad7162a043d3177483436a3bd7b4caa6a"
          ],
          "data": "0x",
          "blockHash": "0x6e22639082d34709df8524fe3ef4827f895244f4319ef6daa2fad1ac5a07cf39",
          "blockNumber": "0x246d9a1",
          "transactionHash": "0x5ff0376455713d70d42b70ad080d41a454d79e5e0dd1af422cebe65af6dfe3c2",
          "transactionIndex": "0x0",
          "logIndex": "0x3",
          "removed": false
        },
        {
          "address": "0x0000000000000000000000000000000000001010",
          "topics": [
            "0x4dfe1bbbcf077ddc3e01291eea2d5c70c2b422b415d95645b9adcfd678cb1d63",
            "0x0000000000000000000000000000000000000000000000000000000000001010",
            "0x000000000000000000000000de3089d40f3491de794fbb1eca109fac36f889d0",
            "0x000000000000000000000000c26880a0af2ea0c7e8130e6ec47af756465452e8"
          ],
          "data": "0x00000000000000000000000000000000000000000000000000f6725fc8f22a560000000000000000000000000000000000000000000000002daeff887b0da4430000000000000000000000000000000000000000000020e0a28f8f1c2268446a0000000000000000000000000000000000000000000000002cb88d28b21b79ed0000000000000000000000000000000000000000000020e0a386017beb5a6ec0",
          "blockHash": "0x6e22639082d34709df8524fe3ef4827f895244f4319ef6daa2fad1ac5a07cf39",
          "blockNumber": "0x246d9a1",
          "transactionHash": "0x5ff0376455713d70d42b70ad080d41a454d79e5e0dd1af422cebe65af6dfe3c2",
          "transactionIndex": "0x0",
          "logIndex": "0x4",
          "removed": false
        }
      ],
      "status": "0x1",
      "logsBloom": "0x00000000000010020000000000000000000000000000000000000000000001000000000000000008000000000000000000008000100000000000000000000040000002000002000000000000000000a00020000000000000000100080080000000000000000000000000000000000000000000008000000080000000080000000000008000000000000000000008000000000000001000000000001000000000280004000000000020000000000000000001000000000000000000000020004200000000004000000001000800000000000000000000000000100000000000800000000000000000000400000000000000001000080080402000000000100000",
      "type": "0x0",
      "effectiveGasPrice": "0x174876e800"
    }
  ],
  "libraries": [],
  "pending": [],
  "returns": {},
  "timestamp": 1690028925,
  "chain": 80001,
  "multi": false,
  "commit": "2a7742d"
}