{
  "transactions": [
    {
      "hash": "0x47ba067ec560b68c2bf7b7486df4f903d9d12f60418e0947fc3fefe6afefd521",
      "transactionType": "CALL",
      "contractName": "FootyDAOToken",
      "contractAddress": "0x218A6C35A465C3E5188Dedad48c83bcA4BbDa31E",
      "function": "setInteractorByChainId(uint256,bytes)",
      "arguments": [
        "5",
        "0xffcb0a87d93a983f17c3b862c4ae0249a960f834"
      ],
      "transaction": {
        "type": "0x00",
        "from": "0xde3089d40f3491de794fbb1eca109fac36f889d0",
        "to": "0x218a6c35a465c3e5188dedad48c83bca4bbda31e",
        "gas": "0x10cb4",
        "value": "0x0",
        "data": "0x4fd3f7d7000000000000000000000000000000000000000000000000000000000000000500000000000000000000000000000000000000000000000000000000000000400000000000000000000000000000000000000000000000000000000000000014ffcb0a87d93a983f17c3b862c4ae0249a960f834000000000000000000000000",
        "nonce": "0x396"
      },
      "additionalContracts": [],
      "isFixedGasLimit": false
    }
  ],
  "receipts": [],
  "libraries": [],
  "pending": [
    "0x47ba067ec560b68c2bf7b7486df4f903d9d12f60418e0947fc3fefe6afefd521"
  ],
  "returns": {},
  "timestamp": 1690032001,
  "chain": 80001,
  "multi": false,
  "commit": "2a7742d"
}