{
  "transactions": [
    {
      "hash": "0xc8bff9a30185a6c66f99fba97e872b4bf83ea971e8cf00aff2f7a935843f0e74",
      "transactionType": "CALL",
      "contractName": "FootyDAOToken",
      "contractAddress": "0x14ebD3C782aa93db2f4dBfb5B4E40831bca511d0",
      "function": "setInteractorByChainId(uint256,bytes)",
      "arguments": [
        "5",
        "0xbe1ba58aaf83b7db6d6320b8c87b4ddd991cd8c6"
      ],
      "transaction": {
        "type": "0x00",
        "from": "0xde3089d40f3491de794fbb1eca109fac36f889d0",
        "to": "0x14ebd3c782aa93db2f4dbfb5b4e40831bca511d0",
        "gas": "0x10cb4",
        "value": "0x0",
        "data": "0x4fd3f7d7000000000000000000000000000000000000000000000000000000000000000500000000000000000000000000000000000000000000000000000000000000400000000000000000000000000000000000000000000000000000000000000014be1ba58aaf83b7db6d6320b8c87b4ddd991cd8c6000000000000000000000000",
        "nonce": "0x393"
      },
      "additionalContracts": [],
      "isFixedGasLimit": false
    }
  ],
  "receipts": [
    {
      "transactionHash": "0xc8bff9a30185a6c66f99fba97e872b4bf83ea971e8cf00aff2f7a935843f0e74",
      "transactionIndex": "0x0",
      "blockHash": "0x985cec3e69fd4a74a8eb42ac1c00e1ca52032280d5f6c6d1a5d841ba87fa8817",
      "blockNumber": "0x246dc47",
      "from": "0xDe3089d40F3491De794fBb1ECA109fAc36F889d0",
      "to": "0x14ebD3C782aa93db2f4dBfb5B4E40831bca511d0",
      "cumulativeGasUsed": "0xb7bb",
      "gasUsed": "0xb7bb",
      "contractAddress": null,
      "logs": [
        {
          "address": "0x0000000000000000000000000000000000001010",
          "topics": [
            "0x4dfe1bbbcf077ddc3e01291eea2d5c70c2b422b415d95645b9adcfd678cb1d63",
            "0x0000000000000000000000000000000000000000000000000000000000001010",
            "0x000000000000000000000000de3089d40f3491de794fbb1eca109fac36f889d0",
            "0x000000000000000000000000c26880a0af2ea0c7e8130e6ec47af756465452e8"
          ],
          "data": "0x0000000000000000000000000000000000000000000000000010b5ceeea8b40b00000000000000000000000000000000000000000000000024917ea6c8f9367f0000000000000000000000000000000000000000000020e0e24b39559aa685670000000000000000000000000000000000000000000000002480c8d7da5082740000000000000000000000000000000000000000000020e0e25bef24894f3972",
          "blockHash": "0x985cec3e69fd4a74a8eb42ac1c00e1ca52032280d5f6c6d1a5d841ba87fa8817",
          "blockNumber": "0x246dc47",
          "transactionHash": "0xc8bff9a30185a6c66f99fba97e872b4bf83ea971e8cf00aff2f7a935843f0e74",
          "transactionIndex": "0x0",
          "logIndex": "0x0",
          "removed": false
        }
      ],
      "status": "0x1",
      "logsBloom": "0x00000000000000020000000000000000000000000000000000000000000000000000000000000000000000000000000000008000100000000000000000000040000000000000000000000000000000800000000000000000000100000000000000000000000000000000000000000000000000000000000080000000000000000000000000000000000000000000000000000000001000000000000000000000200000000000000020000000000000000001000000000000000000000000004000000000000000000001000000000000000000000000000000100000000000000000000000000000000000000000000000000000000000000000000000100000",
      "type": "0x0",
      "effectiveGasPrice": "0x174876e801"
    }
  ],
  "libraries": [],
  "pending": [],
  "returns": {},
  "timestamp": 1690031037,
  "chain": 80001,
  "multi": false,
  "commit": "2a7742d"
}