{
  "transactions": [
    {
      "hash": "0x47ba067ec560b68c2bf7b7486df4f903d9d12f60418e0947fc3fefe6afefd521",
      "transactionType": "CALL",
      "contractName": "FootyDAOToken",
      "contractAddress": "0x218A6C35A465C3E5188Dedad48c83bcA4BbDa31E",
      "function": "setInteractorByChainId(uint256,bytes)",
      "arguments": [
        "5",
        "0xffcb0a87d93a983f17c3b862c4ae0249a960f834"
      ],
      "transaction": {
        "type": "0x00",
        "from": "0xde3089d40f3491de794fbb1eca109fac36f889d0",
        "to": "0x218a6c35a465c3e5188dedad48c83bca4bbda31e",
        "gas": "0x10cb4",
        "value": "0x0",
        "data": "0x4fd3f7d7000000000000000000000000000000000000000000000000000000000000000500000000000000000000000000000000000000000000000000000000000000400000000000000000000000000000000000000000000000000000000000000014ffcb0a87d93a983f17c3b862c4ae0249a960f834000000000000000000000000",
        "nonce": "0x396"
      },
      "additionalContracts": [],
      "isFixedGasLimit": false
    }
  ],
  "receipts": [
    {
      "transactionHash": "0x47ba067ec560b68c2bf7b7486df4f903d9d12f60418e0947fc3fefe6afefd521",
      "transactionIndex": "0x0",
      "blockHash": "0x87bacf7264c50b1a9f307fc0185b6326f24623440236eaf95f32239789ebc403",
      "blockNumber": "0x246dd7d",
      "from": "0xDe3089d40F3491De794fBb1ECA109fAc36F889d0",
      "to": "0x218A6C35A465C3E5188Dedad48c83bcA4BbDa31E",
      "cumulativeGasUsed": "0xb7bb",
      "gasUsed": "0xb7bb",
      "contractAddress": null,
      "logs": [
        {
          "address": "0x0000000000000000000000000000000000001010",
          "topics": [
            "0x4dfe1bbbcf077ddc3e01291eea2d5c70c2b422b415d95645b9adcfd678cb1d63",
            "0x0000000000000000000000000000000000000000000000000000000000001010",
            "0x000000000000000000000000de3089d40f3491de794fbb1eca109fac36f889d0",
            "0x000000000000000000000000c26880a0af2ea0c7e8130e6ec47af756465452e8"
          ],
          "data": "0x0000000000000000000000000000000000000000000000000010b5ceeea8b40b00000000000000000000000000000000000000000000000020ef74666594d4990000000000000000000000000000000000000000000020e0fd28592e205f5f9e00000000000000000000000000000000000000000000000020debe9776ec208e0000000000000000000000000000000000000000000020e0fd390efd0f0813a9",
          "blockHash": "0x87bacf7264c50b1a9f307fc0185b6326f24623440236eaf95f32239789ebc403",
          "blockNumber": "0x246dd7d",
          "transactionHash": "0x47ba067ec560b68c2bf7b7486df4f903d9d12f60418e0947fc3fefe6afefd521",
          "transactionIndex": "0x0",
          "logIndex": "0x0",
          "removed": false
        }
      ],
      "status": "0x1",
      "logsBloom": "0x00000000000000020000000000000000000000000000000000000000000000000000000000000000000000000000000000008000100000000000000000000040000000000000000000000000000000800000000000000000000100000000000000000000000000000000000000000000000000000000000080000000000000000000000000000000000000000000000000000000001000000000000000000000200000000000000020000000000000000001000000000000000000000000004000000000000000000001000000000000000000000000000000100000000000000000000000000000000000000000000000000000000000000000000000100000",
      "type": "0x0",
      "effectiveGasPrice": "0x174876e802"
    }
  ],
  "libraries": [],
  "pending": [],
  "returns": {},
  "timestamp": 1690032007,
  "chain": 80001,
  "multi": false,
  "commit": "2a7742d"
}