{
  "transactions": [
    {
      "hash": "0xab6ad7651b03b7aa353e47158bab69119d678a30cebe7d245a8960b782cfd2c5",
      "transactionType": "CALL",
      "contractName": "FootyDAO",
      "contractAddress": "0x872487058cD5B585550b60C49396f7cf1e1d0C59",
      "function": "propose(address[],uint256[],bytes[],string):(uint256)",
      "arguments": [
        "[0x30AD46387058A1F8d3C8Ed96a8F3f0A5B0782172]",
        "[0]",
        "[0x6ca0f3210000000000000000000000000000000000000000000000000000000000000064]",
        "Test Proposal2"
      ],
      "transaction": {
        "type": "0x00",
        "from": "0xde3089d40f3491de794fbb1eca109fac36f889d0",
        "to": "0x872487058cd5b585550b60c49396f7cf1e1d0c59",
        "gas": "0xfde03",
        "value": "0x0",
        "data": "0x7d5e81e2000000000000000000000000000000000000000000000000000000000000008000000000000000000000000000000000000000000000000000000000000000c0000000000000000000000000000000000000000000000000000000000000010000000000000000000000000000000000000000000000000000000000000001a0000000000000000000000000000000000000000000000000000000000000000100000000000000000000000030ad46387058a1f8d3c8ed96a8f3f0a5b0782172000000000000000000000000000000000000000000000000000000000000000100000000000000000000000000000000000000000000000000000000000000000000000000000000000000000000000000000000000000000000000000000001000000000000000000000000000000000000000000000000000000000000002000000000000000000000000000000000000000000000000000000000000000246ca0f321000000000000000000000000000000000000000000000000000000000000006400000000000000000000000000000000000000000000000000000000000000000000000000000000000000000000000000000000000000000000000e546573742050726f706f73616c32000000000000000000000000000000000000",
        "nonce": "0x3a8"
      },
      "additionalContracts": [],
      "isFixedGasLimit": false
    }
  ],
  "receipts": [
    {
      "transactionHash": "0xab6ad7651b03b7aa353e47158bab69119d678a30cebe7d245a8960b782cfd2c5",
      "transactionIndex": "0x11",
      "blockHash": "0xa3051d58b20b5e6d22d84c802ad89a4c74c27f5d2206049a98a5912bf1385fed",
      "blockNumber": "0x246e294",
      "from": "0xDe3089d40F3491De794fBb1ECA109fAc36F889d0",
      "to": "0x872487058cD5B585550b60C49396f7cf1e1d0C59",
      "cumulativeGasUsed": "0x3865eb",
      "gasUsed": "0xb272e",
      "contractAddress": null,
      "logs": [
        {
          "address": "0x872487058cD5B585550b60C49396f7cf1e1d0C59",
          "topics": [
            "0x7d84a6263ae0d98d3329bd7b46bb4e8d6f98cd35a7adb45c274c8b7fd5ebd5e0"
          ],
          "data": "0x6052b36a9ae406dbd854bfd9f22c42dac9b6374b9d3a9c0d817a3793de02cd47000000000000000000000000de3089d40f3491de794fbb1eca109fac36f889d00000000000000000000000000000000000000000000000000000000000000120000000000000000000000000000000000000000000000000000000000000016000000000000000000000000000000000000000000000000000000000000001a000000000000000000000000000000000000000000000000000000000000002000000000000000000000000000000000000000000000000000000000064bbe7630000000000000000000000000000000000000000000000000000000064be8a6300000000000000000000000000000000000000000000000000000000000002a0000000000000000000000000000000000000000000000000000000000000000100000000000000000000000030ad46387058a1f8d3c8ed96a8f3f0a5b0782172000000000000000000000000000000000000000000000000000000000000000100000000000000000000000000000000000000000000000000000000000000000000000000000000000000000000000000000000000000000000000000000001000000000000000000000000000000000000000000000000000000000000002000000000000000000000000000000000000000000000000000000000000000000000000000000000000000000000000000000000000000000000000000000001000000000000000000000000000000000000000000000000000000000000002000000000000000000000000000000000000000000000000000000000000000246ca0f321000000000000000000000000000000000000000000000000000000000000006400000000000000000000000000000000000000000000000000000000000000000000000000000000000000000000000000000000000000000000000e546573742050726f706f73616c32000000000000000000000000000000000000",
          "blockHash": "0xa3051d58b20b5e6d22d84c802ad89a4c74c27f5d2206049a98a5912bf1385fed",
          "blockNumber": "0x246e294",
          "transactionHash": "0xab6ad7651b03b7aa353e47158bab69119d678a30cebe7d245a8960b782cfd2c5",
          "transactionIndex": "0x11",
          "logIndex": "0x41",
          "removed": false
        },
        {
          "address": "0xEe9Bf52E5Ea228404bB54BCFbbDa8c21131b9039",
          "topics": [
            "0x99f7f4e65b4b9fbabd4e357c47ed3099b36e57ecd3a43e84662f34c207d0ebe4",
            "0x905de293f4cf4c45c1fc01983ba2de29318164e6044e9fc4a455ad367f60773c"
          ],
          "data": "0x0000000000000000000000000000000000000000000000000000000000000769000000000000000000000000ea2482a4d1feb730e7ebca11bfc4c62ad25c271600000000000000000000000000000000000000000000000000000000000493e00000000000000000000000000000000000000000000000000000000059682f10000000000000000000000000ea6721ac65bced841b8ec3fc5fedea6141a0ade4000000000000000000000000000000000000000000000000000000000000000000000000000000000000000000000000000000000000000002c68af0bb14000000000000000000000000000000000000000000000000000002c6fab71b10490f0000000000000000000000000000000000000000000000000000000064bbe763",
          "blockHash": "0xa3051d58b20b5e6d22d84c802ad89a4c74c27f5d2206049a98a5912bf1385fed",
          "blockNumber": "0x246e294",
          "transactionHash": "0xab6ad7651b03b7aa353e47158bab69119d678a30cebe7d245a8960b782cfd2c5",
          "transactionIndex": "0x11",
          "logIndex": "0x42",
          "removed": false
        },
        {
          "address": "0xeA6721aC65BCeD841B8ec3fc5fEdeA6141a0aDE4",
          "topics": [
            "0xa1ec73989d79578cd6f67d4f593ac3e0a4d1020e5c0164db52108d7ff785406c",
            "0x905de293f4cf4c45c1fc01983ba2de29318164e6044e9fc4a455ad367f60773c"
          ],
          "data": "0x000000000000000000000000ea2482a4d1feb730e7ebca11bfc4c62ad25c2716000000000000000000000000de3089d40f3491de794fbb1eca109fac36f889d00000000000000000000000000000000000000000000000000000000000000769000000000000000000000000de3089d40f3491de794fbb1eca109fac36f889d000000000000000000000000000000000000000000000000000000000000000a000000000000000000000000000000000000000000000000000000000000005de6c636f64654c6f636174696f6ec258200000000000000000000000000000000000000000000000000000000000000000686c616e6775616765c25820000000000000000000000000000000000000000000000000000000000000000066736f7572636579051b2f2f2054686973206578616d706c652073686f777320686f7720746f2063616c63756c617465206120636f6e74696e756f75736c7920636f6d706f756e64696e6720696e746572657374656420726174652e0a2f2f20546869732063616c63756c6174696f6e20776f756c642072657175697265207369676e69666963616e74206f6e2d636861696e206761732c20627574206973206561737920666f72206120646563656e7472616c697a6564206f7261636c65206e6574776f726b2e0a0a2f2f20417267756d656e74732063616e2062652070726f7669646564207768656e2061207265717565737420697320696e697461746564206f6e2d636861696e20616e64207573656420696e20746865207265717565737420736f7572636520636f64652061732073686f776e2062656c6f770a636f6e73742050726f706f73616c4964203d20617267735b305d0a636f6e73742050726f706f73616c5374617465537472203d20617267735b315d0a6c65742050726f706f73616c5374617465203d20303b0a69662850726f706f73616c5374617465537472203d3d20224163746976652229207b0a202050726f706f73616c5374617465203d20300a7d656c7365206966202850726f706f73616c5374617465537472203d3d20225175657565642229207b0a202050726f706f73616c5374617465203d20310a7d656c7365206966202850726f706f73616c5374617465537472203d3d202245786563757465642229207b0a202050726f706f73616c5374617465203d20320a7d0a2f2f20636f6e73742050726f706f73616c4964203d20617267735b305d0a2f2f20636f6e73742050726f706f73616c5374617465203d20617267735b315d0a0a636f6e73742072657175657374203d2046756e6374696f6e732e6d616b654874747052657175657374287b0a202075726c3a206068747470733a2f2f636861696e6c696e6b2d66756e632e6f6e72656e6465722e636f6d2f6170692f73657473746174652f247b50726f706f73616c49647d2f247b50726f706f73616c53746174657d602c0a20206d6574686f64203a2027504f5354272c0a7d290a0a2f2f20436f6e74696e756f75736c792d636f6d706f756e64696e6720696e74657265737420666f726d756c613a2041203d2050655e287274290a636f6e7374205b726573706f6e73655d203d2061776169742050726f6d6973652e616c6c285b0a2020726571756573740a5d290a0a2f2f2054686520736f7572636520636f6465204d5553542072657475726e206120427566666572206f722074686520726571756573742077696c6c2072657475726e20616e206572726f72206d6573736167650a2f2f20557365206f6e65206f662074686520666f6c6c6f77696e672066756e6374696f6e7320746f20636f6e7665727420746f20612042756666657220726570726573656e74696e672074686520726573706f6e73652062797465732074686174206172652072657475726e656420746f2074686520636c69656e7420736d61727420636f6e74726163743a0a2f2f202d2046756e6374696f6e732e656e636f646555696e743235360a2f2f202d2046756e6374696f6e732e656e636f6465496e743235360a2f2f202d2046756e6374696f6e732e656e636f6465537472696e670a2f2f204f722072657475726e206120637573746f6d2042756666657220666f72206120637573746f6d206279746520656e636f64696e670a72657475726e2046756e6374696f6e732e656e636f646555696e743235362831293b0a64617267739f784d343335363831353332303939363737323037323630393338303138393937363333313634383032323838393436393737373537393132333230323031303336333733383033363635313936323366416374697665ff0000",
          "blockHash": "0xa3051d58b20b5e6d22d84c802ad89a4c74c27f5d2206049a98a5912bf1385fed",
          "blockNumber": "0x246e294",
          "transactionHash": "0xab6ad7651b03b7aa353e47158bab69119d678a30cebe7d245a8960b782cfd2c5",
          "transactionIndex": "0x11",
          "logIndex": "0x43",
          "removed": false
        },
        {
          "address": "0xeA2482A4d1fEb730E7EBca11BfC4c62Ad25C2716",
          "topics": [
            "0x1131472297a800fee664d1d89cfa8f7676ff07189ecc53f80bbb5f4969099db8",
            "0x905de293f4cf4c45c1fc01983ba2de29318164e6044e9fc4a455ad367f60773c"
          ],
          "data": "0x",
          "blockHash": "0xa3051d58b20b5e6d22d84c802ad89a4c74c27f5d2206049a98a5912bf1385fed",
          "blockNumber": "0x246e294",
          "transactionHash": "0xab6ad7651b03b7aa353e47158bab69119d678a30cebe7d245a8960b782cfd2c5",
          "transactionIndex": "0x11",
          "logIndex": "0x44",
          "removed": false
        },
        {
          "address": "0x0000000000000000000000000000000000001010",
          "topics": [
            "0x4dfe1bbbcf077ddc3e01291eea2d5c70c2b422b415d95645b9adcfd678cb1d63",
            "0x0000000000000000000000000000000000000000000000000000000000001010",
            "0x000000000000000000000000de3089d40f3491de794fbb1eca109fac36f889d0",
            "0x000000000000000000000000c26880a0af2ea0c7e8130e6ec47af756465452e8"
          ],
          "data": "0x0000000000000000000000000000000000000000000000000003e528f4e172000000000000000000000000000000000000000000000000001c47bcfaca9f30580000000000000000000000000000000000000000000020e1759e56ccc296296b0000000000000000000000000000000000000000000000001c43d7d1d5bdbe580000000000000000000000000000000000000000000020e175a23bf5b7779b6b",
          "blockHash": "0xa3051d58b20b5e6d22d84c802ad89a4c74c27f5d2206049a98a5912bf1385fed",
          "blockNumber": "0x246e294",
          "transactionHash": "0xab6ad7651b03b7aa353e47158bab69119d678a30cebe7d245a8960b782cfd2c5",
          "transactionIndex": "0x11",
          "logIndex": "0x45",
          "removed": false
        }
      ],
      "status": "0x1",
      "logsBloom": "0x00000000000000020000000000000000000000000000000000000001000001000000000000000008000000080000000000008400100000000000000000000040000000000002000000000000000000a00120000000000000000100080000000000000000000000000000000000000000400000008000000080000000000000000400008000000000000000000008000000000000001000000000001000000000280000000000000020000000080000000001000000000000000040000000004200000000200000000001000800000000000000000000000000100000000000800000000000000000000000000000000000001000080080400000000000100000",
      "effectiveGasPrice": "0x59682f10"
    }
  ],
  "libraries": [],
  "pending": [],
  "returns": {},
  "timestamp": 1690036073,
  "chain": 80001,
  "multi": false,
  "commit": "11626f6"
}