{
  "transactions": [
    {
      "hash": "0xf79218a0a03fe568d3d7f0e5391e14e46581f91a7f6dfd307b2befd4acc7f7c0",
      "transactionType": "CALL",
      "contractName": "FootyDAOToken",
      "contractAddress": "0xC01011C96781eEFBBb169b7F70e06AF29c950F7e",
      "function": "setInteractorByChainId(uint256,bytes)",
      "arguments": [
        "5",
        "0x0da0063089979e3776842d8bc782d2c7bf05b4c0"
      ],
      "transaction": {
        "type": "0x00",
        "from": "0xde3089d40f3491de794fbb1eca109fac36f889d0",
        "to": "0xc01011c96781eefbbb169b7f70e06af29c950f7e",
        "gas": "0x10cb4",
        "value": "0x0",
        "data": "0x4fd3f7d70000000000000000000000000000000000000000000000000000000000000005000000000000000000000000000000000000000000000000000000000000004000000000000000000000000000000000000000000000000000000000000000140da0063089979e3776842d8bc782d2c7bf05b4c0000000000000000000000000",
        "nonce": "0x387"
      },
      "additionalContracts": [],
      "isFixedGasLimit": false
    }
  ],
  "receipts": [],
  "libraries": [],
  "pending": [
    "0xf79218a0a03fe568d3d7f0e5391e14e46581f91a7f6dfd307b2befd4acc7f7c0"
  ],
  "returns": {},
  "timestamp": 1690023443,
  "chain": 80001,
  "multi": false,
  "commit": "2a7742d"
}