{
  "transactions": [
    {
      "hash": "0x433f9d732ec612840064a2fc9b4e9aa615f58fce65a7aaeb232a32045bdd9a1c",
      "transactionType": "CALL",
      "contractName": "FootyDAOToken",
      "contractAddress": "0xeA44410fe60B26707b15A88619Aa42a7aAF4a4b5",
      "function": "setInteractorByChainId(uint256,bytes)",
      "arguments": [
        "5",
        "0x42e3adaeef7076595cbfb2a9468118464c091395"
      ],
      "transaction": {
        "type": "0x00",
        "from": "0xde3089d40f3491de794fbb1eca109fac36f889d0",
        "to": "0xea44410fe60b26707b15a88619aa42a7aaf4a4b5",
        "gas": "0x10cb4",
        "value": "0x0",
        "data": "0x4fd3f7d700000000000000000000000000000000000000000000000000000000000000050000000000000000000000000000000000000000000000000000000000000040000000000000000000000000000000000000000000000000000000000000001442e3adaeef7076595cbfb2a9468118464c091395000000000000000000000000",
        "nonce": "0x3a9"
      },
      "additionalContracts": [],
      "isFixedGasLimit": false
    },
    {
      "hash": "0x31a240fc1ce49065ef112aa395a6482b5169464e2a8041c9513dd71fda4d778e",
      "transactionType": "CALL",
      "contractName": "FootyDAO",
      "contractAddress": "0x872487058cD5B585550b60C49396f7cf1e1d0C59",
      "function": "setInteractorByChainId(uint256,bytes)",
      "arguments": [
        "5",
        "0x50889ee374885277d8a888e3562f95566c751483"
      ],
      "transaction": {
        "type": "0x00",
        "from": "0xde3089d40f3491de794fbb1eca109fac36f889d0",
        "to": "0x872487058cd5b585550b60c49396f7cf1e1d0c59",
        "gas": "0x10d86",
        "value": "0x0",
        "data": "0x4fd3f7d700000000000000000000000000000000000000000000000000000000000000050000000000000000000000000000000000000000000000000000000000000040000000000000000000000000000000000000000000000000000000000000001450889ee374885277d8a888e3562f95566c751483000000000000000000000000",
        "nonce": "0x3aa"
      },
      "additionalContracts": [],
      "isFixedGasLimit": false
    }
  ],
  "receipts": [
    {
      "transactionHash": "0x433f9d732ec612840064a2fc9b4e9aa615f58fce65a7aaeb232a32045bdd9a1c",
      "transactionIndex": "0x15",
      "blockHash": "0xf7483312e19d917cf3ff46aedcd336e438a85decdf429b48249742baf95a18a0",
      "blockNumber": "0x246e302",
      "from": "0xDe3089d40F3491De794fBb1ECA109fAc36F889d0",
      "to": "0xeA44410fe60B26707b15A88619Aa42a7aAF4a4b5",
      "cumulativeGasUsed": "0x3092a0",
      "gasUsed": "0xb7bb",
      "contractAddress": null,
      "logs": [
        {
          "address": "0x0000000000000000000000000000000000001010",
          "topics": [
            "0x4dfe1bbbcf077ddc3e01291eea2d5c70c2b422b415d95645b9adcfd678cb1d63",
            "0x0000000000000000000000000000000000000000000000000000000000001010",
            "0x000000000000000000000000de3089d40f3491de794fbb1eca109fac36f889d0",
            "0x000000000000000000000000f903ba9e006193c1527bfbe65fe2123704ea3f99"
          ],
          "data": "0x0000000000000000000000000000000000000000000000000000402ac8b355000000000000000000000000000000000000000000000000001c43d7d1d50b4b7800000000000000000000000000000000000000000000100282f51f16c0cb937d0000000000000000000000000000000000000000000000001c4397a70c57f67800000000000000000000000000000000000000000000100282f55f41897ee87d",
          "blockHash": "0xf7483312e19d917cf3ff46aedcd336e438a85decdf429b48249742baf95a18a0",
          "blockNumber": "0x246e302",
          "transactionHash": "0x433f9d732ec612840064a2fc9b4e9aa615f58fce65a7aaeb232a32045bdd9a1c",
          "transactionIndex": "0x15",
          "logIndex": "0x5c",
          "removed": false
        }
      ],
      "status": "0x1",
      "logsBloom": "0x00000000000000000000000000000000000000000000000000000010000000000000000000000020000000000000000000008000100000000000000000000040000000000000000000000000000000800000000000000000000100000000000000000000000000000000000000000000000000000000000080000000000000000000000000000000000000000000000000000000001000000000000000000000200000000000000000000000000000000000000000000000000000000000004000000000000000000001000000000000000000000000000000100000001000000000000000000000000000000000000000000000000000000000000000100000",
      "effectiveGasPrice": "0x59682f10"
    },
    {
      "transactionHash": "0x31a240fc1ce49065ef112aa395a6482b5169464e2a8041c9513dd71fda4d778e",
      "transactionIndex": "0x16",
      "blockHash": "0xf7483312e19d917cf3ff46aedcd336e438a85decdf429b48249742baf95a18a0",
      "blockNumber": "0x246e302",
      "from": "0xDe3089d40F3491De794fBb1ECA109fAc36F889d0",
      "to": "0x872487058cD5B585550b60C49396f7cf1e1d0C59",
      "cumulativeGasUsed": "0x314aeb",
      "gasUsed": "0xb84b",
      "contractAddress": null,
      "logs": [
        {
          "address": "0x0000000000000000000000000000000000001010",
          "topics": [
            "0x4dfe1bbbcf077ddc3e01291eea2d5c70c2b422b415d95645b9adcfd678cb1d63",
            "0x0000000000000000000000000000000000000000000000000000000000001010",
            "0x000000000000000000000000de3089d40f3491de794fbb1eca109fac36f889d0",
            "0x000000000000000000000000f903ba9e006193c1527bfbe65fe2123704ea3f99"
          ],
          "data": "0x0000000000000000000000000000000000000000000000000000405d134dc5000000000000000000000000000000000000000000000000001c4397a70c4c7ac800000000000000000000000000000000000000000000100282f55f41897ee87d0000000000000000000000000000000000000000000000001c435749f8feb5c800000000000000000000000000000000000000000000100282f59f9e9cccad7d",
          "blockHash": "0xf7483312e19d917cf3ff46aedcd336e438a85decdf429b48249742baf95a18a0",
          "blockNumber": "0x246e302",
          "transactionHash": "0x31a240fc1ce49065ef112aa395a6482b5169464e2a8041c9513dd71fda4d778e",
          "transactionIndex": "0x16",
          "logIndex": "0x5d",
          "removed": false
        }
      ],
      "status": "0x1",
      "logsBloom": "0x00000000000000000000000000000000000000000000000000000010000000000000000000000020000000000000000000008000100000000000000000000040000000000000000000000000000000800000000000000000000100000000000000000000000000000000000000000000000000000000000080000000000000000000000000000000000000000000000000000000001000000000000000000000200000000000000000000000000000000000000000000000000000000000004000000000000000000001000000000000000000000000000000100000001000000000000000000000000000000000000000000000000000000000000000100000",
      "effectiveGasPrice": "0x59682f10"
    }
  ],
  "libraries": [],
  "pending": [],
  "returns": {},
  "timestamp": 1690036438,
  "chain": 80001,
  "multi": false,
  "commit": "11626f6"
}