{
  "transactions": [
    {
      "hash": "0xf79218a0a03fe568d3d7f0e5391e14e46581f91a7f6dfd307b2befd4acc7f7c0",
      "transactionType": "CALL",
      "contractName": "FootyDAOToken",
      "contractAddress": "0xC01011C96781eEFBBb169b7F70e06AF29c950F7e",
      "function": "setInteractorByChainId(uint256,bytes)",
      "arguments": [
        "5",
        "0x0da0063089979e3776842d8bc782d2c7bf05b4c0"
      ],
      "transaction": {
        "type": "0x00",
        "from": "0xde3089d40f3491de794fbb1eca109fac36f889d0",
        "to": "0xc01011c96781eefbbb169b7f70e06af29c950f7e",
        "gas": "0x10cb4",
        "value": "0x0",
        "data": "0x4fd3f7d70000000000000000000000000000000000000000000000000000000000000005000000000000000000000000000000000000000000000000000000000000004000000000000000000000000000000000000000000000000000000000000000140da0063089979e3776842d8bc782d2c7bf05b4c0000000000000000000000000",
        "nonce": "0x387"
      },
      "additionalContracts": [],
      "isFixedGasLimit": false
    }
  ],
  "receipts": [
    {
      "transactionHash": "0xf79218a0a03fe568d3d7f0e5391e14e46581f91a7f6dfd307b2befd4acc7f7c0",
      "transactionIndex": "0x0",
      "blockHash": "0xa74ac412f8cff785544509e7ee8c82cacc3400f00ef25bad4a91bc2877fb30d5",
      "blockNumber": "0x246d2c2",
      "from": "0xDe3089d40F3491De794fBb1ECA109fAc36F889d0",
      "to": "0xC01011C96781eEFBBb169b7F70e06AF29c950F7e",
      "cumulativeGasUsed": "0xb7bb",
      "gasUsed": "0xb7bb",
      "contractAddress": null,
      "logs": [
        {
          "address": "0x0000000000000000000000000000000000001010",
          "topics": [
            "0x4dfe1bbbcf077ddc3e01291eea2d5c70c2b422b415d95645b9adcfd678cb1d63",
            "0x0000000000000000000000000000000000000000000000000000000000001010",
            "0x000000000000000000000000de3089d40f3491de794fbb1eca109fac36f889d0",
            "0x000000000000000000000000c26880a0af2ea0c7e8130e6ec47af756465452e8"
          ],
          "data": "0x0000000000000000000000000000000000000000000000000010b5ceeea8b40b0000000000000000000000000000000000000000000000003028b102fe208b9a0000000000000000000000000000000000000000000020e0056d34726d5858810000000000000000000000000000000000000000000000003017fb340f77d78f0000000000000000000000000000000000000000000020e0057dea415c010c8c",
          "blockHash": "0xa74ac412f8cff785544509e7ee8c82cacc3400f00ef25bad4a91bc2877fb30d5",
          "blockNumber": "0x246d2c2",
          "transactionHash": "0xf79218a0a03fe568d3d7f0e5391e14e46581f91a7f6dfd307b2befd4acc7f7c0",
          "transactionIndex": "0x0",
          "logIndex": "0x0",
          "removed": false
        }
      ],
      "status": "0x1",
      "logsBloom": "0x00000000000000020000000000000000000000000000000000000000000000000000000000000000000000000000000000008000100000000000000000000040000000000000000000000000000000800000000000000000000100000000000000000000000000000000000000000000000000000000000080000000000000000000000000000000000000000000000000000000001000000000000000000000200000000000000020000000000000000001000000000000000000000000004000000000000000000001000000000000000000000000000000100000000000000000000000000000000000000000000000000000000000000000000000100000",
      "type": "0x0",
      "effectiveGasPrice": "0x174876e800"
    }
  ],
  "libraries": [],
  "pending": [],
  "returns": {},
  "timestamp": 1690023455,
  "chain": 80001,
  "multi": false,
  "commit": "2a7742d"
}