{
  "transactions": [
    {
      "hash": "0x1d8b8935f0a50f9877ec78d18774f62a01d00aae30345a1e27cce77101084918",
      "transactionType": "CALL",
      "contractName": "FootyDAOToken",
      "contractAddress": "0xB4B2D82F6CfEeFdbf90E5E633Af6D63D46BD7478",
      "function": "setInteractorByChainId(uint256,bytes)",
      "arguments": [
        "5",
        "0xd09e495c4a3c2cf4ceee3739708eb2a810e1e7b3"
      ],
      "transaction": {
        "type": "0x00",
        "from": "0xde3089d40f3491de794fbb1eca109fac36f889d0",
        "to": "0xb4b2d82f6cfeefdbf90e5e633af6d63d46bd7478",
        "gas": "0x9267",
        "value": "0x0",
        "data": "0x4fd3f7d7000000000000000000000000000000000000000000000000000000000000000500000000000000000000000000000000000000000000000000000000000000400000000000000000000000000000000000000000000000000000000000000014d09e495c4a3c2cf4ceee3739708eb2a810e1e7b3000000000000000000000000",
        "nonce": "0x3bb"
      },
      "additionalContracts": [],
      "isFixedGasLimit": false
    },
    {
      "hash": "0xc09ab266ec1cbe129156e9d0fa4d996238fe2cc7a876223f00ab59b04d62b6dc",
      "transactionType": "CALL",
      "contractName": "FootyDAO",
      "contractAddress": "0x0Ca3549Ed2C0Fa6942D7585BE2363990812aFb18",
      "function": "setInteractorByChainId(uint256,bytes)",
      "arguments": [
        "5",
        "0x26e328bc62207d7acf801c405167bc0f4eccedea"
      ],
      "transaction": {
        "type": "0x00",
        "from": "0xde3089d40f3491de794fbb1eca109fac36f889d0",
        "to": "0x0ca3549ed2c0fa6942d7585be2363990812afb18",
        "gas": "0x932d",
        "value": "0x0",
        "data": "0x4fd3f7d700000000000000000000000000000000000000000000000000000000000000050000000000000000000000000000000000000000000000000000000000000040000000000000000000000000000000000000000000000000000000000000001426e328bc62207d7acf801c405167bc0f4eccedea000000000000000000000000",
        "nonce": "0x3bc"
      },
      "additionalContracts": [],
      "isFixedGasLimit": false
    },
    {
      "hash": "0xae0deff1a0e109aff69fd8501443947f2b51a7a739a6e6b887f2a92003e8d780",
      "transactionType": "CALL",
      "contractName": "FootyDAO",
      "contractAddress": "0x0Ca3549Ed2C0Fa6942D7585BE2363990812aFb18",
      "function": "propose(address[],uint256[],bytes[],string):(uint256)",
      "arguments": [
        "[0xd9f999c0ad7aD15a10cdE364993F71657e8Fd713]",
        "[0]",
        "[0x6ca0f3210000000000000000000000000000000000000000000000000000000000000064]",
        "Test Proposal2"
      ],
      "transaction": {
        "type": "0x00",
        "from": "0xde3089d40f3491de794fbb1eca109fac36f889d0",
        "to": "0x0ca3549ed2c0fa6942d7585be2363990812afb18",
        "gas": "0xefcc0",
        "value": "0x0",
        "data": "0x7d5e81e2000000000000000000000000000000000000000000000000000000000000008000000000000000000000000000000000000000000000000000000000000000c0000000000000000000000000000000000000000000000000000000000000010000000000000000000000000000000000000000000000000000000000000001a00000000000000000000000000000000000000000000000000000000000000001000000000000000000000000d9f999c0ad7ad15a10cde364993f71657e8fd713000000000000000000000000000000000000000000000000000000000000000100000000000000000000000000000000000000000000000000000000000000000000000000000000000000000000000000000000000000000000000000000001000000000000000000000000000000000000000000000000000000000000002000000000000000000000000000000000000000000000000000000000000000246ca0f321000000000000000000000000000000000000000000000000000000000000006400000000000000000000000000000000000000000000000000000000000000000000000000000000000000000000000000000000000000000000000e546573742050726f706f73616c32000000000000000000000000000000000000",
        "nonce": "0x3bd"
      },
      "additionalContracts": [],
      "isFixedGasLimit": false
    }
  ],
  "receipts": [
    {
      "transactionHash": "0x1d8b8935f0a50f9877ec78d18774f62a01d00aae30345a1e27cce77101084918",
      "transactionIndex": "0x2",
      "blockHash": "0x030ca808f4fc5d196653f0a11b6b7f94c350423be8aac3416915960ed0f41b73",
      "blockNumber": "0x246e585",
      "from": "0xDe3089d40F3491De794fBb1ECA109fAc36F889d0",
      "to": "0xB4B2D82F6CfEeFdbf90E5E633Af6D63D46BD7478",
      "cumulativeGasUsed": "0x1aa06",
      "gasUsed": "0x69ff",
      "contractAddress": null,
      "logs": [
        {
          "address": "0x0000000000000000000000000000000000001010",
          "topics": [
            "0x4dfe1bbbcf077ddc3e01291eea2d5c70c2b422b415d95645b9adcfd678cb1d63",
            "0x0000000000000000000000000000000000000000000000000000000000001010",
            "0x000000000000000000000000de3089d40f3491de794fbb1eca109fac36f889d0",
            "0x000000000000000000000000c275dc8be39f50d12f66b6a63629c39da5bae5bd"
          ],
          "data": "0x00000000000000000000000000000000000000000000000000002504ca0e3aff0000000000000000000000000000000000000000000000001bfc7b8bf18b40b00000000000000000000000000000000000000000000012528f1d0ebd053ee80e0000000000000000000000000000000000000000000000001bfc5687277d05b10000000000000000000000000000000000000000000012528f1d33c1cf4d230d",
          "blockHash": "0x030ca808f4fc5d196653f0a11b6b7f94c350423be8aac3416915960ed0f41b73",
          "blockNumber": "0x246e585",
          "transactionHash": "0x1d8b8935f0a50f9877ec78d18774f62a01d00aae30345a1e27cce77101084918",
          "transactionIndex": "0x2",
          "logIndex": "0x4",
          "removed": false
        }
      ],
      "status": "0x1",
      "logsBloom": "0x00000000000000000000000000000000000000000000000000000000000000000000000000000000000000000000000000008000102000000000000000000040000000000000000000000000000000800000000000000000040100000000000000000000000000000000000000000000000000000000000080000000000000000000000000000000000000000000000000000000001000000000000000000000200000000000000000000000000000000000000000000000000040000000004000000000000000000001000000000000000000000000000000100000000000000000000000000000000000000000000000000000000000000000000000100000",
      "effectiveGasPrice": "0x59682f11"
    },
    {
      "transactionHash": "0xc09ab266ec1cbe129156e9d0fa4d996238fe2cc7a876223f00ab59b04d62b6dc",
      "transactionIndex": "0x3",
      "blockHash": "0x030ca808f4fc5d196653f0a11b6b7f94c350423be8aac3416915960ed0f41b73",
      "blockNumber": "0x246e585",
      "from": "0xDe3089d40F3491De794fBb1ECA109fAc36F889d0",
      "to": "0x0Ca3549Ed2C0Fa6942D7585BE2363990812aFb18",
      "cumulativeGasUsed": "0x21495",
      "gasUsed": "0x6a8f",
      "contractAddress": null,
      "logs": [
        {
          "address": "0x0000000000000000000000000000000000001010",
          "topics": [
            "0x4dfe1bbbcf077ddc3e01291eea2d5c70c2b422b415d95645b9adcfd678cb1d63",
            "0x0000000000000000000000000000000000000000000000000000000000001010",
            "0x000000000000000000000000de3089d40f3491de794fbb1eca109fac36f889d0",
            "0x000000000000000000000000c275dc8be39f50d12f66b6a63629c39da5bae5bd"
          ],
          "data": "0x0000000000000000000000000000000000000000000000000000253714a8ab8f0000000000000000000000000000000000000000000000001bfc5687277665c10000000000000000000000000000000000000000000012528f1d33c1cf4d230d0000000000000000000000000000000000000000000000001bfc315012cdba320000000000000000000000000000000000000000000012528f1d58f8e3f5ce9c",
          "blockHash": "0x030ca808f4fc5d196653f0a11b6b7f94c350423be8aac3416915960ed0f41b73",
          "blockNumber": "0x246e585",
          "transactionHash": "0xc09ab266ec1cbe129156e9d0fa4d996238fe2cc7a876223f00ab59b04d62b6dc",
          "transactionIndex": "0x3",
          "logIndex": "0x5",
          "removed": false
        }
      ],
      "status": "0x1",
      "logsBloom": "0x00000000000000000000000000000000000000000000000000000000000000000000000000000000000000000000000000008000102000000000000000000040000000000000000000000000000000800000000000000000040100000000000000000000000000000000000000000000000000000000000080000000000000000000000000000000000000000000000000000000001000000000000000000000200000000000000000000000000000000000000000000000000040000000004000000000000000000001000000000000000000000000000000100000000000000000000000000000000000000000000000000000000000000000000000100000",
      "effectiveGasPrice": "0x59682f11"
    },
    {
      "transactionHash": "0xae0deff1a0e109aff69fd8501443947f2b51a7a739a6e6b887f2a92003e8d780",
      "transactionIndex": "0x4",
      "blockHash": "0x030ca808f4fc5d196653f0a11b6b7f94c350423be8aac3416915960ed0f41b73",
      "blockNumber": "0x246e585",
      "from": "0xDe3089d40F3491De794fBb1ECA109fAc36F889d0",
      "to": "0x0Ca3549Ed2C0Fa6942D7585BE2363990812aFb18",
      "cumulativeGasUsed": "0xd3c0f",
      "gasUsed": "0xb277a",
      "contractAddress": null,
      "logs": [
        {
          "address": "0x0Ca3549Ed2C0Fa6942D7585BE2363990812aFb18",
          "topics": [
            "0x7d84a6263ae0d98d3329bd7b46bb4e8d6f98cd35a7adb45c274c8b7fd5ebd5e0"
          ],
          "data": "0xe5f50a26dc5d9de3c0c8a250acc54d80cf2df3cdf7183dd7140bec3406d57fad000000000000000000000000de3089d40f3491de794fbb1eca109fac36f889d00000000000000000000000000000000000000000000000000000000000000120000000000000000000000000000000000000000000000000000000000000016000000000000000000000000000000000000000000000000000000000000001a000000000000000000000000000000000000000000000000000000000000002000000000000000000000000000000000000000000000000000000000064bbf08d0000000000000000000000000000000000000000000000000000000064be938d00000000000000000000000000000000000000000000000000000000000002a00000000000000000000000000000000000000000000000000000000000000001000000000000000000000000d9f999c0ad7ad15a10cde364993f71657e8fd713000000000000000000000000000000000000000000000000000000000000000100000000000000000000000000000000000000000000000000000000000000000000000000000000000000000000000000000000000000000000000000000001000000000000000000000000000000000000000000000000000000000000002000000000000000000000000000000000000000000000000000000000000000000000000000000000000000000000000000000000000000000000000000000001000000000000000000000000000000000000000000000000000000000000002000000000000000000000000000000000000000000000000000000000000000246ca0f321000000000000000000000000000000000000000000000000000000000000006400000000000000000000000000000000000000000000000000000000000000000000000000000000000000000000000000000000000000000000000e546573742050726f706f73616c32000000000000000000000000000000000000",
          "blockHash": "0x030ca808f4fc5d196653f0a11b6b7f94c350423be8aac3416915960ed0f41b73",
          "blockNumber": "0x246e585",
          "transactionHash": "0xae0deff1a0e109aff69fd8501443947f2b51a7a739a6e6b887f2a92003e8d780",
          "transactionIndex": "0x4",
          "logIndex": "0x6",
          "removed": false
        },
        {
          "address": "0xEe9Bf52E5Ea228404bB54BCFbbDa8c21131b9039",
          "topics": [
            "0x99f7f4e65b4b9fbabd4e357c47ed3099b36e57ecd3a43e84662f34c207d0ebe4",
            "0xe4440cf38b0b3d22901e442cdbfda17a840a0ec97e5b10f17aef6439e6ec8790"
          ],
          "data": "0x00000000000000000000000000000000000000000000000000000000000007690000000000000000000000008eb80e8b5c9f5de0f0a6ca31eb3c6de94375dc2600000000000000000000000000000000000000000000000000000000000493e00000000000000000000000000000000000000000000000000000000059682f11000000000000000000000000ea6721ac65bced841b8ec3fc5fedea6141a0ade4000000000000000000000000000000000000000000000000000000000000000000000000000000000000000000000000000000000000000002c68af0bb14000000000000000000000000000000000000000000000000000002c6fac4dd5f2dee0000000000000000000000000000000000000000000000000000000064bbf08d",
          "blockHash": "0x030ca808f4fc5d196653f0a11b6b7f94c350423be8aac3416915960ed0f41b73",
          "blockNumber": "0x246e585",
          "transactionHash": "0xae0deff1a0e109aff69fd8501443947f2b51a7a739a6e6b887f2a92003e8d780",
          "transactionIndex": "0x4",
          "logIndex": "0x7",
          "removed": false
        },
        {
          "address": "0xeA6721aC65BCeD841B8ec3fc5fEdeA6141a0aDE4",
          "topics": [
            "0xa1ec73989d79578cd6f67d4f593ac3e0a4d1020e5c0164db52108d7ff785406c",
            "0xe4440cf38b0b3d22901e442cdbfda17a840a0ec97e5b10f17aef6439e6ec8790"
          ],
          "data": "0x0000000000000000000000008eb80e8b5c9f5de0f0a6ca31eb3c6de94375dc26000000000000000000000000de3089d40f3491de794fbb1eca109fac36f889d00000000000000000000000000000000000000000000000000000000000000769000000000000000000000000de3089d40f3491de794fbb1eca109fac36f889d000000000000000000000000000000000000000000000000000000000000000a000000000000000000000000000000000000000000000000000000000000005df6c636f64654c6f636174696f6ec258200000000000000000000000000000000000000000000000000000000000000000686c616e6775616765c25820000000000000000000000000000000000000000000000000000000000000000066736f7572636579051b2f2f2054686973206578616d706c652073686f777320686f7720746f2063616c63756c617465206120636f6e74696e756f75736c7920636f6d706f756e64696e6720696e746572657374656420726174652e0a2f2f20546869732063616c63756c6174696f6e20776f756c642072657175697265207369676e69666963616e74206f6e2d636861696e206761732c20627574206973206561737920666f72206120646563656e7472616c697a6564206f7261636c65206e6574776f726b2e0a0a2f2f20417267756d656e74732063616e2062652070726f7669646564207768656e2061207265717565737420697320696e697461746564206f6e2d636861696e20616e64207573656420696e20746865207265717565737420736f7572636520636f64652061732073686f776e2062656c6f770a636f6e73742050726f706f73616c4964203d20617267735b305d0a636f6e73742050726f706f73616c5374617465537472203d20617267735b315d0a6c65742050726f706f73616c5374617465203d20303b0a69662850726f706f73616c5374617465537472203d3d20224163746976652229207b0a202050726f706f73616c5374617465203d20300a7d656c7365206966202850726f706f73616c5374617465537472203d3d20225175657565642229207b0a202050726f706f73616c5374617465203d20310a7d656c7365206966202850726f706f73616c5374617465537472203d3d202245786563757465642229207b0a202050726f706f73616c5374617465203d20320a7d0a2f2f20636f6e73742050726f706f73616c4964203d20617267735b305d0a2f2f20636f6e73742050726f706f73616c5374617465203d20617267735b315d0a0a636f6e73742072657175657374203d2046756e6374696f6e732e6d616b654874747052657175657374287b0a202075726c3a206068747470733a2f2f636861696e6c696e6b2d66756e632e6f6e72656e6465722e636f6d2f6170692f73657473746174652f247b50726f706f73616c49647d2f247b50726f706f73616c53746174657d602c0a20206d6574686f64203a2027504f5354272c0a7d290a0a2f2f20436f6e74696e756f75736c792d636f6d706f756e64696e6720696e74657265737420666f726d756c613a2041203d2050655e287274290a636f6e7374205b726573706f6e73655d203d2061776169742050726f6d6973652e616c6c285b0a2020726571756573740a5d290a0a2f2f2054686520736f7572636520636f6465204d5553542072657475726e206120427566666572206f722074686520726571756573742077696c6c2072657475726e20616e206572726f72206d6573736167650a2f2f20557365206f6e65206f662074686520666f6c6c6f77696e672066756e6374696f6e7320746f20636f6e7665727420746f20612042756666657220726570726573656e74696e672074686520726573706f6e73652062797465732074686174206172652072657475726e656420746f2074686520636c69656e7420736d61727420636f6e74726163743a0a2f2f202d2046756e6374696f6e732e656e636f646555696e743235360a2f2f202d2046756e6374696f6e732e656e636f6465496e743235360a2f2f202d2046756e6374696f6e732e656e636f6465537472696e670a2f2f204f722072657475726e206120637573746f6d2042756666657220666f72206120637573746f6d206279746520656e636f64696e670a72657475726e2046756e6374696f6e732e656e636f646555696e743235362831293b0a64617267739f784e31303430313235383939323135383733363432323235343337313230343935313531343337353630373130323738313530373139353131303432353837313238343531323638323133313434373766416374697665ff00",
          "blockHash": "0x030ca808f4fc5d196653f0a11b6b7f94c350423be8aac3416915960ed0f41b73",
          "blockNumber": "0x246e585",
          "transactionHash": "0xae0deff1a0e109aff69fd8501443947f2b51a7a739a6e6b887f2a92003e8d780",
          "transactionIndex": "0x4",
          "logIndex": "0x8",
          "removed": false
        },
        {
          "address": "0x8eb80e8b5C9f5DE0f0A6ca31EB3c6DE94375DC26",
          "topics": [
            "0x1131472297a800fee664d1d89cfa8f7676ff07189ecc53f80bbb5f4969099db8",
            "0xe4440cf38b0b3d22901e442cdbfda17a840a0ec97e5b10f17aef6439e6ec8790"
          ],
          "data": "0x",
          "blockHash": "0x030ca808f4fc5d196653f0a11b6b7f94c350423be8aac3416915960ed0f41b73",
          "blockNumber": "0x246e585",
          "transactionHash": "0xae0deff1a0e109aff69fd8501443947f2b51a7a739a6e6b887f2a92003e8d780",
          "transactionIndex": "0x4",
          "logIndex": "0x9",
          "removed": false
        },
        {
          "address": "0x0000000000000000000000000000000000001010",
          "topics": [
            "0x4dfe1bbbcf077ddc3e01291eea2d5c70c2b422b415d95645b9adcfd678cb1d63",
            "0x0000000000000000000000000000000000000000000000000000000000001010",
            "0x000000000000000000000000de3089d40f3491de794fbb1eca109fac36f889d0",
            "0x000000000000000000000000c275dc8be39f50d12f66b6a63629c39da5bae5bd"
          ],
          "data": "0x0000000000000000000000000000000000000000000000000003e5437fda8d7a0000000000000000000000000000000000000000000000001bfc315012c711420000000000000000000000000000000000000000000012528f1d58f8e3f5ce9c0000000000000000000000000000000000000000000000001bf84c0c92ec83c80000000000000000000000000000000000000000000012528f213e3c63d05c16",
          "blockHash": "0x030ca808f4fc5d196653f0a11b6b7f94c350423be8aac3416915960ed0f41b73",
          "blockNumber": "0x246e585",
          "transactionHash": "0xae0deff1a0e109aff69fd8501443947f2b51a7a739a6e6b887f2a92003e8d780",
          "transactionIndex": "0x4",
          "logIndex": "0xa",
          "removed": false
        }
      ],
      "status": "0x1",
      "logsBloom": "0x00000000000000000000000000000000000000000000000000000000000001800000000000000008000000000000000000008000102000000000000000000040000000000002000000000000000000a00020000000000000040100080000000000000000000000000000000002000000000000008000000080000000000000000000008000000000000000000008000000000000001000000020001000000000280000000004002000000000000000000000000000000000000040004000004200000000000000008001000800000000000000000000000000100000000000800008000000000000000000000000000000001000180080400000000000100000",
      "effectiveGasPrice": "0x59682f11"
    }
  ],
  "libraries": [],
  "pending": [],
  "returns": {},
  "timestamp": 1690038416,
  "chain": 80001,
  "multi": false,
  "commit": "11626f6"
}