{
  "transactions": [
    {
      "hash": "0x2cbe851425ea4398b52aab3be84d1159059401079311182efc0d8e45ab0d7d65",
      "transactionType": "CALL",
      "contractName": "FootyDAOToken",
      "contractAddress": "0x5F7b0BDeE6f07ce4ea8681509CDc39eA809C7a6d",
      "function": "setInteractorByChainId(uint256,bytes)",
      "arguments": [
        "5",
        "0x42e3adaeef7076595cbfb2a9468118464c091395"
      ],
      "transaction": {
        "type": "0x00",
        "from": "0xde3089d40f3491de794fbb1eca109fac36f889d0",
        "to": "0x5f7b0bdee6f07ce4ea8681509cdc39ea809c7a6d",
        "gas": "0x10cb4",
        "value": "0x0",
        "data": "0x4fd3f7d700000000000000000000000000000000000000000000000000000000000000050000000000000000000000000000000000000000000000000000000000000040000000000000000000000000000000000000000000000000000000000000001442e3adaeef7076595cbfb2a9468118464c091395000000000000000000000000",
        "nonce": "0x39a"
      },
      "additionalContracts": [],
      "isFixedGasLimit": false
    }
  ],
  "receipts": [
    {
      "transactionHash": "0x2cbe851425ea4398b52aab3be84d1159059401079311182efc0d8e45ab0d7d65",
      "transactionIndex": "0x0",
      "blockHash": "0x19d09765d542849d700140d077829236c8d35d7c5d1eb68299d249d1cb808537",
      "blockNumber": "0x246e0e3",
      "from": "0xDe3089d40F3491De794fBb1ECA109fAc36F889d0",
      "to": "0x5F7b0BDeE6f07ce4ea8681509CDc39eA809C7a6d",
      "cumulativeGasUsed": "0xb7bb",
      "gasUsed": "0xb7bb",
      "contractAddress": null,
      "logs": [
        {
          "address": "0x0000000000000000000000000000000000001010",
          "topics": [
            "0x4dfe1bbbcf077ddc3e01291eea2d5c70c2b422b415d95645b9adcfd678cb1d63",
            "0x0000000000000000000000000000000000000000000000000000000000001010",
            "0x000000000000000000000000de3089d40f3491de794fbb1eca109fac36f889d0",
            "0x000000000000000000000000c26880a0af2ea0c7e8130e6ec47af756465452e8"
          ],
          "data": "0x0000000000000000000000000000000000000000000000000013b21d5a0e49930000000000000000000000000000000000000000000000001ca117e35f63eb1b0000000000000000000000000000000000000000000020e14f156b1af026ecfb0000000000000000000000000000000000000000000000001c8d65c60555a1880000000000000000000000000000000000000000000020e14f291d384a35368e",
          "blockHash": "0x19d09765d542849d700140d077829236c8d35d7c5d1eb68299d249d1cb808537",
          "blockNumber": "0x246e0e3",
          "transactionHash": "0x2cbe851425ea4398b52aab3be84d1159059401079311182efc0d8e45ab0d7d65",
          "transactionIndex": "0x0",
          "logIndex": "0x0",
          "removed": false
        }
      ],
      "status": "0x1",
      "logsBloom": "0x00000000000000020000000000000000000000000000000000000000000000000000000000000000000000000000000000008000100000000000000000000040000000000000000000000000000000800000000000000000000100000000000000000000000000000000000000000000000000000000000080000000000000000000000000000000000000000000000000000000001000000000000000000000200000000000000020000000000000000001000000000000000000000000004000000000000000000001000000000000000000000000000000100000000000000000000000000000000000000000000000000000000000000000000000100000",
      "type": "0x0",
      "effectiveGasPrice": "0x1b71683c19"
    }
  ],
  "libraries": [],
  "pending": [],
  "returns": {},
  "timestamp": 1690034733,
  "chain": 80001,
  "multi": false,
  "commit": "2a7742d"
}