{
  "transactions": [
    {
      "hash": "0x7d694c7c5a717797c5e5d0f058ea7cc2c2260c3266abec6e8f2c90740cda6bb7",
      "transactionType": "CALL",
      "contractName": "FootyDAOToken",
      "contractAddress": "0xA4122DA72d54E024D4d321F80bFa61AF413144C5",
      "function": "setInteractorByChainId(uint256,bytes)",
      "arguments": [
        "5",
        "0xe07b7b35ac82fecb64218a51e78337f4237fd11f"
      ],
      "transaction": {
        "type": "0x00",
        "from": "0xde3089d40f3491de794fbb1eca109fac36f889d0",
        "to": "0xa4122da72d54e024d4d321f80bfa61af413144c5",
        "gas": "0x10cb4",
        "value": "0x0",
        "data": "0x4fd3f7d7000000000000000000000000000000000000000000000000000000000000000500000000000000000000000000000000000000000000000000000000000000400000000000000000000000000000000000000000000000000000000000000014e07b7b35ac82fecb64218a51e78337f4237fd11f000000000000000000000000",
        "nonce": "0x390"
      },
      "additionalContracts": [],
      "isFixedGasLimit": false
    }
  ],
  "receipts": [
    {
      "transactionHash": "0x7d694c7c5a717797c5e5d0f058ea7cc2c2260c3266abec6e8f2c90740cda6bb7",
      "transactionIndex": "0x0",
      "blockHash": "0x41bbf694c0878ef4038b3075b123de82ae630ce0d42c726107ca6de191f75d32",
      "blockNumber": "0x246dac5",
      "from": "0xDe3089d40F3491De794fBb1ECA109fAc36F889d0",
      "to": "0xA4122DA72d54E024D4d321F80bFa61AF413144C5",
      "cumulativeGasUsed": "0xb7bb",
      "gasUsed": "0xb7bb",
      "contractAddress": null,
      "logs": [
        {
          "address": "0x0000000000000000000000000000000000001010",
          "topics": [
            "0x4dfe1bbbcf077ddc3e01291eea2d5c70c2b422b415d95645b9adcfd678cb1d63",
            "0x0000000000000000000000000000000000000000000000000000000000001010",
            "0x000000000000000000000000de3089d40f3491de794fbb1eca109fac36f889d0",
            "0x000000000000000000000000f903ba9e006193c1527bfbe65fe2123704ea3f99"
          ],
          "data": "0x0000000000000000000000000000000000000000000000000010b5ceeea8b40b00000000000000000000000000000000000000000000000028344e71fd38281200000000000000000000000000000000000000000000100271530df8f44c5cfb000000000000000000000000000000000000000000000000282398a30e8f74070000000000000000000000000000000000000000000010027163c3c7e2f51106",
          "blockHash": "0x41bbf694c0878ef4038b3075b123de82ae630ce0d42c726107ca6de191f75d32",
          "blockNumber": "0x246dac5",
          "transactionHash": "0x7d694c7c5a717797c5e5d0f058ea7cc2c2260c3266abec6e8f2c90740cda6bb7",
          "transactionIndex": "0x0",
          "logIndex": "0x0",
          "removed": false
        }
      ],
      "status": "0x1",
      "logsBloom": "0x00000000000000000000000000000000000000000000000000000010000000000000000000000020000000000000000000008000100000000000000000000040000000000000000000000000000000800000000000000000000100000000000000000000000000000000000000000000000000000000000080000000000000000000000000000000000000000000000000000000001000000000000000000000200000000000000000000000000000000000000000000000000000000000004000000000000000000001000000000000000000000000000000100000001000000000000000000000000000000000000000000000000000000000000000100000",
      "type": "0x0",
      "effectiveGasPrice": "0x174876e804"
    }
  ],
  "libraries": [],
  "pending": [],
  "returns": {},
  "timestamp": 1690029857,
  "chain": 80001,
  "multi": false,
  "commit": "2a7742d"
}