{
  "transactions": [
    {
      "hash": "0x2a9bf118e46f9927423b484228cc7890758d0c3b7087f216111c3e16f676f466",
      "transactionType": "CALL",
      "contractName": "FootyDAOToken",
      "contractAddress": "0x724ebd5C7F4b54AB80684Ad610D583545AbCAEFf",
      "function": "setInteractorByChainId(uint256,bytes)",
      "arguments": [
        "5",
        "0x0000000000000000000000003c73a767b352e4aed3c2c12f191e4908a14b062b"
      ],
      "transaction": {
        "type": "0x00",
        "from": "0xde3089d40f3491de794fbb1eca109fac36f889d0",
        "to": "0x724ebd5c7f4b54ab80684ad610d583545abcaeff",
        "gas": "0x175c6",
        "value": "0x0",
        "data": "0x4fd3f7d70000000000000000000000000000000000000000000000000000000000000005000000000000000000000000000000000000000000000000000000000000004000000000000000000000000000000000000000000000000000000000000000200000000000000000000000003c73a767b352e4aed3c2c12f191e4908a14b062b",
        "nonce": "0x37f"
      },
      "additionalContracts": [],
      "isFixedGasLimit": false
    }
  ],
  "receipts": [
    {
      "transactionHash": "0x2a9bf118e46f9927423b484228cc7890758d0c3b7087f216111c3e16f676f466",
      "transactionIndex": "0x0",
      "blockHash": "0xfcf662a4e9fd5e40af00e3bfb4c4f17b52a4e051f40d949a2103f012d5490df6",
      "blockNumber": "0x246cd51",
      "from": "0xDe3089d40F3491De794fBb1ECA109fAc36F889d0",
      "to": "0x724ebd5C7F4b54AB80684Ad610D583545AbCAEFf",
      "cumulativeGasUsed": "0x10e9c",
      "gasUsed": "0x10e9c",
      "contractAddress": null,
      "logs": [
        {
          "address": "0x0000000000000000000000000000000000001010",
          "topics": [
            "0x4dfe1bbbcf077ddc3e01291eea2d5c70c2b422b415d95645b9adcfd678cb1d63",
            "0x0000000000000000000000000000000000000000000000000000000000001010",
            "0x000000000000000000000000de3089d40f3491de794fbb1eca109fac36f889d0",
            "0x000000000000000000000000be188d6641e8b680743a4815dfa0f6208038960f"
          ],
          "data": "0x00000000000000000000000000000000000000000000000000189c9d911584dc0000000000000000000000000000000000000000000000003ae176f9d260f01800000000000000000000000000000000000000000000333e85babc6a414a84220000000000000000000000000000000000000000000000003ac8da5c414b6b3c00000000000000000000000000000000000000000000333e85d35907d26008fe",
          "blockHash": "0xfcf662a4e9fd5e40af00e3bfb4c4f17b52a4e051f40d949a2103f012d5490df6",
          "blockNumber": "0x246cd51",
          "transactionHash": "0x2a9bf118e46f9927423b484228cc7890758d0c3b7087f216111c3e16f676f466",
          "transactionIndex": "0x0",
          "logIndex": "0x0",
          "removed": false
        }
      ],
      "status": "0x1",
      "logsBloom": "0x00000000000000000000000000000000000000000000000000000000000000000000000000000000000000000000000000008000100000000000000000000040000000000000000000000000000000800000000000000000000100000000004000000000000000000000000000000000000000000000000080000000000000000000000000000000000000000000000000000000001080000000000000000000200000000000000000000000000000000000000000000000000000000000004000000000000000000001000000000000000000000000000000100040000000000000000000000000000000000000000000000000000000000000000000100000",
      "type": "0x0",
      "effectiveGasPrice": "0x174876e800"
    }
  ],
  "libraries": [],
  "pending": [],
  "returns": {},
  "timestamp": 1690019112,
  "chain": 80001,
  "multi": false,
  "commit": "06221d4"
}