{
  "transactions": [
    {
      "hash": "0xf9abff6c4731c4158c605af26a9daac2f43eda76b29057932b3613a01814e24f",
      "transactionType": "CALL",
      "contractName": "FootyDAOToken",
      "contractAddress": "0xB4B2D82F6CfEeFdbf90E5E633Af6D63D46BD7478",
      "function": "setInteractorByChainId(uint256,bytes)",
      "arguments": [
        "5",
        "0xd09e495c4a3c2cf4ceee3739708eb2a810e1e7b3"
      ],
      "transaction": {
        "type": "0x00",
        "from": "0xde3089d40f3491de794fbb1eca109fac36f889d0",
        "to": "0xb4b2d82f6cfeefdbf90e5e633af6d63d46bd7478",
        "gas": "0x10cb4",
        "value": "0x0",
        "data": "0x4fd3f7d7000000000000000000000000000000000000000000000000000000000000000500000000000000000000000000000000000000000000000000000000000000400000000000000000000000000000000000000000000000000000000000000014d09e495c4a3c2cf4ceee3739708eb2a810e1e7b3000000000000000000000000",
        "nonce": "0x3b9"
      },
      "additionalContracts": [],
      "isFixedGasLimit": false
    },
    {
      "hash": "0x2a640e73d2eec6f6fce7c8924f1d36600cd8af0dcd618713acdb88b7568c2e4f",
      "transactionType": "CALL",
      "contractName": "FootyDAO",
      "contractAddress": "0x0Ca3549Ed2C0Fa6942D7585BE2363990812aFb18",
      "function": "setInteractorByChainId(uint256,bytes)",
      "arguments": [
        "5",
        "0x26e328bc62207d7acf801c405167bc0f4eccedea"
      ],
      "transaction": {
        "type": "0x00",
        "from": "0xde3089d40f3491de794fbb1eca109fac36f889d0",
        "to": "0x0ca3549ed2c0fa6942d7585be2363990812afb18",
        "gas": "0x10d86",
        "value": "0x0",
        "data": "0x4fd3f7d700000000000000000000000000000000000000000000000000000000000000050000000000000000000000000000000000000000000000000000000000000040000000000000000000000000000000000000000000000000000000000000001426e328bc62207d7acf801c405167bc0f4eccedea000000000000000000000000",
        "nonce": "0x3ba"
      },
      "additionalContracts": [],
      "isFixedGasLimit": false
    }
  ],
  "receipts": [
    {
      "transactionHash": "0xf9abff6c4731c4158c605af26a9daac2f43eda76b29057932b3613a01814e24f",
      "transactionIndex": "0x7",
      "blockHash": "0xc9cb37c2b9ce02a18de29327fabd8c6e34fbe7504cbda05c9ee9de446eb9dd8b",
      "blockNumber": "0x246e564",
      "from": "0xDe3089d40F3491De794fBb1ECA109fAc36F889d0",
      "to": "0xB4B2D82F6CfEeFdbf90E5E633Af6D63D46BD7478",
      "cumulativeGasUsed": "0x3a831",
      "gasUsed": "0xb7bb",
      "contractAddress": null,
      "logs": [
        {
          "address": "0x0000000000000000000000000000000000001010",
          "topics": [
            "0x4dfe1bbbcf077ddc3e01291eea2d5c70c2b422b415d95645b9adcfd678cb1d63",
            "0x0000000000000000000000000000000000000000000000000000000000001010",
            "0x000000000000000000000000de3089d40f3491de794fbb1eca109fac36f889d0",
            "0x000000000000000000000000f903ba9e006193c1527bfbe65fe2123704ea3f99"
          ],
          "data": "0x0000000000000000000000000000000000000000000000000000402ac8b355000000000000000000000000000000000000000000000000001bfcfc13cda35b100000000000000000000000000000000000000000000010028beac38d4a6d32510000000000000000000000000000000000000000000000001bfcbbe904f006100000000000000000000000000000000000000000000010028beb03b813208751",
          "blockHash": "0xc9cb37c2b9ce02a18de29327fabd8c6e34fbe7504cbda05c9ee9de446eb9dd8b",
          "blockNumber": "0x246e564",
          "transactionHash": "0xf9abff6c4731c4158c605af26a9daac2f43eda76b29057932b3613a01814e24f",
          "transactionIndex": "0x7",
          "logIndex": "0xc",
          "removed": false
        }
      ],
      "status": "0x1",
      "logsBloom": "0x00000000000000000000000000000000000000000000000000000010000000000000000000000020000000000000000000008000100000000000000000000040000000000000000000000000000000800000000000000000000100000000000000000000000000000000000000000000000000000000000080000000000000000000000000000000000000000000000000000000001000000000000000000000200000000000000000000000000000000000000000000000000000000000004000000000000000000001000000000000000000000000000000100000001000000000000000000000000000000000000000000000000000000000000000100000",
      "effectiveGasPrice": "0x59682f10"
    },
    {
      "transactionHash": "0x2a640e73d2eec6f6fce7c8924f1d36600cd8af0dcd618713acdb88b7568c2e4f",
      "transactionIndex": "0x8",
      "blockHash": "0xc9cb37c2b9ce02a18de29327fabd8c6e34fbe7504cbda05c9ee9de446eb9dd8b",
      "blockNumber": "0x246e564",
      "from": "0xDe3089d40F3491De794fBb1ECA109fAc36F889d0",
      "to": "0x0Ca3549Ed2C0Fa6942D7585BE2363990812aFb18",
      "cumulativeGasUsed": "0x4607c",
      "gasUsed": "0xb84b",
      "contractAddress": null,
      "logs": [
        {
          "address": "0x0000000000000000000000000000000000001010",
          "topics": [
            "0x4dfe1bbbcf077ddc3e01291eea2d5c70c2b422b415d95645b9adcfd678cb1d63",
            "0x0000000000000000000000000000000000000000000000000000000000001010",
            "0x000000000000000000000000de3089d40f3491de794fbb1eca109fac36f889d0",
            "0x000000000000000000000000f903ba9e006193c1527bfbe65fe2123704ea3f99"
          ],
          "data": "0x0000000000000000000000000000000000000000000000000000405d134dc5000000000000000000000000000000000000000000000000001bfcbbe904e48a600000000000000000000000000000000000000000000010028beb03b8132087510000000000000000000000000000000000000000000000001bfc7b8bf196c5600000000000000000000000000000000000000000000010028beb4415266e4c51",
          "blockHash": "0xc9cb37c2b9ce02a18de29327fabd8c6e34fbe7504cbda05c9ee9de446eb9dd8b",
          "blockNumber": "0x246e564",
          "transactionHash": "0x2a640e73d2eec6f6fce7c8924f1d36600cd8af0dcd618713acdb88b7568c2e4f",
          "transactionIndex": "0x8",
          "logIndex": "0xd",
          "removed": false
        }
      ],
      "status": "0x1",
      "logsBloom": "0x00000000000000000000000000000000000000000000000000000010000000000000000000000020000000000000000000008000100000000000000000000040000000000000000000000000000000800000000000000000000100000000000000000000000000000000000000000000000000000000000080000000000000000000000000000000000000000000000000000000001000000000000000000000200000000000000000000000000000000000000000000000000000000000004000000000000000000001000000000000000000000000000000100000001000000000000000000000000000000000000000000000000000000000000000100000",
      "effectiveGasPrice": "0x59682f10"
    }
  ],
  "libraries": [],
  "pending": [],
  "returns": {},
  "timestamp": 1690038313,
  "chain": 80001,
  "multi": false,
  "commit": "11626f6"
}