{
  "transactions": [
    {
      "hash": "0x7d694c7c5a717797c5e5d0f058ea7cc2c2260c3266abec6e8f2c90740cda6bb7",
      "transactionType": "CALL",
      "contractName": "FootyDAOToken",
      "contractAddress": "0xA4122DA72d54E024D4d321F80bFa61AF413144C5",
      "function": "setInteractorByChainId(uint256,bytes)",
      "arguments": [
        "5",
        "0xe07b7b35ac82fecb64218a51e78337f4237fd11f"
      ],
      "transaction": {
        "type": "0x00",
        "from": "0xde3089d40f3491de794fbb1eca109fac36f889d0",
        "to": "0xa4122da72d54e024d4d321f80bfa61af413144c5",
        "gas": "0x10cb4",
        "value": "0x0",
        "data": "0x4fd3f7d7000000000000000000000000000000000000000000000000000000000000000500000000000000000000000000000000000000000000000000000000000000400000000000000000000000000000000000000000000000000000000000000014e07b7b35ac82fecb64218a51e78337f4237fd11f000000000000000000000000",
        "nonce": "0x390"
      },
      "additionalContracts": [],
      "isFixedGasLimit": false
    }
  ],
  "receipts": [],
  "libraries": [],
  "pending": [
    "0x7d694c7c5a717797c5e5d0f058ea7cc2c2260c3266abec6e8f2c90740cda6bb7"
  ],
  "returns": {},
  "timestamp": 1690029845,
  "chain": 80001,
  "multi": false,
  "commit": "2a7742d"
}