{
  "transactions": [
    {
      "hash": "0xd4ed533445905d11701e528fe914aef1cd8096e986d3f00483403d2441b52e81",
      "transactionType": "CALL",
      "contractName": "FootyDAOToken",
      "contractAddress": "0x23AaAC5e7BcA6fbde9Cf92f5d92e7F6218477003",
      "function": "setInteractorByChainId(uint256,bytes)",
      "arguments": [
        "5",
        "0x00000000000000000000000037495e08039a96e39787646fb67ced27565919b7"
      ],
      "transaction": {
        "type": "0x00",
        "from": "0xde3089d40f3491de794fbb1eca109fac36f889d0",
        "to": "0x23aaac5e7bca6fbde9cf92f5d92e7f6218477003",
        "gas": "0x175c6",
        "value": "0x0",
        "data": "0x4fd3f7d700000000000000000000000000000000000000000000000000000000000000050000000000000000000000000000000000000000000000000000000000000040000000000000000000000000000000000000000000000000000000000000002000000000000000000000000037495e08039a96e39787646fb67ced27565919b7",
        "nonce": "0x363"
      },
      "additionalContracts": [],
      "isFixedGasLimit": false
    }
  ],
  "receipts": [
    {
      "transactionHash": "0xd4ed533445905d11701e528fe914aef1cd8096e986d3f00483403d2441b52e81",
      "transactionIndex": "0x4",
      "blockHash": "0x1ffe34cfe4f6f58a20bed836f67187cbbfc1aeb908504fa065447d3804770825",
      "blockNumber": "0x246c59e",
      "from": "0xDe3089d40F3491De794fBb1ECA109fAc36F889d0",
      "to": "0x23AaAC5e7BcA6fbde9Cf92f5d92e7F6218477003",
      "cumulativeGasUsed": "0x200702",
      "gasUsed": "0x10e9c",
      "contractAddress": null,
      "logs": [
        {
          "address": "0x0000000000000000000000000000000000001010",
          "topics": [
            "0x4dfe1bbbcf077ddc3e01291eea2d5c70c2b422b415d95645b9adcfd678cb1d63",
            "0x0000000000000000000000000000000000000000000000000000000000001010",
            "0x000000000000000000000000de3089d40f3491de794fbb1eca109fac36f889d0",
            "0x000000000000000000000000cfef2a3dc244ef7d0fb93c45e762d671445c4569"
          ],
          "data": "0x00000000000000000000000000000000000000000000000000005e825d0d9564000000000000000000000000000000000000000000000000513a9d1c52a45bd300000000000000000000000000000000000000000000004577dc37319cf8e10f000000000000000000000000000000000000000000000000513a3e99f596c66f00000000000000000000000000000000000000000000004577dc95b3fa067673",
          "blockHash": "0x1ffe34cfe4f6f58a20bed836f67187cbbfc1aeb908504fa065447d3804770825",
          "blockNumber": "0x246c59e",
          "transactionHash": "0xd4ed533445905d11701e528fe914aef1cd8096e986d3f00483403d2441b52e81",
          "transactionIndex": "0x4",
          "logIndex": "0x3b",
          "removed": false
        }
      ],
      "status": "0x1",
      "logsBloom": "0x00000000010000000000000000000000000000000000000000000000000000000000000000000000000000000000000000008000100000000000000000000040000000000000000000000000000000800000000000000000020100000000000000000000000000000000000000000000000000000000000080000000000000000000000000000000000000000000000000000000001000000000000000000000200000000000000000000000000000000000000000000000000000000000004000000000000000000001000000000000000000000000000000100000000000000000000000000000000000000000000000000000000000000000040000100000",
      "effectiveGasPrice": "0x59682f0f"
    }
  ],
  "libraries": [],
  "pending": [],
  "returns": {},
  "timestamp": 1690012947,
  "chain": 80001,
  "multi": false,
  "commit": "06221d4"
}