{
  "transactions": [
    {
      "hash": "0x9dcf3d25f8546ad9a4e9644cb4ab2a759b187027ad3ccb114aa566642cf851e4",
      "transactionType": "CALL",
      "contractName": "ZetaEth",
      "contractAddress": "0x0000c304D2934c00Db1d51995b9f6996AffD17c0",
      "function": "approve(address,uint256):(bool)",
      "arguments": [
        "0x50889eE374885277d8A888e3562f95566c751483",
        "3000000000000000000"
      ],
      "transaction": {
        "type": "0x00",
        "from": "0xde3089d40f3491de794fbb1eca109fac36f889d0",
        "to": "0x0000c304d2934c00db1d51995b9f6996affd17c0",
        "gas": "0xfd03",
        "value": "0x0",
        "data": "0x095ea7b300000000000000000000000050889ee374885277d8a888e3562f95566c75148300000000000000000000000000000000000000000000000029a2241af62c0000",
        "nonce": "0x9f"
      },
      "additionalContracts": [],
      "isFixedGasLimit": false
    },
    {
      "hash": "0x618bd9be722e1fbc7c33f6ae7ad7a07ddc22ea949bcf7002a24b15ca059dc74c",
      "transactionType": "CALL",
      "contractName": null,
      "contractAddress": "0x50889eE374885277d8A888e3562f95566c751483",
      "function": null,
      "arguments": null,
      "transaction": {
        "type": "0x00",
        "from": "0xde3089d40f3491de794fbb1eca109fac36f889d0",
        "to": "0x50889ee374885277d8a888e3562f95566c751483",
        "gas": "0x21fce",
        "value": "0x0",
        "data": "0x567813886052b36a9ae406dbd854bfd9f22c42dac9b6374b9d3a9c0d817a3793de02cd470000000000000000000000000000000000000000000000000000000000000001",
        "nonce": "0xa0"
      },
      "additionalContracts": [],
      "isFixedGasLimit": false
    }
  ],
  "receipts": [
    {
      "transactionHash": "0x9dcf3d25f8546ad9a4e9644cb4ab2a759b187027ad3ccb114aa566642cf851e4",
      "transactionIndex": "0x20",
      "blockHash": "0x002a7e998868c99f887d0fcfd813a362e7e88f992a8338543732f6cfc5aa4edf",
      "blockNumber": "0x8f432d",
      "from": "0xDe3089d40F3491De794fBb1ECA109fAc36F889d0",
      "to": "0x0000c304D2934c00Db1d51995b9f6996AffD17c0",
      "cumulativeGasUsed": "0x8fcb3f",
      "gasUsed": "0xb72e",
      "contractAddress": null,
      "logs": [
        {
          "address": "0x0000c304D2934c00Db1d51995b9f6996AffD17c0",
          "topics": [
            "0x8c5be1e5ebec7d5bd14f71427d1e84f3dd0314c0f7b2291e5b200ac8c7c3b925",
            "0x000000000000000000000000de3089d40f3491de794fbb1eca109fac36f889d0",
            "0x00000000000000000000000050889ee374885277d8a888e3562f95566c751483"
          ],
          "data": "0x00000000000000000000000000000000000000000000000029a2241af62c0000",
          "blockHash": "0x002a7e998868c99f887d0fcfd813a362e7e88f992a8338543732f6cfc5aa4edf",
          "blockNumber": "0x8f432d",
          "transactionHash": "0x9dcf3d25f8546ad9a4e9644cb4ab2a759b187027ad3ccb114aa566642cf851e4",
          "transactionIndex": "0x20",
          "logIndex": "0x5e",
          "removed": false
        }
      ],
      "status": "0x1",
      "logsBloom": "0x10000000000000000000000000000000000000000000000000000000000000000000000000000000000000000000000000000000100000000000000000200040000000010000000000000000000000000000000000000000000000000000000000000000000000000000000000000000000000000000000000000000000000000000000000000000000000000000000000000000001000000200000000000000020000000000000000000000000000000000000000000000000000000000000000000000000000008000000000000010000000000000000000000000000000000010000000000000000000000000040000000000000000000000000000000000",
      "type": "0x0",
      "effectiveGasPrice": "0x5ff29db4"
    },
    {
      "transactionHash": "0x618bd9be722e1fbc7c33f6ae7ad7a07ddc22ea949bcf7002a24b15ca059dc74c",
      "transactionIndex": "0x21",
      "blockHash": "0x002a7e998868c99f887d0fcfd813a362e7e88f992a8338543732f6cfc5aa4edf",
      "blockNumber": "0x8f432d",
      "from": "0xDe3089d40F3491De794fBb1ECA109fAc36F889d0",
      "to": "0x50889eE374885277d8A888e3562f95566c751483",
      "cumulativeGasUsed": "0x9154f4",
      "gasUsed": "0x189b5",
      "contractAddress": null,
      "logs": [
        {
          "address": "0x0000c304D2934c00Db1d51995b9f6996AffD17c0",
          "topics": [
            "0x8c5be1e5ebec7d5bd14f71427d1e84f3dd0314c0f7b2291e5b200ac8c7c3b925",
            "0x000000000000000000000000de3089d40f3491de794fbb1eca109fac36f889d0",
            "0x00000000000000000000000050889ee374885277d8a888e3562f95566c751483"
          ],
          "data": "0x0000000000000000000000000000000000000000000000000000000000000000",
          "blockHash": "0x002a7e998868c99f887d0fcfd813a362e7e88f992a8338543732f6cfc5aa4edf",
          "blockNumber": "0x8f432d",
          "transactionHash": "0x618bd9be722e1fbc7c33f6ae7ad7a07ddc22ea949bcf7002a24b15ca059dc74c",
          "transactionIndex": "0x21",
          "logIndex": "0x5f",
          "removed": false
        },
        {
          "address": "0x0000c304D2934c00Db1d51995b9f6996AffD17c0",
          "topics": [
            "0xddf252ad1be2c89b69c2b068fc378daa952ba7f163c4a11628f55a4df523b3ef",
            "0x000000000000000000000000de3089d40f3491de794fbb1eca109fac36f889d0",
            "0x00000000000000000000000050889ee374885277d8a888e3562f95566c751483"
          ],
          "data": "0x00000000000000000000000000000000000000000000000029a2241af62c0000",
          "blockHash": "0x002a7e998868c99f887d0fcfd813a362e7e88f992a8338543732f6cfc5aa4edf",
          "blockNumber": "0x8f432d",
          "transactionHash": "0x618bd9be722e1fbc7c33f6ae7ad7a07ddc22ea949bcf7002a24b15ca059dc74c",
          "transactionIndex": "0x21",
          "logIndex": "0x60",
          "removed": false
        },
        {
          "address": "0x0000c304D2934c00Db1d51995b9f6996AffD17c0",
          "topics": [
            "0x8c5be1e5ebec7d5bd14f71427d1e84f3dd0314c0f7b2291e5b200ac8c7c3b925",
            "0x00000000000000000000000050889ee374885277d8a888e3562f95566c751483",
            "0x00000000000000000000000000005e3125aba53c5652f9f0ce1a4cf91d8b15ea"
          ],
          "data": "0x00000000000000000000000000000000000000000000000029a2241af62c0000",
          "blockHash": "0x002a7e998868c99f887d0fcfd813a362e7e88f992a8338543732f6cfc5aa4edf",
          "blockNumber": "0x8f432d",
          "transactionHash": "0x618bd9be722e1fbc7c33f6ae7ad7a07ddc22ea949bcf7002a24b15ca059dc74c",
          "transactionIndex": "0x21",
          "logIndex": "0x61",
          "removed": false
        },
        {
          "address": "0x0000c304D2934c00Db1d51995b9f6996AffD17c0",
          "topics": [
            "0x8c5be1e5ebec7d5bd14f71427d1e84f3dd0314c0f7b2291e5b200ac8c7c3b925",
            "0x00000000000000000000000050889ee374885277d8a888e3562f95566c751483",
            "0x00000000000000000000000000005e3125aba53c5652f9f0ce1a4cf91d8b15ea"
          ],
          "data": "0x0000000000000000000000000000000000000000000000000000000000000000",
          "blockHash": "0x002a7e998868c99f887d0fcfd813a362e7e88f992a8338543732f6cfc5aa4edf",
          "blockNumber": "0x8f432d",
          "transactionHash": "0x618bd9be722e1fbc7c33f6ae7ad7a07ddc22ea949bcf7002a24b15ca059dc74c",
          "transactionIndex": "0x21",
          "logIndex": "0x62",
          "removed": false
        },
        {
          "address": "0x0000c304D2934c00Db1d51995b9f6996AffD17c0",
          "topics": [
            "0xddf252ad1be2c89b69c2b068fc378daa952ba7f163c4a11628f55a4df523b3ef",
            "0x00000000000000000000000050889ee374885277d8a888e3562f95566c751483",
            "0x00000000000000000000000000005e3125aba53c5652f9f0ce1a4cf91d8b15ea"
          ],
          "data": "0x00000000000000000000000000000000000000000000000029a2241af62c0000",
          "blockHash": "0x002a7e998868c99f887d0fcfd813a362e7e88f992a8338543732f6cfc5aa4edf",
          "blockNumber": "0x8f432d",
          "transactionHash": "0x618bd9be722e1fbc7c33f6ae7ad7a07ddc22ea949bcf7002a24b15ca059dc74c",
          "transactionIndex": "0x21",
          "logIndex": "0x63",
          "removed": false
        },
        {
          "address": "0x00005E3125aBA53C5652f9F0CE1a4Cf91D8B15eA",
          "topics": [
            "0x7ec1c94701e09b1652f3e1d307e60c4b9ebf99aff8c2079fd1d8c585e031c4e4",
            "0x00000000000000000000000050889ee374885277d8a888e3562f95566c751483",
            "0x0000000000000000000000000000000000000000000000000000000000013881"
          ],
          "data": "0x000000000000000000000000de3089d40f3491de794fbb1eca109fac36f889d000000000000000000000000000000000000000000000000000000000000000c000000000000000000000000000000000000000000000000029a2241af62c000000000000000000000000000000000000000000000000000029a2241af62c0000000000000000000000000000000000000000000000000000000000000000010000000000000000000000000000000000000000000000000000000000000001e00000000000000000000000000000000000000000000000000000000000000020000000000000000000000000872487058cd5b585550b60c49396f7cf1e1d0c5900000000000000000000000000000000000000000000000000000000000000c0c8e4cff35edc43bbdb181c6949bedcf4a8069932153ed4ab09e7939264c13e2d000000000000000000000000de3089d40f3491de794fbb1eca109fac36f889d0000000000000000000000000000000000000000000000000000000000000006000000000000000000000000000000000000000000000000000000000000000406052b36a9ae406dbd854bfd9f22c42dac9b6374b9d3a9c0d817a3793de02cd470000000000000000000000000000000000000000000000000000000000000001000000000000000000000000000000000000000000000000000000000000004000000000000000000000000000000000000000000000000000000000000000200000000000000000000000000000000000000000000000000000000000000000",
          "blockHash": "0x002a7e998868c99f887d0fcfd813a362e7e88f992a8338543732f6cfc5aa4edf",
          "blockNumber": "0x8f432d",
          "transactionHash": "0x618bd9be722e1fbc7c33f6ae7ad7a07ddc22ea949bcf7002a24b15ca059dc74c",
          "transactionIndex": "0x21",
          "logIndex": "0x64",
          "removed": false
        }
      ],
      "status": "0x1",
      "logsBloom": "0x10000000000000000000000000000000000800000000000000000000000000000000000000000000000000000000000000000000100000000000000000200040000000010000008000000008000000000000800000000000000000000080000000001000002000000000000000000000000040000000000000840010000000000000000000000000000000000000000200000000001000000200000000000000020000000000000000000000000000000000000000000000002000000000000000000002000000008000000000000010000000000100000000000000000000000010000000000000000000000000040000000000000000000000000000000000",
      "type": "0x0",
      "effectiveGasPrice": "0x5ff29db4"
    }
  ],
  "libraries": [],
  "pending": [],
  "returns": {},
  "timestamp": 1690037137,
  "chain": 5,
  "multi": false,
  "commit": "11626f6"
}