{
  "transactions": [
    {
      "hash": "0x112bb17d6d0ca683b521924df1515fe78c0d5e3802c7261055470f92178298e7",
      "transactionType": "CALL",
      "contractName": "ZetaEth",
      "contractAddress": "0x0000c304D2934c00Db1d51995b9f6996AffD17c0",
      "function": "approve(address,uint256):(bool)",
      "arguments": [
        "0xbE1bA58AAf83B7db6D6320B8C87B4DDd991cD8c6",
        "3000000000000000000"
      ],
      "transaction": {
        "type": "0x00",
        "from": "0xde3089d40f3491de794fbb1eca109fac36f889d0",
        "to": "0x0000c304d2934c00db1d51995b9f6996affd17c0",
        "gas": "0xfd03",
        "value": "0x0",
        "data": "0x095ea7b3000000000000000000000000be1ba58aaf83b7db6d6320b8c87b4ddd991cd8c600000000000000000000000000000000000000000000000029a2241af62c0000",
        "nonce": "0x8b"
      },
      "additionalContracts": [],
      "isFixedGasLimit": false
    },
    {
      "hash": "0xf9804cd24e75459d446c7e5225613b504db1b958294bed07c048fe3c16833a81",
      "transactionType": "CALL",
      "contractName": "FootyDAOTokenAdapter",
      "contractAddress": "0xbE1bA58AAf83B7db6D6320B8C87B4DDd991cD8c6",
      "function": "delegate(address)",
      "arguments": [
        "0xDe3089d40F3491De794fBb1ECA109fAc36F889d0"
      ],
      "transaction": {
        "type": "0x00",
        "from": "0xde3089d40f3491de794fbb1eca109fac36f889d0",
        "to": "0xbe1ba58aaf83b7db6d6320b8c87b4ddd991cd8c6",
        "gas": "0x21b68",
        "value": "0x0",
        "data": "0x5c19a95c000000000000000000000000de3089d40f3491de794fbb1eca109fac36f889d0",
        "nonce": "0x8c"
      },
      "additionalContracts": [],
      "isFixedGasLimit": false
    }
  ],
  "receipts": [],
  "libraries": [],
  "pending": [
    "0x112bb17d6d0ca683b521924df1515fe78c0d5e3802c7261055470f92178298e7",
    "0xf9804cd24e75459d446c7e5225613b504db1b958294bed07c048fe3c16833a81"
  ],
  "returns": {},
  "timestamp": 1690031052,
  "chain": 5,
  "multi": false,
  "commit": "2a7742d"
}