{
  "transactions": [
    {
      "hash": "0x441e549837138a14b9d435611f45b6d25fabbcdda386ef1f2ee18fbc169698d8",
      "transactionType": "CALL",
      "contractName": "ZetaEth",
      "contractAddress": "0x0000c304D2934c00Db1d51995b9f6996AffD17c0",
      "function": "approve(address,uint256):(bool)",
      "arguments": [
        "0x37495E08039a96E39787646fb67CED27565919B7",
        "3000000000000000000"
      ],
      "transaction": {
        "type": "0x00",
        "from": "0xde3089d40f3491de794fbb1eca109fac36f889d0",
        "to": "0x0000c304d2934c00db1d51995b9f6996affd17c0",
        "gas": "0xfd03",
        "value": "0x0",
        "data": "0x095ea7b300000000000000000000000037495e08039a96e39787646fb67ced27565919b700000000000000000000000000000000000000000000000029a2241af62c0000",
        "nonce": "0x53"
      },
      "additionalContracts": [],
      "isFixedGasLimit": false
    },
    {
      "hash": "0xd09ffccdb8de70ac5a90ad30b63fff1f79c08066c2ef0ff7de2a62cb6710849b",
      "transactionType": "CALL",
      "contractName": "FootyDAOTokenAdapter",
      "contractAddress": "0x37495E08039a96E39787646fb67CED27565919B7",
      "function": "delegate(address)",
      "arguments": [
        "0xDe3089d40F3491De794fBb1ECA109fAc36F889d0"
      ],
      "transaction": {
        "type": "0x00",
        "from": "0xde3089d40f3491de794fbb1eca109fac36f889d0",
        "to": "0x37495e08039a96e39787646fb67ced27565919b7",
        "gas": "0x22547",
        "value": "0x0",
        "data": "0x5c19a95c000000000000000000000000de3089d40f3491de794fbb1eca109fac36f889d0",
        "nonce": "0x54"
      },
      "additionalContracts": [],
      "isFixedGasLimit": false
    }
  ],
  "receipts": [
    {
      "transactionHash": "0x441e549837138a14b9d435611f45b6d25fabbcdda386ef1f2ee18fbc169698d8",
      "transactionIndex": "0x21",
      "blockHash": "0x6c5a46a4c60eaaed8cf5358f875e58619ff4c2dc4fdcf113b02928c2aeda271c",
      "blockNumber": "0x8f3ce5",
      "from": "0xDe3089d40F3491De794fBb1ECA109fAc36F889d0",
      "to": "0x0000c304D2934c00Db1d51995b9f6996AffD17c0",
      "cumulativeGasUsed": "0xf538e2",
      "gasUsed": "0xb72e",
      "contractAddress": null,
      "logs": [
        {
          "address": "0x0000c304D2934c00Db1d51995b9f6996AffD17c0",
          "topics": [
            "0x8c5be1e5ebec7d5bd14f71427d1e84f3dd0314c0f7b2291e5b200ac8c7c3b925",
            "0x000000000000000000000000de3089d40f3491de794fbb1eca109fac36f889d0",
            "0x00000000000000000000000037495e08039a96e39787646fb67ced27565919b7"
          ],
          "data": "0x00000000000000000000000000000000000000000000000029a2241af62c0000",
          "blockHash": "0x6c5a46a4c60eaaed8cf5358f875e58619ff4c2dc4fdcf113b02928c2aeda271c",
          "blockNumber": "0x8f3ce5",
          "transactionHash": "0x441e549837138a14b9d435611f45b6d25fabbcdda386ef1f2ee18fbc169698d8",
          "transactionIndex": "0x21",
          "logIndex": "0xc0a",
          "removed": false
        }
      ],
      "status": "0x1",
      "logsBloom": "0x10000000000000000000000000000000000000000000000000000000000000000000000000000000000000000000000000000000100000000000000000200040000000000000000000000000000000000000000000000000000000000000000100000000000000000000000000000000000000000000000000000000000000000000002000000000000000040000000000000000001000000000000000000000020000000000000000000000000000000000000000000000000000000000000000000000000000000000000000000010000000000000000000000000000000000010000000000000000000000000040000000000000000000000000000000000",
      "type": "0x0",
      "effectiveGasPrice": "0x60d11337"
    },
    {
      "transactionHash": "0xd09ffccdb8de70ac5a90ad30b63fff1f79c08066c2ef0ff7de2a62cb6710849b",
      "transactionIndex": "0x22",
      "blockHash": "0x6c5a46a4c60eaaed8cf5358f875e58619ff4c2dc4fdcf113b02928c2aeda271c",
      "blockNumber": "0x8f3ce5",
      "from": "0xDe3089d40F3491De794fBb1ECA109fAc36F889d0",
      "to": "0x37495E08039a96E39787646fb67CED27565919B7",
      "cumulativeGasUsed": "0xf6c68e",
      "gasUsed": "0x18dac",
      "contractAddress": null,
      "logs": [
        {
          "address": "0x0000c304D2934c00Db1d51995b9f6996AffD17c0",
          "topics": [
            "0x8c5be1e5ebec7d5bd14f71427d1e84f3dd0314c0f7b2291e5b200ac8c7c3b925",
            "0x000000000000000000000000de3089d40f3491de794fbb1eca109fac36f889d0",
            "0x00000000000000000000000037495e08039a96e39787646fb67ced27565919b7"
          ],
          "data": "0x0000000000000000000000000000000000000000000000000000000000000000",
          "blockHash": "0x6c5a46a4c60eaaed8cf5358f875e58619ff4c2dc4fdcf113b02928c2aeda271c",
          "blockNumber": "0x8f3ce5",
          "transactionHash": "0xd09ffccdb8de70ac5a90ad30b63fff1f79c08066c2ef0ff7de2a62cb6710849b",
          "transactionIndex": "0x22",
          "logIndex": "0xc0b",
          "removed": false
        },
        {
          "address": "0x0000c304D2934c00Db1d51995b9f6996AffD17c0",
          "topics": [
            "0xddf252ad1be2c89b69c2b068fc378daa952ba7f163c4a11628f55a4df523b3ef",
            "0x000000000000000000000000de3089d40f3491de794fbb1eca109fac36f889d0",
            "0x00000000000000000000000037495e08039a96e39787646fb67ced27565919b7"
          ],
          "data": "0x00000000000000000000000000000000000000000000000029a2241af62c0000",
          "blockHash": "0x6c5a46a4c60eaaed8cf5358f875e58619ff4c2dc4fdcf113b02928c2aeda271c",
          "blockNumber": "0x8f3ce5",
          "transactionHash": "0xd09ffccdb8de70ac5a90ad30b63fff1f79c08066c2ef0ff7de2a62cb6710849b",
          "transactionIndex": "0x22",
          "logIndex": "0xc0c",
          "removed": false
        },
        {
          "address": "0x0000c304D2934c00Db1d51995b9f6996AffD17c0",
          "topics": [
            "0x8c5be1e5ebec7d5bd14f71427d1e84f3dd0314c0f7b2291e5b200ac8c7c3b925",
            "0x00000000000000000000000037495e08039a96e39787646fb67ced27565919b7",
            "0x00000000000000000000000000005e3125aba53c5652f9f0ce1a4cf91d8b15ea"
          ],
          "data": "0x00000000000000000000000000000000000000000000000029a2241af62c0000",
          "blockHash": "0x6c5a46a4c60eaaed8cf5358f875e58619ff4c2dc4fdcf113b02928c2aeda271c",
          "blockNumber": "0x8f3ce5",
          "transactionHash": "0xd09ffccdb8de70ac5a90ad30b63fff1f79c08066c2ef0ff7de2a62cb6710849b",
          "transactionIndex": "0x22",
          "logIndex": "0xc0d",
          "removed": false
        },
        {
          "address": "0x0000c304D2934c00Db1d51995b9f6996AffD17c0",
          "topics": [
            "0x8c5be1e5ebec7d5bd14f71427d1e84f3dd0314c0f7b2291e5b200ac8c7c3b925",
            "0x00000000000000000000000037495e08039a96e39787646fb67ced27565919b7",
            "0x00000000000000000000000000005e3125aba53c5652f9f0ce1a4cf91d8b15ea"
          ],
          "data": "0x0000000000000000000000000000000000000000000000000000000000000000",
          "blockHash": "0x6c5a46a4c60eaaed8cf5358f875e58619ff4c2dc4fdcf113b02928c2aeda271c",
          "blockNumber": "0x8f3ce5",
          "transactionHash": "0xd09ffccdb8de70ac5a90ad30b63fff1f79c08066c2ef0ff7de2a62cb6710849b",
          "transactionIndex": "0x22",
          "logIndex": "0xc0e",
          "removed": false
        },
        {
          "address": "0x0000c304D2934c00Db1d51995b9f6996AffD17c0",
          "topics": [
            "0xddf252ad1be2c89b69c2b068fc378daa952ba7f163c4a11628f55a4df523b3ef",
            "0x00000000000000000000000037495e08039a96e39787646fb67ced27565919b7",
            "0x00000000000000000000000000005e3125aba53c5652f9f0ce1a4cf91d8b15ea"
          ],
          "data": "0x00000000000000000000000000000000000000000000000029a2241af62c0000",
          "blockHash": "0x6c5a46a4c60eaaed8cf5358f875e58619ff4c2dc4fdcf113b02928c2aeda271c",
          "blockNumber": "0x8f3ce5",
          "transactionHash": "0xd09ffccdb8de70ac5a90ad30b63fff1f79c08066c2ef0ff7de2a62cb6710849b",
          "transactionIndex": "0x22",
          "logIndex": "0xc0f",
          "removed": false
        },
        {
          "address": "0x00005E3125aBA53C5652f9F0CE1a4Cf91D8B15eA",
          "topics": [
            "0x7ec1c94701e09b1652f3e1d307e60c4b9ebf99aff8c2079fd1d8c585e031c4e4",
            "0x00000000000000000000000037495e08039a96e39787646fb67ced27565919b7",
            "0x0000000000000000000000000000000000000000000000000000000000013881"
          ],
          "data": "0x000000000000000000000000de3089d40f3491de794fbb1eca109fac36f889d000000000000000000000000000000000000000000000000000000000000000c000000000000000000000000000000000000000000000000029a2241af62c000000000000000000000000000000000000000000000000000000000000000249f0000000000000000000000000000000000000000000000000000000000000010000000000000000000000000000000000000000000000000000000000000001c0000000000000000000000000000000000000000000000000000000000000002000000000000000000000000023aaac5e7bca6fbde9cf92f5d92e7f621847700300000000000000000000000000000000000000000000000000000000000000a0cb30b7a91bfafdecc5aabe95f3f005b0c706843fcfa340dcecee64fb1056bf54000000000000000000000000de3089d40f3491de794fbb1eca109fac36f889d000000000000000000000000000000000000000000000000000000000000000600000000000000000000000000000000000000000000000000000000000000020000000000000000000000000de3089d40f3491de794fbb1eca109fac36f889d0000000000000000000000000000000000000000000000000000000000000004000000000000000000000000000000000000000000000000000000000000000200000000000000000000000000000000000000000000000000000000000000000",
          "blockHash": "0x6c5a46a4c60eaaed8cf5358f875e58619ff4c2dc4fdcf113b02928c2aeda271c",
          "blockNumber": "0x8f3ce5",
          "transactionHash": "0xd09ffccdb8de70ac5a90ad30b63fff1f79c08066c2ef0ff7de2a62cb6710849b",
          "transactionIndex": "0x22",
          "logIndex": "0xc10",
          "removed": false
        }
      ],
      "status": "0x1",
      "logsBloom": "0x10000000000000000000000000000000000800000000000000000000000000000000000000000000000000000000000000000000100000000000000000200040000000000000008000000008000000000000800000000000000000000080000100001000002000000000000000000000000040000000000000840010000000000000002000000000000000040000000200000000001000000000000000000000020000000000000000000000000000000000000000000000002000000000000000000002000000000000000000000010000000000100000000000000000000000010000000000000000000000000040000000000000000000000000000000000",
      "type": "0x0",
      "effectiveGasPrice": "0x60d11337"
    }
  ],
  "libraries": [],
  "pending": [],
  "returns": {},
  "timestamp": 1690013270,
  "chain": 5,
  "multi": false,
  "commit": "06221d4"
}