{
  "transactions": [
    {
      "hash": "0x8f7e4a4c45e2dd29df158d7f0d78024f352f093163132d76bb991841e0bc8a76",
      "transactionType": "CALL",
      "contractName": "ZetaEth",
      "contractAddress": "0x0000c304D2934c00Db1d51995b9f6996AffD17c0",
      "function": "approve(address,uint256):(bool)",
      "arguments": [
        "0x15a16c761DAc6880cbC25Fdc4fd4e8773C357727",
        "3000000000000000000"
      ],
      "transaction": {
        "type": "0x00",
        "from": "0xde3089d40f3491de794fbb1eca109fac36f889d0",
        "to": "0x0000c304d2934c00db1d51995b9f6996affd17c0",
        "gas": "0xfd03",
        "value": "0x0",
        "data": "0x095ea7b300000000000000000000000015a16c761dac6880cbc25fdc4fd4e8773c35772700000000000000000000000000000000000000000000000029a2241af62c0000",
        "nonce": "0xaf"
      },
      "additionalContracts": [],
      "isFixedGasLimit": false
    },
    {
      "hash": "0xf6919f11c2aaed13d3182bddf728787fb59b2afb54c3d32ca056ffc2bd9927cf",
      "transactionType": "CALL",
      "contractName": "FootyDAOGovernorAdapter",
      "contractAddress": "0x15a16c761DAc6880cbC25Fdc4fd4e8773C357727",
      "function": "castVote(uint256,uint8)",
      "arguments": [
        "46924481043954868958654816578658960834202581031569993339399701011822287562369",
        "1"
      ],
      "transaction": {
        "type": "0x00",
        "from": "0xde3089d40f3491de794fbb1eca109fac36f889d0",
        "to": "0x15a16c761dac6880cbc25fdc4fd4e8773c357727",
        "gas": "0x21e92",
        "value": "0x0",
        "data": "0x5678138867be50a90f7eb492fa11c9267917daa4b52fa39828c7f02a9142475e6688a6810000000000000000000000000000000000000000000000000000000000000001",
        "nonce": "0xb0"
      },
      "additionalContracts": [],
      "isFixedGasLimit": false
    }
  ],
  "receipts": [
    {
      "transactionHash": "0x8f7e4a4c45e2dd29df158d7f0d78024f352f093163132d76bb991841e0bc8a76",
      "transactionIndex": "0x20",
      "blockHash": "0xf9647ad9280a0265073fb7bdbdb3e155efdd7ad6f785391751feccc6597989ab",
      "blockNumber": "0x8f43dc",
      "from": "0xDe3089d40F3491De794fBb1ECA109fAc36F889d0",
      "to": "0x0000c304D2934c00Db1d51995b9f6996AffD17c0",
      "cumulativeGasUsed": "0xbd2c71",
      "gasUsed": "0xb72e",
      "contractAddress": null,
      "logs": [
        {
          "address": "0x0000c304D2934c00Db1d51995b9f6996AffD17c0",
          "topics": [
            "0x8c5be1e5ebec7d5bd14f71427d1e84f3dd0314c0f7b2291e5b200ac8c7c3b925",
            "0x000000000000000000000000de3089d40f3491de794fbb1eca109fac36f889d0",
            "0x00000000000000000000000015a16c761dac6880cbc25fdc4fd4e8773c357727"
          ],
          "data": "0x00000000000000000000000000000000000000000000000029a2241af62c0000",
          "blockHash": "0xf9647ad9280a0265073fb7bdbdb3e155efdd7ad6f785391751feccc6597989ab",
          "blockNumber": "0x8f43dc",
          "transactionHash": "0x8f7e4a4c45e2dd29df158d7f0d78024f352f093163132d76bb991841e0bc8a76",
          "transactionIndex": "0x20",
          "logIndex": "0xbf8",
          "removed": false
        }
      ],
      "status": "0x1",
      "logsBloom": "0x10000000000000000000000000000000000000000000000000000000000000000000000000000000000000000000000000000000100000000000000000200040000000000000000000000000000000000000000000000000000000000000080000000000000000000000000000000000000000080000000000000000000000000000000000000000000000000000000000000000001000008000000000000000020000000000000000000000000000000000000000000000000000000000000000000000000000000000000000000010000000000000000000000000000000000010000000000000000000000000040000000000000000000000000000000000",
      "type": "0x0",
      "effectiveGasPrice": "0x63debcd7"
    },
    {
      "transactionHash": "0xf6919f11c2aaed13d3182bddf728787fb59b2afb54c3d32ca056ffc2bd9927cf",
      "transactionIndex": "0x21",
      "blockHash": "0xf9647ad9280a0265073fb7bdbdb3e155efdd7ad6f785391751feccc6597989ab",
      "blockNumber": "0x8f43dc",
      "from": "0xDe3089d40F3491De794fBb1ECA109fAc36F889d0",
      "to": "0x15a16c761DAc6880cbC25Fdc4fd4e8773C357727",
      "cumulativeGasUsed": "0xbeb541",
      "gasUsed": "0x188d0",
      "contractAddress": null,
      "logs": [
        {
          "address": "0x0000c304D2934c00Db1d51995b9f6996AffD17c0",
          "topics": [
            "0x8c5be1e5ebec7d5bd14f71427d1e84f3dd0314c0f7b2291e5b200ac8c7c3b925",
            "0x000000000000000000000000de3089d40f3491de794fbb1eca109fac36f889d0",
            "0x00000000000000000000000015a16c761dac6880cbc25fdc4fd4e8773c357727"
          ],
          "data": "0x0000000000000000000000000000000000000000000000000000000000000000",
          "blockHash": "0xf9647ad9280a0265073fb7bdbdb3e155efdd7ad6f785391751feccc6597989ab",
          "blockNumber": "0x8f43dc",
          "transactionHash": "0xf6919f11c2aaed13d3182bddf728787fb59b2afb54c3d32ca056ffc2bd9927cf",
          "transactionIndex": "0x21",
          "logIndex": "0xbf9",
          "removed": false
        },
        {
          "address": "0x0000c304D2934c00Db1d51995b9f6996AffD17c0",
          "topics": [
            "0xddf252ad1be2c89b69c2b068fc378daa952ba7f163c4a11628f55a4df523b3ef",
            "0x000000000000000000000000de3089d40f3491de794fbb1eca109fac36f889d0",
            "0x00000000000000000000000015a16c761dac6880cbc25fdc4fd4e8773c357727"
          ],
          "data": "0x00000000000000000000000000000000000000000000000029a2241af62c0000",
          "blockHash": "0xf9647ad9280a0265073fb7bdbdb3e155efdd7ad6f785391751feccc6597989ab",
          "blockNumber": "0x8f43dc",
          "transactionHash": "0xf6919f11c2aaed13d3182bddf728787fb59b2afb54c3d32ca056ffc2bd9927cf",
          "transactionIndex": "0x21",
          "logIndex": "0xbfa",
          "removed": false
        },
        {
          "address": "0x0000c304D2934c00Db1d51995b9f6996AffD17c0",
          "topics": [
            "0x8c5be1e5ebec7d5bd14f71427d1e84f3dd0314c0f7b2291e5b200ac8c7c3b925",
            "0x00000000000000000000000015a16c761dac6880cbc25fdc4fd4e8773c357727",
            "0x00000000000000000000000000005e3125aba53c5652f9f0ce1a4cf91d8b15ea"
          ],
          "data": "0x00000000000000000000000000000000000000000000000029a2241af62c0000",
          "blockHash": "0xf9647ad9280a0265073fb7bdbdb3e155efdd7ad6f785391751feccc6597989ab",
          "blockNumber": "0x8f43dc",
          "transactionHash": "0xf6919f11c2aaed13d3182bddf728787fb59b2afb54c3d32ca056ffc2bd9927cf",
          "transactionIndex": "0x21",
          "logIndex": "0xbfb",
          "removed": false
        },
        {
          "address": "0x0000c304D2934c00Db1d51995b9f6996AffD17c0",
          "topics": [
            "0x8c5be1e5ebec7d5bd14f71427d1e84f3dd0314c0f7b2291e5b200ac8c7c3b925",
            "0x00000000000000000000000015a16c761dac6880cbc25fdc4fd4e8773c357727",
            "0x00000000000000000000000000005e3125aba53c5652f9f0ce1a4cf91d8b15ea"
          ],
          "data": "0x0000000000000000000000000000000000000000000000000000000000000000",
          "blockHash": "0xf9647ad9280a0265073fb7bdbdb3e155efdd7ad6f785391751feccc6597989ab",
          "blockNumber": "0x8f43dc",
          "transactionHash": "0xf6919f11c2aaed13d3182bddf728787fb59b2afb54c3d32ca056ffc2bd9927cf",
          "transactionIndex": "0x21",
          "logIndex": "0xbfc",
          "removed": false
        },
        {
          "address": "0x0000c304D2934c00Db1d51995b9f6996AffD17c0",
          "topics": [
            "0xddf252ad1be2c89b69c2b068fc378daa952ba7f163c4a11628f55a4df523b3ef",
            "0x00000000000000000000000015a16c761dac6880cbc25fdc4fd4e8773c357727",
            "0x00000000000000000000000000005e3125aba53c5652f9f0ce1a4cf91d8b15ea"
          ],
          "data": "0x00000000000000000000000000000000000000000000000029a2241af62c0000",
          "blockHash": "0xf9647ad9280a0265073fb7bdbdb3e155efdd7ad6f785391751feccc6597989ab",
          "blockNumber": "0x8f43dc",
          "transactionHash": "0xf6919f11c2aaed13d3182bddf728787fb59b2afb54c3d32ca056ffc2bd9927cf",
          "transactionIndex": "0x21",
          "logIndex": "0xbfd",
          "removed": false
        },
        {
          "address": "0x00005E3125aBA53C5652f9F0CE1a4Cf91D8B15eA",
          "topics": [
            "0x7ec1c94701e09b1652f3e1d307e60c4b9ebf99aff8c2079fd1d8c585e031c4e4",
            "0x00000000000000000000000015a16c761dac6880cbc25fdc4fd4e8773c357727",
            "0x0000000000000000000000000000000000000000000000000000000000013881"
          ],
          "data": "0x000000000000000000000000de3089d40f3491de794fbb1eca109fac36f889d000000000000000000000000000000000000000000000000000000000000000c000000000000000000000000000000000000000000000000029a2241af62c000000000000000000000000000000000000000000000000000000000000000493e0000000000000000000000000000000000000000000000000000000000000010000000000000000000000000000000000000000000000000000000000000001e00000000000000000000000000000000000000000000000000000000000000014b84bac17afc8b074dbc83c7920982e41bf11478b00000000000000000000000000000000000000000000000000000000000000000000000000000000000000c0c8e4cff35edc43bbdb181c6949bedcf4a8069932153ed4ab09e7939264c13e2d000000000000000000000000de3089d40f3491de794fbb1eca109fac36f889d00000000000000000000000000000000000000000000000000000000000000060000000000000000000000000000000000000000000000000000000000000004067be50a90f7eb492fa11c9267917daa4b52fa39828c7f02a9142475e6688a6810000000000000000000000000000000000000000000000000000000000000001000000000000000000000000000000000000000000000000000000000000004000000000000000000000000000000000000000000000000000000000000000200000000000000000000000000000000000000000000000000000000000000000",
          "blockHash": "0xf9647ad9280a0265073fb7bdbdb3e155efdd7ad6f785391751feccc6597989ab",
          "blockNumber": "0x8f43dc",
          "transactionHash": "0xf6919f11c2aaed13d3182bddf728787fb59b2afb54c3d32ca056ffc2bd9927cf",
          "transactionIndex": "0x21",
          "logIndex": "0xbfe",
          "removed": false
        }
      ],
      "status": "0x1",
      "logsBloom": "0x10000000000000000000000000000000000800000000000000000000000000000000000000000000000000000000000000000000100000000000000000200040000000000000008000000008000000000000800000000000000000000080080000001000002000000000000000000000000040080000000000840010000000000000000000000000000000000000000200000000001000008000000000000000020000000000000000000000000000000000000000000000002000000000000000000002000000000000000000000010000000000100000000000000000000000010000000000000000000000000040000000000000000000000000000000000",
      "type": "0x0",
      "effectiveGasPrice": "0x63debcd7"
    }
  ],
  "libraries": [],
  "pending": [],
  "returns": {},
  "timestamp": 1690039768,
  "chain": 5,
  "multi": false,
  "commit": "11626f6"
}