{
  "transactions": [
    {
      "hash": "0x564dd7d88414c2b7075502e86444e959e61340448974283cb07512c366486fb5",
      "transactionType": "CALL",
      "contractName": "ZetaEth",
      "contractAddress": "0x0000c304D2934c00Db1d51995b9f6996AffD17c0",
      "function": "approve(address,uint256):(bool)",
      "arguments": [
        "0x86695F03264E4676B896cdD590e013815f3493b2",
        "3000000000000000000"
      ],
      "transaction": {
        "type": "0x00",
        "from": "0xde3089d40f3491de794fbb1eca109fac36f889d0",
        "to": "0x0000c304d2934c00db1d51995b9f6996affd17c0",
        "gas": "0xfd03",
        "value": "0x0",
        "data": "0x095ea7b300000000000000000000000086695f03264e4676b896cdd590e013815f3493b200000000000000000000000000000000000000000000000029a2241af62c0000",
        "nonce": "0x71"
      },
      "additionalContracts": [],
      "isFixedGasLimit": false
    },
    {
      "hash": "0x209719219b71efc67363d6e4aad6d5b32a50abad4992e85fc3344b0a6da3e1dc",
      "transactionType": "CALL",
      "contractName": "CrossChainMessage",
      "contractAddress": "0x86695F03264E4676B896cdD590e013815f3493b2",
      "function": "sendHelloWorld(uint256)",
      "arguments": [
        "80001"
      ],
      "transaction": {
        "type": "0x00",
        "from": "0xde3089d40f3491de794fbb1eca109fac36f889d0",
        "to": "0x86695f03264e4676b896cdd590e013815f3493b2",
        "gas": "0x20427",
        "value": "0x0",
        "data": "0x2e61b1c80000000000000000000000000000000000000000000000000000000000013881",
        "nonce": "0x72"
      },
      "additionalContracts": [],
      "isFixedGasLimit": false
    }
  ],
  "receipts": [],
  "libraries": [],
  "pending": [
    "0x564dd7d88414c2b7075502e86444e959e61340448974283cb07512c366486fb5",
    "0x209719219b71efc67363d6e4aad6d5b32a50abad4992e85fc3344b0a6da3e1dc"
  ],
  "returns": {},
  "timestamp": 1690027015,
  "chain": 5,
  "multi": false,
  "commit": "2a7742d"
}