{
  "transactions": [
    {
      "hash": "0x83afaec56aad93e3b30b515765e551463d23549011f5b15e25f4cb3102e1c833",
      "transactionType": "CREATE",
      "contractName": "FootyDAOTokenAdapter",
      "contractAddress": "0xbE1bA58AAf83B7db6D6320B8C87B4DDd991cD8c6",
      "function": null,
      "arguments": [
        "0x00005E3125aBA53C5652f9F0CE1a4Cf91D8B15eA",
        "0x0000c304D2934c00Db1d51995b9f6996AffD17c0",
        "80001",
        "0x7a250d5630B4cF539739dF2C5dAcb4c659F2488D"
      ],
      "transaction": {
        "type": "0x00",
        "from": "0xde3089d40f3491de794fbb1eca109fac36f889d0",
        "gas": "0x182bae",
        "value": "0x0",
        "data": "0x6101206040526207a120600355676124fee993bc00006004553480156200002557600080fd5b50604051620015c6380380620015c683398101604081905262000048916200013a565b83838383836200005833620000af565b6001600160a01b038116620000805760405163e6c4247b60e01b815260040160405180910390fd5b466080526001600160a01b0390811660a05260e09290925291811660c0521661010052506200018e9350505050565b600180546001600160a01b0319169055620000ca81620000cd565b50565b600080546001600160a01b038381166001600160a01b0319831681178455604051919092169283917f8be0079c531659141344cd1fd0a4f28419497f9722a3daafe3b4186f6b6457e09190a35050565b80516001600160a01b03811681146200013557600080fd5b919050565b600080600080608085870312156200015157600080fd5b6200015c856200011d565b93506200016c602086016200011d565b92506040850151915062000183606086016200011d565b905092959194509250565b60805160a05160c05160e051610100516113bb6200020b60003960008181610aef0152610bf10152600081816104a4015281816106db0152610705015260008181610518015281816106090152610ba4015260008181610214015281816105da015281816106a101526109a70152600061043601526113bb6000f3fe6080604052600436106100e85760003560e01c8063715018a61161008a578063b9cf7b1811610059578063b9cf7b181461026c578063e30c397814610290578063e9298ebb146102ae578063f2fde38b146102c457600080fd5b8063715018a6146101d857806379ba5097146101ed57806383f3084f146102025780638da5cb5b1461024e57600080fd5b8063409fbf26116100c6578063409fbf26146101655780634fd3f7d7146101855780635c19a95c146101a55780635fffc385146101b857600080fd5b80632618143f146100ed5780633749c51a146101235780633ff0693c14610145575b600080fd5b3480156100f957600080fd5b5061010d610108366004610d52565b6102e4565b60405161011a9190610db1565b60405180910390f35b34801561012f57600080fd5b5061014361013e366004610dcb565b61037e565b005b34801561015157600080fd5b50610143610160366004610e06565b6103f6565b34801561017157600080fd5b50610143610180366004610d52565b600355565b34801561019157600080fd5b506101436101a0366004610e41565b610478565b6101436101b3366004610ed2565b61049f565b3480156101c457600080fd5b506101436101d3366004610d52565b600455565b3480156101e457600080fd5b50610143610898565b3480156101f957600080fd5b506101436108ac565b34801561020e57600080fd5b506102367f000000000000000000000000000000000000000000000000000000000000000081565b6040516001600160a01b03909116815260200161011a565b34801561025a57600080fd5b506000546001600160a01b0316610236565b34801561027857600080fd5b5061028260045481565b60405190815260200161011a565b34801561029c57600080fd5b506001546001600160a01b0316610236565b3480156102ba57600080fd5b5061028260035481565b3480156102d057600080fd5b506101436102df366004610ed2565b61092b565b600260205260009081526040902080546102fd90610eef565b80601f016020809104026020016040519081016040528092919081815260200182805461032990610eef565b80156103765780601f1061034b57610100808354040283529160200191610376565b820191906000526020600020905b81548152906001019060200180831161035957829003601f168201915b505050505081565b8061038761099c565b60026000826020013581526020019081526020016000206040516103ab9190610f29565b6040519081900390206103be8280610f9f565b6040516103cc929190610fed565b6040518091039020146103f257604051635a39f58560e11b815260040160405180910390fd5b5050565b806103ff61099c565b3061040d6020830183610ed2565b6001600160a01b0316146104345760405163c03e9c3f60e01b815260040160405180910390fd5b7f00000000000000000000000000000000000000000000000000000000000000008160200135146103f25760405163c03e9c3f60e01b815260040160405180910390fd5b6104806109e7565b6000838152600260205260409020610499828483611062565b50505050565b6104c87f0000000000000000000000000000000000000000000000000000000000000000610a41565b6104e55760405163090eaaa760e41b815260040160405180910390fd5b60045460003415610506576104f934610a7f565b6105039082611139565b90505b818110156105c3576001600160a01b037f0000000000000000000000000000000000000000000000000000000000000000166323b872dd3330610549858761114c565b6040516001600160e01b031960e086901b1681526001600160a01b03938416600482015292909116602483015260448201526064016020604051808303816000875af115801561059d573d6000803e3d6000fd5b505050506040513d601f19601f820116820180604052508101906105c1919061115f565b505b60405163095ea7b360e01b81526001600160a01b037f000000000000000000000000000000000000000000000000000000000000000081166004830152602482018490527f0000000000000000000000000000000000000000000000000000000000000000169063095ea7b3906044016020604051808303816000875af1158015610652573d6000803e3d6000fd5b505050506040513d601f19601f82011682018060405250810190610676919061115f565b50604080516001600160a01b03851660208201526000910160405160208183030381529060405290507f00000000000000000000000000000000000000000000000000000000000000006001600160a01b031663ec0269016040518060c001604052807f00000000000000000000000000000000000000000000000000000000000000008152602001600260007f00000000000000000000000000000000000000000000000000000000000000008152602001908152602001600020805461073d90610eef565b80601f016020809104026020016040519081016040528092919081815260200182805461076990610eef565b80156107b65780601f1061078b576101008083540402835291602001916107b6565b820191906000526020600020905b81548152906001019060200180831161079957829003601f168201915b5050505050815260200160035481526020017fcb30b7a91bfafdecc5aabe95f3f005b0c706843fcfa340dcecee64fb1056bf5433866040516020016107fd93929190611181565b604051602081830303815290604052815260200186815260200160405160200161083290602080825260009082015260400190565b6040516020818303038152906040528152506040518263ffffffff1660e01b815260040161086091906111b4565b600060405180830381600087803b15801561087a57600080fd5b505af115801561088e573d6000803e3d6000fd5b5050505050505050565b6108a06109e7565b6108aa6000610a90565b565b60015433906001600160a01b0316811461091f5760405162461bcd60e51b815260206004820152602960248201527f4f776e61626c6532537465703a2063616c6c6572206973206e6f7420746865206044820152683732bb9037bbb732b960b91b60648201526084015b60405180910390fd5b61092881610a90565b50565b6109336109e7565b600180546001600160a01b0383166001600160a01b031990911681179091556109646000546001600160a01b031690565b6001600160a01b03167f38d16b8cac22d99fc7c124b9cd0de2d3fa1faef420bfe791d8c362d765e2270060405160405180910390a350565b336001600160a01b037f000000000000000000000000000000000000000000000000000000000000000016146108aa5760405163065ece9760e51b8152336004820152602401610916565b6000546001600160a01b031633146108aa5760405162461bcd60e51b815260206004820181905260248201527f4f776e61626c653a2063616c6c6572206973206e6f7420746865206f776e65726044820152606401610916565b6040805160008082526020808301808552925183208583526002909152928120909291610a6e9190610f29565b604051809103902014159050919050565b6000610a8a82610aa9565b92915050565b600180546001600160a01b031916905561092881610d02565b600081600003610acc5760405163e346d81d60e01b815260040160405180910390fd5b6040805160028082526060820183526000926020830190803683370190505090507f00000000000000000000000000000000000000000000000000000000000000006001600160a01b031663ad5c46486040518163ffffffff1660e01b8152600401602060405180830381865afa158015610b4b573d6000803e3d6000fd5b505050506040513d601f19601f82011682018060405250810190610b6f919061122a565b81600081518110610b8257610b82611247565b60200260200101906001600160a01b031690816001600160a01b0316815250507f000000000000000000000000000000000000000000000000000000000000000081600181518110610bd657610bd6611247565b6001600160a01b0392831660209182029290920101526000907f000000000000000000000000000000000000000000000000000000000000000016637ff36ab585838530610c2560c842611139565b6040518663ffffffff1660e01b8152600401610c44949392919061125d565b60006040518083038185885af1158015610c62573d6000803e3d6000fd5b50505050506040513d6000823e601f3d908101601f19168201604052610c8b91908101906112c7565b905060008160018451610c9e919061114c565b81518110610cae57610cae611247565b602002602001015190507f87890b0a30955b1db16cc894fbe24779ae05d9f337bfe8b6dfc0809b5bf9da118582604051610cf2929190918252602082015260400190565b60405180910390a1949350505050565b600080546001600160a01b038381166001600160a01b0319831681178455604051919092169283917f8be0079c531659141344cd1fd0a4f28419497f9722a3daafe3b4186f6b6457e09190a35050565b600060208284031215610d6457600080fd5b5035919050565b6000815180845260005b81811015610d9157602081850181015186830182015201610d75565b506000602082860101526020601f19601f83011685010191505092915050565b602081526000610dc46020830184610d6b565b9392505050565b600060208284031215610ddd57600080fd5b813567ffffffffffffffff811115610df457600080fd5b820160a08185031215610dc457600080fd5b600060208284031215610e1857600080fd5b813567ffffffffffffffff811115610e2f57600080fd5b820160c08185031215610dc457600080fd5b600080600060408486031215610e5657600080fd5b83359250602084013567ffffffffffffffff80821115610e7557600080fd5b818601915086601f830112610e8957600080fd5b813581811115610e9857600080fd5b876020828501011115610eaa57600080fd5b6020830194508093505050509250925092565b6001600160a01b038116811461092857600080fd5b600060208284031215610ee457600080fd5b8135610dc481610ebd565b600181811c90821680610f0357607f821691505b602082108103610f2357634e487b7160e01b600052602260045260246000fd5b50919050565b6000808354610f3781610eef565b60018281168015610f4f5760018114610f6457610f93565b60ff1984168752821515830287019450610f93565b8760005260208060002060005b85811015610f8a5781548a820152908401908201610f71565b50505082870194505b50929695505050505050565b6000808335601e19843603018112610fb657600080fd5b83018035915067ffffffffffffffff821115610fd157600080fd5b602001915036819003821315610fe657600080fd5b9250929050565b8183823760009101908152919050565b634e487b7160e01b600052604160045260246000fd5b601f82111561105d57600081815260208120601f850160051c8101602086101561103a5750805b601f850160051c820191505b8181101561105957828155600101611046565b5050505b505050565b67ffffffffffffffff83111561107a5761107a610ffd565b61108e836110888354610eef565b83611013565b6000601f8411600181146110c257600085156110aa5750838201355b600019600387901b1c1916600186901b17835561111c565b600083815260209020601f19861690835b828110156110f357868501358255602094850194600190920191016110d3565b50868210156111105760001960f88860031b161c19848701351681555b505060018560011b0183555b5050505050565b634e487b7160e01b600052601160045260246000fd5b80820180821115610a8a57610a8a611123565b81810381811115610a8a57610a8a611123565b60006020828403121561117157600080fd5b81518015158114610dc457600080fd5b8381526001600160a01b03831660208201526060604082018190526000906111ab90830184610d6b565b95945050505050565b60208152815160208201526000602083015160c060408401526111da60e0840182610d6b565b9050604084015160608401526060840151601f19808584030160808601526112028383610d6b565b9250608086015160a086015260a08601519150808584030160c0860152506111ab8282610d6b565b60006020828403121561123c57600080fd5b8151610dc481610ebd565b634e487b7160e01b600052603260045260246000fd5b600060808201868352602060808185015281875180845260a086019150828901935060005b818110156112a75784516001600160a01b031683529383019391830191600101611282565b50506001600160a01b039690961660408501525050506060015292915050565b600060208083850312156112da57600080fd5b825167ffffffffffffffff808211156112f257600080fd5b818501915085601f83011261130657600080fd5b81518181111561131857611318610ffd565b8060051b604051601f19603f8301168101818110858211171561133d5761133d610ffd565b60405291825284820192508381018501918883111561135b57600080fd5b938501935b8285101561137957845184529385019392850192611360565b9897505050505050505056fea264697066735822122094c735a4a5b4ac30728a23979bf50b642a2d53ca1e7c1c38b56cd9d0258ece5264736f6c6343000814003300000000000000000000000000005e3125aba53c5652f9f0ce1a4cf91d8b15ea0000000000000000000000000000c304d2934c00db1d51995b9f6996affd17c000000000000000000000000000000000000000000000000000000000000138810000000000000000000000007a250d5630b4cf539739df2c5dacb4c659f2488d",
        "nonce": "0x85"
      },
      "additionalContracts": [],
      "isFixedGasLimit": false
    },
    {
      "hash": "0x2f70eaa0d9e66267bab8a43a89888dd15b1259c3519e478534614b52b301cd71",
      "transactionType": "CALL",
      "contractName": "FootyDAOTokenAdapter",
      "contractAddress": "0xbE1bA58AAf83B7db6D6320B8C87B4DDd991cD8c6",
      "function": "setInteractorByChainId(uint256,bytes)",
      "arguments": [
        "80001",
        "0x14ebd3c782aa93db2f4dbfb5b4e40831bca511d0"
      ],
      "transaction": {
        "type": "0x00",
        "from": "0xde3089d40f3491de794fbb1eca109fac36f889d0",
        "to": "0xbe1ba58aaf83b7db6d6320b8c87b4ddd991cd8c6",
        "gas": "0x10cd7",
        "value": "0x0",
        "data": "0x4fd3f7d700000000000000000000000000000000000000000000000000000000000138810000000000000000000000000000000000000000000000000000000000000040000000000000000000000000000000000000000000000000000000000000001414ebd3c782aa93db2f4dbfb5b4e40831bca511d0000000000000000000000000",
        "nonce": "0x86"
      },
      "additionalContracts": [],
      "isFixedGasLimit": false
    },
    {
      "hash": "0x20ef80f5c9794a10143fd8ebbe3941f110453e2617e0907b2ee6088d4b23ee5a",
      "transactionType": "CALL",
      "contractName": "FootyDAOTokenAdapter",
      "contractAddress": "0xbE1bA58AAf83B7db6D6320B8C87B4DDd991cD8c6",
      "function": "setMinimumZetaCrossChainGas(uint256)",
      "arguments": [
        "3000000000000000000"
      ],
      "transaction": {
        "type": "0x00",
        "from": "0xde3089d40f3491de794fbb1eca109fac36f889d0",
        "to": "0xbe1ba58aaf83b7db6d6320b8c87b4ddd991cd8c6",
        "gas": "0x8f54",
        "value": "0x0",
        "data": "0x5fffc38500000000000000000000000000000000000000000000000029a2241af62c0000",
        "nonce": "0x87"
      },
      "additionalContracts": [],
      "isFixedGasLimit": false
    },
    {
      "hash": "0x8323b5c86f2e26218b8d005d932790daf0a9feb7d59671d02fa6de4f27a41d53",
      "transactionType": "CALL",
      "contractName": "FootyDAOTokenAdapter",
      "contractAddress": "0xbE1bA58AAf83B7db6D6320B8C87B4DDd991cD8c6",
      "function": "setGlobalGasLimit(uint256)",
      "arguments": [
        "150000"
      ],
      "transaction": {
        "type": "0x00",
        "from": "0xde3089d40f3491de794fbb1eca109fac36f889d0",
        "to": "0xbe1ba58aaf83b7db6d6320b8c87b4ddd991cd8c6",
        "gas": "0x8ec6",
        "value": "0x0",
        "data": "0x409fbf2600000000000000000000000000000000000000000000000000000000000249f0",
        "nonce": "0x88"
      },
      "additionalContracts": [],
      "isFixedGasLimit": false
    },
    {
      "hash": "0x111bf308d69aa15df4f8eba4d8d5a68729fd4fe587e66c08b5c84343594b297e",
      "transactionType": "CALL",
      "contractName": "ZetaEth",
      "contractAddress": "0x0000c304D2934c00Db1d51995b9f6996AffD17c0",
      "function": "approve(address,uint256):(bool)",
      "arguments": [
        "0x86695F03264E4676B896cdD590e013815f3493b2",
        "3000000000000000000"
      ],
      "transaction": {
        "type": "0x00",
        "from": "0xde3089d40f3491de794fbb1eca109fac36f889d0",
        "to": "0x0000c304d2934c00db1d51995b9f6996affd17c0",
        "gas": "0xfd03",
        "value": "0x0",
        "data": "0x095ea7b300000000000000000000000086695f03264e4676b896cdd590e013815f3493b200000000000000000000000000000000000000000000000029a2241af62c0000",
        "nonce": "0x89"
      },
      "additionalContracts": [],
      "isFixedGasLimit": false
    },
    {
      "hash": "0x8a2e96f9ba1dd1c0646b2e003ab9220776d2368c092a48b16d8421e1d5d469da",
      "transactionType": "CALL",
      "contractName": "CrossChainMessage",
      "contractAddress": "0x86695F03264E4676B896cdD590e013815f3493b2",
      "function": "sendHelloWorld(uint256)",
      "arguments": [
        "80001"
      ],
      "transaction": {
        "type": "0x00",
        "from": "0xde3089d40f3491de794fbb1eca109fac36f889d0",
        "to": "0x86695f03264e4676b896cdd590e013815f3493b2",
        "gas": "0x20427",
        "value": "0x0",
        "data": "0x2e61b1c80000000000000000000000000000000000000000000000000000000000013881",
        "nonce": "0x8a"
      },
      "additionalContracts": [],
      "isFixedGasLimit": false
    }
  ],
  "receipts": [
    {
      "transactionHash": "0x83afaec56aad93e3b30b515765e551463d23549011f5b15e25f4cb3102e1c833",
      "transactionIndex": "0x28",
      "blockHash": "0x024e435fa47579fe8265b1ace5eb94b0d00a0095ac03ef58fcee838ab1e86fb4",
      "blockNumber": "0x8f4181",
      "from": "0xDe3089d40F3491De794fBb1ECA109fAc36F889d0",
      "to": null,
      "cumulativeGasUsed": "0x5fce0a",
      "gasUsed": "0x129927",
      "contractAddress": "0xbE1bA58AAf83B7db6D6320B8C87B4DDd991cD8c6",
      "logs": [
        {
          "address": "0xbE1bA58AAf83B7db6D6320B8C87B4DDd991cD8c6",
          "topics": [
            "0x8be0079c531659141344cd1fd0a4f28419497f9722a3daafe3b4186f6b6457e0",
            "0x0000000000000000000000000000000000000000000000000000000000000000",
            "0x000000000000000000000000de3089d40f3491de794fbb1eca109fac36f889d0"
          ],
          "data": "0x",
          "blockHash": "0x024e435fa47579fe8265b1ace5eb94b0d00a0095ac03ef58fcee838ab1e86fb4",
          "blockNumber": "0x8f4181",
          "transactionHash": "0x83afaec56aad93e3b30b515765e551463d23549011f5b15e25f4cb3102e1c833",
          "transactionIndex": "0x28",
          "logIndex": "0x6b",
          "removed": false
        }
      ],
      "status": "0x1",
      "logsBloom": "0x00000000000000000000000000000000000000000000000000800000000000000000200000000000000000000000000000000000100000000000000000000040000000000000000000000000000000000001001000000000000000000000000000000000020000000000000000000800000000000000000000000000000000400000000000000000000000000000000000000000001000000000000000000000000000000000000000000000000000000000000000000000000000000000000000000000000000000000000000000000000000000100000000000000000020000000000000000000000000000000000000000000000000000000000000000000",
      "type": "0x0",
      "effectiveGasPrice": "0x5e99aa1a"
    },
    {
      "transactionHash": "0x2f70eaa0d9e66267bab8a43a89888dd15b1259c3519e478534614b52b301cd71",
      "transactionIndex": "0x29",
      "blockHash": "0x024e435fa47579fe8265b1ace5eb94b0d00a0095ac03ef58fcee838ab1e86fb4",
      "blockNumber": "0x8f4181",
      "from": "0xDe3089d40F3491De794fBb1ECA109fAc36F889d0",
      "to": "0xbE1bA58AAf83B7db6D6320B8C87B4DDd991cD8c6",
      "cumulativeGasUsed": "0x6085dd",
      "gasUsed": "0xb7d3",
      "contractAddress": null,
      "logs": [],
      "status": "0x1",
      "logsBloom": "0x00000000000000000000000000000000000000000000000000000000000000000000000000000000000000000000000000000000000000000000000000000000000000000000000000000000000000000000000000000000000000000000000000000000000000000000000000000000000000000000000000000000000000000000000000000000000000000000000000000000000000000000000000000000000000000000000000000000000000000000000000000000000000000000000000000000000000000000000000000000000000000000000000000000000000000000000000000000000000000000000000000000000000000000000000000000",
      "type": "0x0",
      "effectiveGasPrice": "0x5e99aa1a"
    },
    {
      "transactionHash": "0x20ef80f5c9794a10143fd8ebbe3941f110453e2617e0907b2ee6088d4b23ee5a",
      "transactionIndex": "0x2a",
      "blockHash": "0x024e435fa47579fe8265b1ace5eb94b0d00a0095ac03ef58fcee838ab1e86fb4",
      "blockNumber": "0x8f4181",
      "from": "0xDe3089d40F3491De794fBb1ECA109fAc36F889d0",
      "to": "0xbE1bA58AAf83B7db6D6320B8C87B4DDd991cD8c6",
      "cumulativeGasUsed": "0x60eda2",
      "gasUsed": "0x67c5",
      "contractAddress": null,
      "logs": [],
      "status": "0x1",
      "logsBloom": "0x00000000000000000000000000000000000000000000000000000000000000000000000000000000000000000000000000000000000000000000000000000000000000000000000000000000000000000000000000000000000000000000000000000000000000000000000000000000000000000000000000000000000000000000000000000000000000000000000000000000000000000000000000000000000000000000000000000000000000000000000000000000000000000000000000000000000000000000000000000000000000000000000000000000000000000000000000000000000000000000000000000000000000000000000000000000",
      "type": "0x0",
      "effectiveGasPrice": "0x5e99aa1a"
    },
    {
      "transactionHash": "0x8323b5c86f2e26218b8d005d932790daf0a9feb7d59671d02fa6de4f27a41d53",
      "transactionIndex": "0x2b",
      "blockHash": "0x024e435fa47579fe8265b1ace5eb94b0d00a0095ac03ef58fcee838ab1e86fb4",
      "blockNumber": "0x8f4181",
      "from": "0xDe3089d40F3491De794fBb1ECA109fAc36F889d0",
      "to": "0xbE1bA58AAf83B7db6D6320B8C87B4DDd991cD8c6",
      "cumulativeGasUsed": "0x615501",
      "gasUsed": "0x675f",
      "contractAddress": null,
      "logs": [],
      "status": "0x1",
      "logsBloom": "0x00000000000000000000000000000000000000000000000000000000000000000000000000000000000000000000000000000000000000000000000000000000000000000000000000000000000000000000000000000000000000000000000000000000000000000000000000000000000000000000000000000000000000000000000000000000000000000000000000000000000000000000000000000000000000000000000000000000000000000000000000000000000000000000000000000000000000000000000000000000000000000000000000000000000000000000000000000000000000000000000000000000000000000000000000000000",
      "type": "0x0",
      "effectiveGasPrice": "0x5e99aa1a"
    },
    {
      "transactionHash": "0x111bf308d69aa15df4f8eba4d8d5a68729fd4fe587e66c08b5c84343594b297e",
      "transactionIndex": "0x2c",
      "blockHash": "0x024e435fa47579fe8265b1ace5eb94b0d00a0095ac03ef58fcee838ab1e86fb4",
      "blockNumber": "0x8f4181",
      "from": "0xDe3089d40F3491De794fBb1ECA109fAc36F889d0",
      "to": "0x0000c304D2934c00Db1d51995b9f6996AffD17c0",
      "cumulativeGasUsed": "0x620c2f",
      "gasUsed": "0xb72e",
      "contractAddress": null,
      "logs": [
        {
          "address": "0x0000c304D2934c00Db1d51995b9f6996AffD17c0",
          "topics": [
            "0x8c5be1e5ebec7d5bd14f71427d1e84f3dd0314c0f7b2291e5b200ac8c7c3b925",
            "0x000000000000000000000000de3089d40f3491de794fbb1eca109fac36f889d0",
            "0x00000000000000000000000086695f03264e4676b896cdd590e013815f3493b2"
          ],
          "data": "0x00000000000000000000000000000000000000000000000029a2241af62c0000",
          "blockHash": "0x024e435fa47579fe8265b1ace5eb94b0d00a0095ac03ef58fcee838ab1e86fb4",
          "blockNumber": "0x8f4181",
          "transactionHash": "0x111bf308d69aa15df4f8eba4d8d5a68729fd4fe587e66c08b5c84343594b297e",
          "transactionIndex": "0x2c",
          "logIndex": "0x6c",
          "removed": false
        }
      ],
      "status": "0x1",
      "logsBloom": "0x10000000000000000000000000000000000000000000000000000000000000000000000000000000000000000000000000200000100000000000000000200040000000000000000000000000000000000000000000000000000000000000000000000000000000000000000000000000000000000000080000000000000000000000000000000000000000000000000000000000001020000000000000000000020000000000000000000000000000000000000000000000000000000000000000000000000000000000000000000010000000000000000000000000000000000010000000000000000000000000040000000000000000000000000000000000",
      "type": "0x0",
      "effectiveGasPrice": "0x5e99aa1a"
    },
    {
      "transactionHash": "0x8a2e96f9ba1dd1c0646b2e003ab9220776d2368c092a48b16d8421e1d5d469da",
      "transactionIndex": "0x2d",
      "blockHash": "0x024e435fa47579fe8265b1ace5eb94b0d00a0095ac03ef58fcee838ab1e86fb4",
      "blockNumber": "0x8f4181",
      "from": "0xDe3089d40F3491De794fBb1ECA109fAc36F889d0",
      "to": "0x86695F03264E4676B896cdD590e013815f3493b2",
      "cumulativeGasUsed": "0x6381df",
      "gasUsed": "0x175b0",
      "contractAddress": null,
      "logs": [
        {
          "address": "0x0000c304D2934c00Db1d51995b9f6996AffD17c0",
          "topics": [
            "0x8c5be1e5ebec7d5bd14f71427d1e84f3dd0314c0f7b2291e5b200ac8c7c3b925",
            "0x000000000000000000000000de3089d40f3491de794fbb1eca109fac36f889d0",
            "0x00000000000000000000000086695f03264e4676b896cdd590e013815f3493b2"
          ],
          "data": "0x0000000000000000000000000000000000000000000000000000000000000000",
          "blockHash": "0x024e435fa47579fe8265b1ace5eb94b0d00a0095ac03ef58fcee838ab1e86fb4",
          "blockNumber": "0x8f4181",
          "transactionHash": "0x8a2e96f9ba1dd1c0646b2e003ab9220776d2368c092a48b16d8421e1d5d469da",
          "transactionIndex": "0x2d",
          "logIndex": "0x6d",
          "removed": false
        },
        {
          "address": "0x0000c304D2934c00Db1d51995b9f6996AffD17c0",
          "topics": [
            "0xddf252ad1be2c89b69c2b068fc378daa952ba7f163c4a11628f55a4df523b3ef",
            "0x000000000000000000000000de3089d40f3491de794fbb1eca109fac36f889d0",
            "0x00000000000000000000000086695f03264e4676b896cdd590e013815f3493b2"
          ],
          "data": "0x00000000000000000000000000000000000000000000000029a2241af62c0000",
          "blockHash": "0x024e435fa47579fe8265b1ace5eb94b0d00a0095ac03ef58fcee838ab1e86fb4",
          "blockNumber": "0x8f4181",
          "transactionHash": "0x8a2e96f9ba1dd1c0646b2e003ab9220776d2368c092a48b16d8421e1d5d469da",
          "transactionIndex": "0x2d",
          "logIndex": "0x6e",
          "removed": false
        },
        {
          "address": "0x0000c304D2934c00Db1d51995b9f6996AffD17c0",
          "topics": [
            "0x8c5be1e5ebec7d5bd14f71427d1e84f3dd0314c0f7b2291e5b200ac8c7c3b925",
            "0x00000000000000000000000086695f03264e4676b896cdd590e013815f3493b2",
            "0x00000000000000000000000000005e3125aba53c5652f9f0ce1a4cf91d8b15ea"
          ],
          "data": "0x00000000000000000000000000000000000000000000000029a2241af62c0000",
          "blockHash": "0x024e435fa47579fe8265b1ace5eb94b0d00a0095ac03ef58fcee838ab1e86fb4",
          "blockNumber": "0x8f4181",
          "transactionHash": "0x8a2e96f9ba1dd1c0646b2e003ab9220776d2368c092a48b16d8421e1d5d469da",
          "transactionIndex": "0x2d",
          "logIndex": "0x6f",
          "removed": false
        },
        {
          "address": "0x0000c304D2934c00Db1d51995b9f6996AffD17c0",
          "topics": [
            "0x8c5be1e5ebec7d5bd14f71427d1e84f3dd0314c0f7b2291e5b200ac8c7c3b925",
            "0x00000000000000000000000086695f03264e4676b896cdd590e013815f3493b2",
            "0x00000000000000000000000000005e3125aba53c5652f9f0ce1a4cf91d8b15ea"
          ],
          "data": "0x0000000000000000000000000000000000000000000000000000000000000000",
          "blockHash": "0x024e435fa47579fe8265b1ace5eb94b0d00a0095ac03ef58fcee838ab1e86fb4",
          "blockNumber": "0x8f4181",
          "transactionHash": "0x8a2e96f9ba1dd1c0646b2e003ab9220776d2368c092a48b16d8421e1d5d469da",
          "transactionIndex": "0x2d",
          "logIndex": "0x70",
          "removed": false
        },
        {
          "address": "0x0000c304D2934c00Db1d51995b9f6996AffD17c0",
          "topics": [
            "0xddf252ad1be2c89b69c2b068fc378daa952ba7f163c4a11628f55a4df523b3ef",
            "0x00000000000000000000000086695f03264e4676b896cdd590e013815f3493b2",
            "0x00000000000000000000000000005e3125aba53c5652f9f0ce1a4cf91d8b15ea"
          ],
          "data": "0x00000000000000000000000000000000000000000000000029a2241af62c0000",
          "blockHash": "0x024e435fa47579fe8265b1ace5eb94b0d00a0095ac03ef58fcee838ab1e86fb4",
          "blockNumber": "0x8f4181",
          "transactionHash": "0x8a2e96f9ba1dd1c0646b2e003ab9220776d2368c092a48b16d8421e1d5d469da",
          "transactionIndex": "0x2d",
          "logIndex": "0x71",
          "removed": false
        },
        {
          "address": "0x00005E3125aBA53C5652f9F0CE1a4Cf91D8B15eA",
          "topics": [
            "0x7ec1c94701e09b1652f3e1d307e60c4b9ebf99aff8c2079fd1d8c585e031c4e4",
            "0x00000000000000000000000086695f03264e4676b896cdd590e013815f3493b2",
            "0x0000000000000000000000000000000000000000000000000000000000013881"
          ],
          "data": "0x000000000000000000000000de3089d40f3491de794fbb1eca109fac36f889d000000000000000000000000000000000000000000000000000000000000000c000000000000000000000000000000000000000000000000029a2241af62c000000000000000000000000000000000000000000000000000000000000000493e0000000000000000000000000000000000000000000000000000000000000010000000000000000000000000000000000000000000000000000000000000001a00000000000000000000000000000000000000000000000000000000000000014f127fef5eba2de47fbff7011d330eda4a5376de500000000000000000000000000000000000000000000000000000000000000000000000000000000000000806e0182194bb1deba01849afd3e035a0b70ce7cb069e482ee663519c76cf569b40000000000000000000000000000000000000000000000000000000000000040000000000000000000000000000000000000000000000000000000000000001948656c6c6f2c2043726f73732d436861696e20576f726c642100000000000000000000000000000000000000000000000000000000000000000000000000004000000000000000000000000000000000000000000000000000000000000000200000000000000000000000000000000000000000000000000000000000000000",
          "blockHash": "0x024e435fa47579fe8265b1ace5eb94b0d00a0095ac03ef58fcee838ab1e86fb4",
          "blockNumber": "0x8f4181",
          "transactionHash": "0x8a2e96f9ba1dd1c0646b2e003ab9220776d2368c092a48b16d8421e1d5d469da",
          "transactionIndex": "0x2d",
          "logIndex": "0x72",
          "removed": false
        }
      ],
      "status": "0x1",
      "logsBloom": "0x10000000000000000000000000000000000800000000000000000000000000000000000000000000000000000000000000200000100000000000000000200040000000000000008000000008000000000000800000000000000000000080000000001000002000000000000000000000000040000000080000840010000000000000000000000000000000000000000200000000001020000000000000000000020000000000000000000000000000000000000000000000002000000000000000000002000000000000000000000010000000000100000000000000000000000010000000000000000000000000040000000000000000000000000000000000",
      "type": "0x0",
      "effectiveGasPrice": "0x5e99aa1a"
    }
  ],
  "libraries": [],
  "pending": [],
  "returns": {},
  "timestamp": 1690030922,
  "chain": 5,
  "multi": false,
  "commit": "2a7742d"
}