{
  "transactions": [
    {
      "hash": "0x564dd7d88414c2b7075502e86444e959e61340448974283cb07512c366486fb5",
      "transactionType": "CALL",
      "contractName": "ZetaEth",
      "contractAddress": "0x0000c304D2934c00Db1d51995b9f6996AffD17c0",
      "function": "approve(address,uint256):(bool)",
      "arguments": [
        "0x86695F03264E4676B896cdD590e013815f3493b2",
        "3000000000000000000"
      ],
      "transaction": {
        "type": "0x00",
        "from": "0xde3089d40f3491de794fbb1eca109fac36f889d0",
        "to": "0x0000c304d2934c00db1d51995b9f6996affd17c0",
        "gas": "0xfd03",
        "value": "0x0",
        "data": "0x095ea7b300000000000000000000000086695f03264e4676b896cdd590e013815f3493b200000000000000000000000000000000000000000000000029a2241af62c0000",
        "nonce": "0x71"
      },
      "additionalContracts": [],
      "isFixedGasLimit": false
    },
    {
      "hash": "0x209719219b71efc67363d6e4aad6d5b32a50abad4992e85fc3344b0a6da3e1dc",
      "transactionType": "CALL",
      "contractName": "CrossChainMessage",
      "contractAddress": "0x86695F03264E4676B896cdD590e013815f3493b2",
      "function": "sendHelloWorld(uint256)",
      "arguments": [
        "80001"
      ],
      "transaction": {
        "type": "0x00",
        "from": "0xde3089d40f3491de794fbb1eca109fac36f889d0",
        "to": "0x86695f03264e4676b896cdd590e013815f3493b2",
        "gas": "0x20427",
        "value": "0x0",
        "data": "0x2e61b1c80000000000000000000000000000000000000000000000000000000000013881",
        "nonce": "0x72"
      },
      "additionalContracts": [],
      "isFixedGasLimit": false
    }
  ],
  "receipts": [
    {
      "transactionHash": "0x564dd7d88414c2b7075502e86444e959e61340448974283cb07512c366486fb5",
      "transactionIndex": "0x85",
      "blockHash": "0x556f23c6a6cbd50500a5d329ed60f2e5c91cbb31bb9f7df8a10a0e8be1fd923f",
      "blockNumber": "0x8f4081",
      "from": "0xDe3089d40F3491De794fBb1ECA109fAc36F889d0",
      "to": "0x0000c304D2934c00Db1d51995b9f6996AffD17c0",
      "cumulativeGasUsed": "0x12ae470",
      "gasUsed": "0xb72e",
      "contractAddress": null,
      "logs": [
        {
          "address": "0x0000c304D2934c00Db1d51995b9f6996AffD17c0",
          "topics": [
            "0x8c5be1e5ebec7d5bd14f71427d1e84f3dd0314c0f7b2291e5b200ac8c7c3b925",
            "0x000000000000000000000000de3089d40f3491de794fbb1eca109fac36f889d0",
            "0x00000000000000000000000086695f03264e4676b896cdd590e013815f3493b2"
          ],
          "data": "0x00000000000000000000000000000000000000000000000029a2241af62c0000",
          "blockHash": "0x556f23c6a6cbd50500a5d329ed60f2e5c91cbb31bb9f7df8a10a0e8be1fd923f",
          "blockNumber": "0x8f4081",
          "transactionHash": "0x564dd7d88414c2b7075502e86444e959e61340448974283cb07512c366486fb5",
          "transactionIndex": "0x85",
          "logIndex": "0x16b",
          "removed": false
        }
      ],
      "status": "0x1",
      "logsBloom": "0x10000000000000000000000000000000000000000000000000000000000000000000000000000000000000000000000000200000100000000000000000200040000000000000000000000000000000000000000000000000000000000000000000000000000000000000000000000000000000000000080000000000000000000000000000000000000000000000000000000000001020000000000000000000020000000000000000000000000000000000000000000000000000000000000000000000000000000000000000000010000000000000000000000000000000000010000000000000000000000000040000000000000000000000000000000000",
      "effectiveGasPrice": "0x7cfaac56"
    },
    {
      "transactionHash": "0x209719219b71efc67363d6e4aad6d5b32a50abad4992e85fc3344b0a6da3e1dc",
      "transactionIndex": "0x86",
      "blockHash": "0x556f23c6a6cbd50500a5d329ed60f2e5c91cbb31bb9f7df8a10a0e8be1fd923f",
      "blockNumber": "0x8f4081",
      "from": "0xDe3089d40F3491De794fBb1ECA109fAc36F889d0",
      "to": "0x86695F03264E4676B896cdD590e013815f3493b2",
      "cumulativeGasUsed": "0x12c5a20",
      "gasUsed": "0x175b0",
      "contractAddress": null,
      "logs": [
        {
          "address": "0x0000c304D2934c00Db1d51995b9f6996AffD17c0",
          "topics": [
            "0x8c5be1e5ebec7d5bd14f71427d1e84f3dd0314c0f7b2291e5b200ac8c7c3b925",
            "0x000000000000000000000000de3089d40f3491de794fbb1eca109fac36f889d0",
            "0x00000000000000000000000086695f03264e4676b896cdd590e013815f3493b2"
          ],
          "data": "0x0000000000000000000000000000000000000000000000000000000000000000",
          "blockHash": "0x556f23c6a6cbd50500a5d329ed60f2e5c91cbb31bb9f7df8a10a0e8be1fd923f",
          "blockNumber": "0x8f4081",
          "transactionHash": "0x209719219b71efc67363d6e4aad6d5b32a50abad4992e85fc3344b0a6da3e1dc",
          "transactionIndex": "0x86",
          "logIndex": "0x16c",
          "removed": false
        },
        {
          "address": "0x0000c304D2934c00Db1d51995b9f6996AffD17c0",
          "topics": [
            "0xddf252ad1be2c89b69c2b068fc378daa952ba7f163c4a11628f55a4df523b3ef",
            "0x000000000000000000000000de3089d40f3491de794fbb1eca109fac36f889d0",
            "0x00000000000000000000000086695f03264e4676b896cdd590e013815f3493b2"
          ],
          "data": "0x00000000000000000000000000000000000000000000000029a2241af62c0000",
          "blockHash": "0x556f23c6a6cbd50500a5d329ed60f2e5c91cbb31bb9f7df8a10a0e8be1fd923f",
          "blockNumber": "0x8f4081",
          "transactionHash": "0x209719219b71efc67363d6e4aad6d5b32a50abad4992e85fc3344b0a6da3e1dc",
          "transactionIndex": "0x86",
          "logIndex": "0x16d",
          "removed": false
        },
        {
          "address": "0x0000c304D2934c00Db1d51995b9f6996AffD17c0",
          "topics": [
            "0x8c5be1e5ebec7d5bd14f71427d1e84f3dd0314c0f7b2291e5b200ac8c7c3b925",
            "0x00000000000000000000000086695f03264e4676b896cdd590e013815f3493b2",
            "0x00000000000000000000000000005e3125aba53c5652f9f0ce1a4cf91d8b15ea"
          ],
          "data": "0x00000000000000000000000000000000000000000000000029a2241af62c0000",
          "blockHash": "0x556f23c6a6cbd50500a5d329ed60f2e5c91cbb31bb9f7df8a10a0e8be1fd923f",
          "blockNumber": "0x8f4081",
          "transactionHash": "0x209719219b71efc67363d6e4aad6d5b32a50abad4992e85fc3344b0a6da3e1dc",
          "transactionIndex": "0x86",
          "logIndex": "0x16e",
          "removed": false
        },
        {
          "address": "0x0000c304D2934c00Db1d51995b9f6996AffD17c0",
          "topics": [
            "0x8c5be1e5ebec7d5bd14f71427d1e84f3dd0314c0f7b2291e5b200ac8c7c3b925",
            "0x00000000000000000000000086695f03264e4676b896cdd590e013815f3493b2",
            "0x00000000000000000000000000005e3125aba53c5652f9f0ce1a4cf91d8b15ea"
          ],
          "data": "0x0000000000000000000000000000000000000000000000000000000000000000",
          "blockHash": "0x556f23c6a6cbd50500a5d329ed60f2e5c91cbb31bb9f7df8a10a0e8be1fd923f",
          "blockNumber": "0x8f4081",
          "transactionHash": "0x209719219b71efc67363d6e4aad6d5b32a50abad4992e85fc3344b0a6da3e1dc",
          "transactionIndex": "0x86",
          "logIndex": "0x16f",
          "removed": false
        },
        {
          "address": "0x0000c304D2934c00Db1d51995b9f6996AffD17c0",
          "topics": [
            "0xddf252ad1be2c89b69c2b068fc378daa952ba7f163c4a11628f55a4df523b3ef",
            "0x00000000000000000000000086695f03264e4676b896cdd590e013815f3493b2",
            "0x00000000000000000000000000005e3125aba53c5652f9f0ce1a4cf91d8b15ea"
          ],
          "data": "0x00000000000000000000000000000000000000000000000029a2241af62c0000",
          "blockHash": "0x556f23c6a6cbd50500a5d329ed60f2e5c91cbb31bb9f7df8a10a0e8be1fd923f",
          "blockNumber": "0x8f4081",
          "transactionHash": "0x209719219b71efc67363d6e4aad6d5b32a50abad4992e85fc3344b0a6da3e1dc",
          "transactionIndex": "0x86",
          "logIndex": "0x170",
          "removed": false
        },
        {
          "address": "0x00005E3125aBA53C5652f9F0CE1a4Cf91D8B15eA",
          "topics": [
            "0x7ec1c94701e09b1652f3e1d307e60c4b9ebf99aff8c2079fd1d8c585e031c4e4",
            "0x00000000000000000000000086695f03264e4676b896cdd590e013815f3493b2",
            "0x0000000000000000000000000000000000000000000000000000000000013881"
          ],
          "data": "0x000000000000000000000000de3089d40f3491de794fbb1eca109fac36f889d000000000000000000000000000000000000000000000000000000000000000c000000000000000000000000000000000000000000000000029a2241af62c000000000000000000000000000000000000000000000000000000000000000493e0000000000000000000000000000000000000000000000000000000000000010000000000000000000000000000000000000000000000000000000000000001a00000000000000000000000000000000000000000000000000000000000000014f127fef5eba2de47fbff7011d330eda4a5376de500000000000000000000000000000000000000000000000000000000000000000000000000000000000000806e0182194bb1deba01849afd3e035a0b70ce7cb069e482ee663519c76cf569b40000000000000000000000000000000000000000000000000000000000000040000000000000000000000000000000000000000000000000000000000000001948656c6c6f2c2043726f73732d436861696e20576f726c642100000000000000000000000000000000000000000000000000000000000000000000000000004000000000000000000000000000000000000000000000000000000000000000200000000000000000000000000000000000000000000000000000000000000000",
          "blockHash": "0x556f23c6a6cbd50500a5d329ed60f2e5c91cbb31bb9f7df8a10a0e8be1fd923f",
          "blockNumber": "0x8f4081",
          "transactionHash": "0x209719219b71efc67363d6e4aad6d5b32a50abad4992e85fc3344b0a6da3e1dc",
          "transactionIndex": "0x86",
          "logIndex": "0x171",
          "removed": false
        }
      ],
      "status": "0x1",
      "logsBloom": "0x10000000000000000000000000000000000800000000000000000000000000000000000000000000000000000000000000200000100000000000000000200040000000000000008000000008000000000000800000000000000000000080000000001000002000000000000000000000000040000000080000840010000000000000000000000000000000000000000200000000001020000000000000000000020000000000000000000000000000000000000000000000002000000000000000000002000000000000000000000010000000000100000000000000000000000010000000000000000000000000040000000000000000000000000000000000",
      "effectiveGasPrice": "0x7cfaac56"
    }
  ],
  "libraries": [],
  "pending": [],
  "returns": {},
  "timestamp": 1690027118,
  "chain": 5,
  "multi": false,
  "commit": "2a7742d"
}