{
  "transactions": [
    {
      "hash": "0xdd31bc710cf8b6b65854345c5addfd17f0412138117652e4a433784df48eea50",
      "transactionType": "CALL",
      "contractName": "ZetaEth",
      "contractAddress": "0x0000c304D2934c00Db1d51995b9f6996AffD17c0",
      "function": "approve(address,uint256):(bool)",
      "arguments": [
        "0xE07B7B35AC82fECB64218A51e78337f4237fd11f",
        "3000000000000000000"
      ],
      "transaction": {
        "type": "0x00",
        "from": "0xde3089d40f3491de794fbb1eca109fac36f889d0",
        "to": "0x0000c304d2934c00db1d51995b9f6996affd17c0",
        "gas": "0xfd03",
        "value": "0x0",
        "data": "0x095ea7b3000000000000000000000000e07b7b35ac82fecb64218a51e78337f4237fd11f00000000000000000000000000000000000000000000000029a2241af62c0000",
        "nonce": "0x7b"
      },
      "additionalContracts": [],
      "isFixedGasLimit": false
    },
    {
      "hash": "0xf911d4237f0d415e978069b4af942ae8cfd11983195e1ef28a2def3bfc06b2d8",
      "transactionType": "CALL",
      "contractName": "FootyDAOTokenAdapter",
      "contractAddress": "0xE07B7B35AC82fECB64218A51e78337f4237fd11f",
      "function": "delegate(address)",
      "arguments": [
        "0xDe3089d40F3491De794fBb1ECA109fAc36F889d0"
      ],
      "transaction": {
        "type": "0x00",
        "from": "0xde3089d40f3491de794fbb1eca109fac36f889d0",
        "to": "0xe07b7b35ac82fecb64218a51e78337f4237fd11f",
        "gas": "0x21b68",
        "value": "0x0",
        "data": "0x5c19a95c000000000000000000000000de3089d40f3491de794fbb1eca109fac36f889d0",
        "nonce": "0x7c"
      },
      "additionalContracts": [],
      "isFixedGasLimit": false
    },
    {
      "hash": "0xbdc9938b3aa56d0d900f97362e7366403bf1f6a944f2997633cbc3440a0bd655",
      "transactionType": "CALL",
      "contractName": "ZetaEth",
      "contractAddress": "0x0000c304D2934c00Db1d51995b9f6996AffD17c0",
      "function": "approve(address,uint256):(bool)",
      "arguments": [
        "0x86695F03264E4676B896cdD590e013815f3493b2",
        "3000000000000000000"
      ],
      "transaction": {
        "type": "0x00",
        "from": "0xde3089d40f3491de794fbb1eca109fac36f889d0",
        "to": "0x0000c304d2934c00db1d51995b9f6996affd17c0",
        "gas": "0xfd03",
        "value": "0x0",
        "data": "0x095ea7b300000000000000000000000086695f03264e4676b896cdd590e013815f3493b200000000000000000000000000000000000000000000000029a2241af62c0000",
        "nonce": "0x7d"
      },
      "additionalContracts": [],
      "isFixedGasLimit": false
    },
    {
      "hash": "0x0b1ce5d419eacc41b8377df465c8be571cbc5afe31b2544861689590f321e91c",
      "transactionType": "CALL",
      "contractName": "CrossChainMessage",
      "contractAddress": "0x86695F03264E4676B896cdD590e013815f3493b2",
      "function": "sendHelloWorld(uint256)",
      "arguments": [
        "80001"
      ],
      "transaction": {
        "type": "0x00",
        "from": "0xde3089d40f3491de794fbb1eca109fac36f889d0",
        "to": "0x86695f03264e4676b896cdd590e013815f3493b2",
        "gas": "0x20427",
        "value": "0x0",
        "data": "0x2e61b1c80000000000000000000000000000000000000000000000000000000000013881",
        "nonce": "0x7e"
      },
      "additionalContracts": [],
      "isFixedGasLimit": false
    }
  ],
  "receipts": [
    {
      "transactionHash": "0xdd31bc710cf8b6b65854345c5addfd17f0412138117652e4a433784df48eea50",
      "transactionIndex": "0x20",
      "blockHash": "0xb6fee7c4eed30043e764f253d230d0002a1e166e96a6f0b331d4c1f7e6115db0",
      "blockNumber": "0x8f4133",
      "from": "0xDe3089d40F3491De794fBb1ECA109fAc36F889d0",
      "to": "0x0000c304D2934c00Db1d51995b9f6996AffD17c0",
      "cumulativeGasUsed": "0xe93004",
      "gasUsed": "0xb72e",
      "contractAddress": null,
      "logs": [
        {
          "address": "0x0000c304D2934c00Db1d51995b9f6996AffD17c0",
          "topics": [
            "0x8c5be1e5ebec7d5bd14f71427d1e84f3dd0314c0f7b2291e5b200ac8c7c3b925",
            "0x000000000000000000000000de3089d40f3491de794fbb1eca109fac36f889d0",
            "0x000000000000000000000000e07b7b35ac82fecb64218a51e78337f4237fd11f"
          ],
          "data": "0x00000000000000000000000000000000000000000000000029a2241af62c0000",
          "blockHash": "0xb6fee7c4eed30043e764f253d230d0002a1e166e96a6f0b331d4c1f7e6115db0",
          "blockNumber": "0x8f4133",
          "transactionHash": "0xdd31bc710cf8b6b65854345c5addfd17f0412138117652e4a433784df48eea50",
          "transactionIndex": "0x20",
          "logIndex": "0xbf8",
          "removed": false
        }
      ],
      "status": "0x1",
      "logsBloom": "0x10000000000000000000000000000000000000008000000000000000000000000200000000000000000000000000000000000000100000000000000000200040000000000000000000000000000000000000000000000000000000000000000000000000000000000000000000000000000000000000000000000000000000000000000000000000000000000000000000000000001000000000000000000000020000000000000000000000000000000000000000000000000000000000000000000000000000000000000000000010000000000000000000000000000000000010000000000000000000000000040000020000000000000000000000000000",
      "effectiveGasPrice": "0x6b05362b"
    },
    {
      "transactionHash": "0xf911d4237f0d415e978069b4af942ae8cfd11983195e1ef28a2def3bfc06b2d8",
      "transactionIndex": "0x21",
      "blockHash": "0xb6fee7c4eed30043e764f253d230d0002a1e166e96a6f0b331d4c1f7e6115db0",
      "blockNumber": "0x8f4133",
      "from": "0xDe3089d40F3491De794fBb1ECA109fAc36F889d0",
      "to": "0xE07B7B35AC82fECB64218A51e78337f4237fd11f",
      "cumulativeGasUsed": "0xeab68a",
      "gasUsed": "0x18686",
      "contractAddress": null,
      "logs": [
        {
          "address": "0x0000c304D2934c00Db1d51995b9f6996AffD17c0",
          "topics": [
            "0x8c5be1e5ebec7d5bd14f71427d1e84f3dd0314c0f7b2291e5b200ac8c7c3b925",
            "0x000000000000000000000000de3089d40f3491de794fbb1eca109fac36f889d0",
            "0x000000000000000000000000e07b7b35ac82fecb64218a51e78337f4237fd11f"
          ],
          "data": "0x0000000000000000000000000000000000000000000000000000000000000000",
          "blockHash": "0xb6fee7c4eed30043e764f253d230d0002a1e166e96a6f0b331d4c1f7e6115db0",
          "blockNumber": "0x8f4133",
          "transactionHash": "0xf911d4237f0d415e978069b4af942ae8cfd11983195e1ef28a2def3bfc06b2d8",
          "transactionIndex": "0x21",
          "logIndex": "0xbf9",
          "removed": false
        },
        {
          "address": "0x0000c304D2934c00Db1d51995b9f6996AffD17c0",
          "topics": [
            "0xddf252ad1be2c89b69c2b068fc378daa952ba7f163c4a11628f55a4df523b3ef",
            "0x000000000000000000000000de3089d40f3491de794fbb1eca109fac36f889d0",
            "0x000000000000000000000000e07b7b35ac82fecb64218a51e78337f4237fd11f"
          ],
          "data": "0x00000000000000000000000000000000000000000000000029a2241af62c0000",
          "blockHash": "0xb6fee7c4eed30043e764f253d230d0002a1e166e96a6f0b331d4c1f7e6115db0",
          "blockNumber": "0x8f4133",
          "transactionHash": "0xf911d4237f0d415e978069b4af942ae8cfd11983195e1ef28a2def3bfc06b2d8",
          "transactionIndex": "0x21",
          "logIndex": "0xbfa",
          "removed": false
        },
        {
          "address": "0x0000c304D2934c00Db1d51995b9f6996AffD17c0",
          "topics": [
            "0x8c5be1e5ebec7d5bd14f71427d1e84f3dd0314c0f7b2291e5b200ac8c7c3b925",
            "0x000000000000000000000000e07b7b35ac82fecb64218a51e78337f4237fd11f",
            "0x00000000000000000000000000005e3125aba53c5652f9f0ce1a4cf91d8b15ea"
          ],
          "data": "0x00000000000000000000000000000000000000000000000029a2241af62c0000",
          "blockHash": "0xb6fee7c4eed30043e764f253d230d0002a1e166e96a6f0b331d4c1f7e6115db0",
          "blockNumber": "0x8f4133",
          "transactionHash": "0xf911d4237f0d415e978069b4af942ae8cfd11983195e1ef28a2def3bfc06b2d8",
          "transactionIndex": "0x21",
          "logIndex": "0xbfb",
          "removed": false
        },
        {
          "address": "0x0000c304D2934c00Db1d51995b9f6996AffD17c0",
          "topics": [
            "0x8c5be1e5ebec7d5bd14f71427d1e84f3dd0314c0f7b2291e5b200ac8c7c3b925",
            "0x000000000000000000000000e07b7b35ac82fecb64218a51e78337f4237fd11f",
            "0x00000000000000000000000000005e3125aba53c5652f9f0ce1a4cf91d8b15ea"
          ],
          "data": "0x0000000000000000000000000000000000000000000000000000000000000000",
          "blockHash": "0xb6fee7c4eed30043e764f253d230d0002a1e166e96a6f0b331d4c1f7e6115db0",
          "blockNumber": "0x8f4133",
          "transactionHash": "0xf911d4237f0d415e978069b4af942ae8cfd11983195e1ef28a2def3bfc06b2d8",
          "transactionIndex": "0x21",
          "logIndex": "0xbfc",
          "removed": false
        },
        {
          "address": "0x0000c304D2934c00Db1d51995b9f6996AffD17c0",
          "topics": [
            "0xddf252ad1be2c89b69c2b068fc378daa952ba7f163c4a11628f55a4df523b3ef",
            "0x000000000000000000000000e07b7b35ac82fecb64218a51e78337f4237fd11f",
            "0x00000000000000000000000000005e3125aba53c5652f9f0ce1a4cf91d8b15ea"
          ],
          "data": "0x00000000000000000000000000000000000000000000000029a2241af62c0000",
          "blockHash": "0xb6fee7c4eed30043e764f253d230d0002a1e166e96a6f0b331d4c1f7e6115db0",
          "blockNumber": "0x8f4133",
          "transactionHash": "0xf911d4237f0d415e978069b4af942ae8cfd11983195e1ef28a2def3bfc06b2d8",
          "transactionIndex": "0x21",
          "logIndex": "0xbfd",
          "removed": false
        },
        {
          "address": "0x00005E3125aBA53C5652f9F0CE1a4Cf91D8B15eA",
          "topics": [
            "0x7ec1c94701e09b1652f3e1d307e60c4b9ebf99aff8c2079fd1d8c585e031c4e4",
            "0x000000000000000000000000e07b7b35ac82fecb64218a51e78337f4237fd11f",
            "0x0000000000000000000000000000000000000000000000000000000000013881"
          ],
          "data": "0x000000000000000000000000de3089d40f3491de794fbb1eca109fac36f889d000000000000000000000000000000000000000000000000000000000000000c000000000000000000000000000000000000000000000000029a2241af62c000000000000000000000000000000000000000000000000000000000000000249f0000000000000000000000000000000000000000000000000000000000000010000000000000000000000000000000000000000000000000000000000000001c00000000000000000000000000000000000000000000000000000000000000014a4122da72d54e024d4d321f80bfa61af413144c500000000000000000000000000000000000000000000000000000000000000000000000000000000000000a0cb30b7a91bfafdecc5aabe95f3f005b0c706843fcfa340dcecee64fb1056bf54000000000000000000000000de3089d40f3491de794fbb1eca109fac36f889d000000000000000000000000000000000000000000000000000000000000000600000000000000000000000000000000000000000000000000000000000000020000000000000000000000000de3089d40f3491de794fbb1eca109fac36f889d0000000000000000000000000000000000000000000000000000000000000004000000000000000000000000000000000000000000000000000000000000000200000000000000000000000000000000000000000000000000000000000000000",
          "blockHash": "0xb6fee7c4eed30043e764f253d230d0002a1e166e96a6f0b331d4c1f7e6115db0",
          "blockNumber": "0x8f4133",
          "transactionHash": "0xf911d4237f0d415e978069b4af942ae8cfd11983195e1ef28a2def3bfc06b2d8",
          "transactionIndex": "0x21",
          "logIndex": "0xbfe",
          "removed": false
        }
      ],
      "status": "0x1",
      "logsBloom": "0x10000000000000000000000000000000000800008000000000000000000000000200000000000000000000000000000000000000100000000000000000200040000000000000008000000008000000000000800000000000000000000080000000001000002000000000000000000000000040000000000000840010000000000000000000000000000000000000000200000000001000000000000000000000020000000000000000000000000000000000000000000000002000000000000000000002000000000000000000000010000000000100000000000000000000000010000000000000000000000000040000020000000000000000000000000000",
      "effectiveGasPrice": "0x6b05362b"
    },
    {
      "transactionHash": "0xbdc9938b3aa56d0d900f97362e7366403bf1f6a944f2997633cbc3440a0bd655",
      "transactionIndex": "0x22",
      "blockHash": "0xb6fee7c4eed30043e764f253d230d0002a1e166e96a6f0b331d4c1f7e6115db0",
      "blockNumber": "0x8f4133",
      "from": "0xDe3089d40F3491De794fBb1ECA109fAc36F889d0",
      "to": "0x0000c304D2934c00Db1d51995b9f6996AffD17c0",
      "cumulativeGasUsed": "0xeb6db8",
      "gasUsed": "0xb72e",
      "contractAddress": null,
      "logs": [
        {
          "address": "0x0000c304D2934c00Db1d51995b9f6996AffD17c0",
          "topics": [
            "0x8c5be1e5ebec7d5bd14f71427d1e84f3dd0314c0f7b2291e5b200ac8c7c3b925",
            "0x000000000000000000000000de3089d40f3491de794fbb1eca109fac36f889d0",
            "0x00000000000000000000000086695f03264e4676b896cdd590e013815f3493b2"
          ],
          "data": "0x00000000000000000000000000000000000000000000000029a2241af62c0000",
          "blockHash": "0xb6fee7c4eed30043e764f253d230d0002a1e166e96a6f0b331d4c1f7e6115db0",
          "blockNumber": "0x8f4133",
          "transactionHash": "0xbdc9938b3aa56d0d900f97362e7366403bf1f6a944f2997633cbc3440a0bd655",
          "transactionIndex": "0x22",
          "logIndex": "0xbff",
          "removed": false
        }
      ],
      "status": "0x1",
      "logsBloom": "0x10000000000000000000000000000000000000000000000000000000000000000000000000000000000000000000000000200000100000000000000000200040000000000000000000000000000000000000000000000000000000000000000000000000000000000000000000000000000000000000080000000000000000000000000000000000000000000000000000000000001020000000000000000000020000000000000000000000000000000000000000000000000000000000000000000000000000000000000000000010000000000000000000000000000000000010000000000000000000000000040000000000000000000000000000000000",
      "effectiveGasPrice": "0x6b05362b"
    },
    {
      "transactionHash": "0x0b1ce5d419eacc41b8377df465c8be571cbc5afe31b2544861689590f321e91c",
      "transactionIndex": "0x23",
      "blockHash": "0xb6fee7c4eed30043e764f253d230d0002a1e166e96a6f0b331d4c1f7e6115db0",
      "blockNumber": "0x8f4133",
      "from": "0xDe3089d40F3491De794fBb1ECA109fAc36F889d0",
      "to": "0x86695F03264E4676B896cdD590e013815f3493b2",
      "cumulativeGasUsed": "0xece368",
      "gasUsed": "0x175b0",
      "contractAddress": null,
      "logs": [
        {
          "address": "0x0000c304D2934c00Db1d51995b9f6996AffD17c0",
          "topics": [
            "0x8c5be1e5ebec7d5bd14f71427d1e84f3dd0314c0f7b2291e5b200ac8c7c3b925",
            "0x000000000000000000000000de3089d40f3491de794fbb1eca109fac36f889d0",
            "0x00000000000000000000000086695f03264e4676b896cdd590e013815f3493b2"
          ],
          "data": "0x0000000000000000000000000000000000000000000000000000000000000000",
          "blockHash": "0xb6fee7c4eed30043e764f253d230d0002a1e166e96a6f0b331d4c1f7e6115db0",
          "blockNumber": "0x8f4133",
          "transactionHash": "0x0b1ce5d419eacc41b8377df465c8be571cbc5afe31b2544861689590f321e91c",
          "transactionIndex": "0x23",
          "logIndex": "0xc00",
          "removed": false
        },
        {
          "address": "0x0000c304D2934c00Db1d51995b9f6996AffD17c0",
          "topics": [
            "0xddf252ad1be2c89b69c2b068fc378daa952ba7f163c4a11628f55a4df523b3ef",
            "0x000000000000000000000000de3089d40f3491de794fbb1eca109fac36f889d0",
            "0x00000000000000000000000086695f03264e4676b896cdd590e013815f3493b2"
          ],
          "data": "0x00000000000000000000000000000000000000000000000029a2241af62c0000",
          "blockHash": "0xb6fee7c4eed30043e764f253d230d0002a1e166e96a6f0b331d4c1f7e6115db0",
          "blockNumber": "0x8f4133",
          "transactionHash": "0x0b1ce5d419eacc41b8377df465c8be571cbc5afe31b2544861689590f321e91c",
          "transactionIndex": "0x23",
          "logIndex": "0xc01",
          "removed": false
        },
        {
          "address": "0x0000c304D2934c00Db1d51995b9f6996AffD17c0",
          "topics": [
            "0x8c5be1e5ebec7d5bd14f71427d1e84f3dd0314c0f7b2291e5b200ac8c7c3b925",
            "0x00000000000000000000000086695f03264e4676b896cdd590e013815f3493b2",
            "0x00000000000000000000000000005e3125aba53c5652f9f0ce1a4cf91d8b15ea"
          ],
          "data": "0x00000000000000000000000000000000000000000000000029a2241af62c0000",
          "blockHash": "0xb6fee7c4eed30043e764f253d230d0002a1e166e96a6f0b331d4c1f7e6115db0",
          "blockNumber": "0x8f4133",
          "transactionHash": "0x0b1ce5d419eacc41b8377df465c8be571cbc5afe31b2544861689590f321e91c",
          "transactionIndex": "0x23",
          "logIndex": "0xc02",
          "removed": false
        },
        {
          "address": "0x0000c304D2934c00Db1d51995b9f6996AffD17c0",
          "topics": [
            "0x8c5be1e5ebec7d5bd14f71427d1e84f3dd0314c0f7b2291e5b200ac8c7c3b925",
            "0x00000000000000000000000086695f03264e4676b896cdd590e013815f3493b2",
            "0x00000000000000000000000000005e3125aba53c5652f9f0ce1a4cf91d8b15ea"
          ],
          "data": "0x0000000000000000000000000000000000000000000000000000000000000000",
          "blockHash": "0xb6fee7c4eed30043e764f253d230d0002a1e166e96a6f0b331d4c1f7e6115db0",
          "blockNumber": "0x8f4133",
          "transactionHash": "0x0b1ce5d419eacc41b8377df465c8be571cbc5afe31b2544861689590f321e91c",
          "transactionIndex": "0x23",
          "logIndex": "0xc03",
          "removed": false
        },
        {
          "address": "0x0000c304D2934c00Db1d51995b9f6996AffD17c0",
          "topics": [
            "0xddf252ad1be2c89b69c2b068fc378daa952ba7f163c4a11628f55a4df523b3ef",
            "0x00000000000000000000000086695f03264e4676b896cdd590e013815f3493b2",
            "0x00000000000000000000000000005e3125aba53c5652f9f0ce1a4cf91d8b15ea"
          ],
          "data": "0x00000000000000000000000000000000000000000000000029a2241af62c0000",
          "blockHash": "0xb6fee7c4eed30043e764f253d230d0002a1e166e96a6f0b331d4c1f7e6115db0",
          "blockNumber": "0x8f4133",
          "transactionHash": "0x0b1ce5d419eacc41b8377df465c8be571cbc5afe31b2544861689590f321e91c",
          "transactionIndex": "0x23",
          "logIndex": "0xc04",
          "removed": false
        },
        {
          "address": "0x00005E3125aBA53C5652f9F0CE1a4Cf91D8B15eA",
          "topics": [
            "0x7ec1c94701e09b1652f3e1d307e60c4b9ebf99aff8c2079fd1d8c585e031c4e4",
            "0x00000000000000000000000086695f03264e4676b896cdd590e013815f3493b2",
            "0x0000000000000000000000000000000000000000000000000000000000013881"
          ],
          "data": "0x000000000000000000000000de3089d40f3491de794fbb1eca109fac36f889d000000000000000000000000000000000000000000000000000000000000000c000000000000000000000000000000000000000000000000029a2241af62c000000000000000000000000000000000000000000000000000000000000000493e0000000000000000000000000000000000000000000000000000000000000010000000000000000000000000000000000000000000000000000000000000001a00000000000000000000000000000000000000000000000000000000000000014f127fef5eba2de47fbff7011d330eda4a5376de500000000000000000000000000000000000000000000000000000000000000000000000000000000000000806e0182194bb1deba01849afd3e035a0b70ce7cb069e482ee663519c76cf569b40000000000000000000000000000000000000000000000000000000000000040000000000000000000000000000000000000000000000000000000000000001948656c6c6f2c2043726f73732d436861696e20576f726c642100000000000000000000000000000000000000000000000000000000000000000000000000004000000000000000000000000000000000000000000000000000000000000000200000000000000000000000000000000000000000000000000000000000000000",
          "blockHash": "0xb6fee7c4eed30043e764f253d230d0002a1e166e96a6f0b331d4c1f7e6115db0",
          "blockNumber": "0x8f4133",
          "transactionHash": "0x0b1ce5d419eacc41b8377df465c8be571cbc5afe31b2544861689590f321e91c",
          "transactionIndex": "0x23",
          "logIndex": "0xc05",
          "removed": false
        }
      ],
      "status": "0x1",
      "logsBloom": "0x10000000000000000000000000000000000800000000000000000000000000000000000000000000000000000000000000200000100000000000000000200040000000000000008000000008000000000000800000000000000000000080000000001000002000000000000000000000000040000000080000840010000000000000000000000000000000000000000200000000001020000000000000000000020000000000000000000000000000000000000000000000002000000000000000000002000000000000000000000010000000000100000000000000000000000010000000000000000000000000040000000000000000000000000000000000",
      "effectiveGasPrice": "0x6b05362b"
    }
  ],
  "libraries": [],
  "pending": [],
  "returns": {},
  "timestamp": 1690029884,
  "chain": 5,
  "multi": false,
  "commit": "2a7742d"
}