{
  "transactions": [
    {
      "hash": "0x0ae4c19dd025717b4e585c96af63f93b6fe84c8dd39d303d7869a11f77bdea52",
      "transactionType": "CALL",
      "contractName": "ZetaEth",
      "contractAddress": "0x0000c304D2934c00Db1d51995b9f6996AffD17c0",
      "function": "approve(address,uint256):(bool)",
      "arguments": [
        "0x3C73a767B352E4aED3c2c12f191e4908a14B062b",
        "3000000000000000000"
      ],
      "transaction": {
        "type": "0x00",
        "from": "0xde3089d40f3491de794fbb1eca109fac36f889d0",
        "to": "0x0000c304d2934c00db1d51995b9f6996affd17c0",
        "gas": "0xfd03",
        "value": "0x0",
        "data": "0x095ea7b30000000000000000000000003c73a767b352e4aed3c2c12f191e4908a14b062b00000000000000000000000000000000000000000000000029a2241af62c0000",
        "nonce": "0x5b"
      },
      "additionalContracts": [],
      "isFixedGasLimit": false
    },
    {
      "hash": "0xe13ed0da4700f52540cf55fe28cf7ab32772801aec46bb3556430a60ead09575",
      "transactionType": "CALL",
      "contractName": "FootyDAOTokenAdapter",
      "contractAddress": "0x3C73a767B352E4aED3c2c12f191e4908a14B062b",
      "function": "delegate(address)",
      "arguments": [
        "0xDe3089d40F3491De794fBb1ECA109fAc36F889d0"
      ],
      "transaction": {
        "type": "0x00",
        "from": "0xde3089d40f3491de794fbb1eca109fac36f889d0",
        "to": "0x3c73a767b352e4aed3c2c12f191e4908a14b062b",
        "gas": "0x22547",
        "value": "0x0",
        "data": "0x5c19a95c000000000000000000000000de3089d40f3491de794fbb1eca109fac36f889d0",
        "nonce": "0x5c"
      },
      "additionalContracts": [],
      "isFixedGasLimit": false
    }
  ],
  "receipts": [
    {
      "transactionHash": "0x0ae4c19dd025717b4e585c96af63f93b6fe84c8dd39d303d7869a11f77bdea52",
      "transactionIndex": "0x25",
      "blockHash": "0x0576d8e613f95c770b4ebcca8abbdff836003b71af6e2964057d6358b23bdebe",
      "blockNumber": "0x8f3e6e",
      "from": "0xDe3089d40F3491De794fBb1ECA109fAc36F889d0",
      "to": "0x0000c304D2934c00Db1d51995b9f6996AffD17c0",
      "cumulativeGasUsed": "0x60b5f5",
      "gasUsed": "0xb72e",
      "contractAddress": null,
      "logs": [
        {
          "address": "0x0000c304D2934c00Db1d51995b9f6996AffD17c0",
          "topics": [
            "0x8c5be1e5ebec7d5bd14f71427d1e84f3dd0314c0f7b2291e5b200ac8c7c3b925",
            "0x000000000000000000000000de3089d40f3491de794fbb1eca109fac36f889d0",
            "0x0000000000000000000000003c73a767b352e4aed3c2c12f191e4908a14b062b"
          ],
          "data": "0x00000000000000000000000000000000000000000000000029a2241af62c0000",
          "blockHash": "0x0576d8e613f95c770b4ebcca8abbdff836003b71af6e2964057d6358b23bdebe",
          "blockNumber": "0x8f3e6e",
          "transactionHash": "0x0ae4c19dd025717b4e585c96af63f93b6fe84c8dd39d303d7869a11f77bdea52",
          "transactionIndex": "0x25",
          "logIndex": "0x5e",
          "removed": false
        }
      ],
      "status": "0x1",
      "logsBloom": "0x10000000000000000080000000000000000000000000000000000000000000000000000000000000000000000000000000000000180000000010000000200040000000000000000000000000000000000000000000000000000000000000000000000000000000000000000000000000000000000000000000000000000000000000000000000000000000000000000000000000001000000000000000000000020000000000000000000000000000000000000000000000000000000000000000000000000000000000000000000010000000000000000000000000000000000010000000000000000000000000040000000000000000000000000000000000",
      "effectiveGasPrice": "0x14568028f"
    },
    {
      "transactionHash": "0xe13ed0da4700f52540cf55fe28cf7ab32772801aec46bb3556430a60ead09575",
      "transactionIndex": "0x26",
      "blockHash": "0x0576d8e613f95c770b4ebcca8abbdff836003b71af6e2964057d6358b23bdebe",
      "blockNumber": "0x8f3e6e",
      "from": "0xDe3089d40F3491De794fBb1ECA109fAc36F889d0",
      "to": "0x3C73a767B352E4aED3c2c12f191e4908a14B062b",
      "cumulativeGasUsed": "0x6243a1",
      "gasUsed": "0x18dac",
      "contractAddress": null,
      "logs": [
        {
          "address": "0x0000c304D2934c00Db1d51995b9f6996AffD17c0",
          "topics": [
            "0x8c5be1e5ebec7d5bd14f71427d1e84f3dd0314c0f7b2291e5b200ac8c7c3b925",
            "0x000000000000000000000000de3089d40f3491de794fbb1eca109fac36f889d0",
            "0x0000000000000000000000003c73a767b352e4aed3c2c12f191e4908a14b062b"
          ],
          "data": "0x0000000000000000000000000000000000000000000000000000000000000000",
          "blockHash": "0x0576d8e613f95c770b4ebcca8abbdff836003b71af6e2964057d6358b23bdebe",
          "blockNumber": "0x8f3e6e",
          "transactionHash": "0xe13ed0da4700f52540cf55fe28cf7ab32772801aec46bb3556430a60ead09575",
          "transactionIndex": "0x26",
          "logIndex": "0x5f",
          "removed": false
        },
        {
          "address": "0x0000c304D2934c00Db1d51995b9f6996AffD17c0",
          "topics": [
            "0xddf252ad1be2c89b69c2b068fc378daa952ba7f163c4a11628f55a4df523b3ef",
            "0x000000000000000000000000de3089d40f3491de794fbb1eca109fac36f889d0",
            "0x0000000000000000000000003c73a767b352e4aed3c2c12f191e4908a14b062b"
          ],
          "data": "0x00000000000000000000000000000000000000000000000029a2241af62c0000",
          "blockHash": "0x0576d8e613f95c770b4ebcca8abbdff836003b71af6e2964057d6358b23bdebe",
          "blockNumber": "0x8f3e6e",
          "transactionHash": "0xe13ed0da4700f52540cf55fe28cf7ab32772801aec46bb3556430a60ead09575",
          "transactionIndex": "0x26",
          "logIndex": "0x60",
          "removed": false
        },
        {
          "address": "0x0000c304D2934c00Db1d51995b9f6996AffD17c0",
          "topics": [
            "0x8c5be1e5ebec7d5bd14f71427d1e84f3dd0314c0f7b2291e5b200ac8c7c3b925",
            "0x0000000000000000000000003c73a767b352e4aed3c2c12f191e4908a14b062b",
            "0x00000000000000000000000000005e3125aba53c5652f9f0ce1a4cf91d8b15ea"
          ],
          "data": "0x00000000000000000000000000000000000000000000000029a2241af62c0000",
          "blockHash": "0x0576d8e613f95c770b4ebcca8abbdff836003b71af6e2964057d6358b23bdebe",
          "blockNumber": "0x8f3e6e",
          "transactionHash": "0xe13ed0da4700f52540cf55fe28cf7ab32772801aec46bb3556430a60ead09575",
          "transactionIndex": "0x26",
          "logIndex": "0x61",
          "removed": false
        },
        {
          "address": "0x0000c304D2934c00Db1d51995b9f6996AffD17c0",
          "topics": [
            "0x8c5be1e5ebec7d5bd14f71427d1e84f3dd0314c0f7b2291e5b200ac8c7c3b925",
            "0x0000000000000000000000003c73a767b352e4aed3c2c12f191e4908a14b062b",
            "0x00000000000000000000000000005e3125aba53c5652f9f0ce1a4cf91d8b15ea"
          ],
          "data": "0x0000000000000000000000000000000000000000000000000000000000000000",
          "blockHash": "0x0576d8e613f95c770b4ebcca8abbdff836003b71af6e2964057d6358b23bdebe",
          "blockNumber": "0x8f3e6e",
          "transactionHash": "0xe13ed0da4700f52540cf55fe28cf7ab32772801aec46bb3556430a60ead09575",
          "transactionIndex": "0x26",
          "logIndex": "0x62",
          "removed": false
        },
        {
          "address": "0x0000c304D2934c00Db1d51995b9f6996AffD17c0",
          "topics": [
            "0xddf252ad1be2c89b69c2b068fc378daa952ba7f163c4a11628f55a4df523b3ef",
            "0x0000000000000000000000003c73a767b352e4aed3c2c12f191e4908a14b062b",
            "0x00000000000000000000000000005e3125aba53c5652f9f0ce1a4cf91d8b15ea"
          ],
          "data": "0x00000000000000000000000000000000000000000000000029a2241af62c0000",
          "blockHash": "0x0576d8e613f95c770b4ebcca8abbdff836003b71af6e2964057d6358b23bdebe",
          "blockNumber": "0x8f3e6e",
          "transactionHash": "0xe13ed0da4700f52540cf55fe28cf7ab32772801aec46bb3556430a60ead09575",
          "transactionIndex": "0x26",
          "logIndex": "0x63",
          "removed": false
        },
        {
          "address": "0x00005E3125aBA53C5652f9F0CE1a4Cf91D8B15eA",
          "topics": [
            "0x7ec1c94701e09b1652f3e1d307e60c4b9ebf99aff8c2079fd1d8c585e031c4e4",
            "0x0000000000000000000000003c73a767b352e4aed3c2c12f191e4908a14b062b",
            "0x0000000000000000000000000000000000000000000000000000000000013881"
          ],
          "data": "0x000000000000000000000000de3089d40f3491de794fbb1eca109fac36f889d000000000000000000000000000000000000000000000000000000000000000c000000000000000000000000000000000000000000000000029a2241af62c000000000000000000000000000000000000000000000000000000000000000249f0000000000000000000000000000000000000000000000000000000000000010000000000000000000000000000000000000000000000000000000000000001c00000000000000000000000000000000000000000000000000000000000000020000000000000000000000000724ebd5c7f4b54ab80684ad610d583545abcaeff00000000000000000000000000000000000000000000000000000000000000a0cb30b7a91bfafdecc5aabe95f3f005b0c706843fcfa340dcecee64fb1056bf54000000000000000000000000de3089d40f3491de794fbb1eca109fac36f889d000000000000000000000000000000000000000000000000000000000000000600000000000000000000000000000000000000000000000000000000000000020000000000000000000000000de3089d40f3491de794fbb1eca109fac36f889d0000000000000000000000000000000000000000000000000000000000000004000000000000000000000000000000000000000000000000000000000000000200000000000000000000000000000000000000000000000000000000000000000",
          "blockHash": "0x0576d8e613f95c770b4ebcca8abbdff836003b71af6e2964057d6358b23bdebe",
          "blockNumber": "0x8f3e6e",
          "transactionHash": "0xe13ed0da4700f52540cf55fe28cf7ab32772801aec46bb3556430a60ead09575",
          "transactionIndex": "0x26",
          "logIndex": "0x64",
          "removed": false
        }
      ],
      "status": "0x1",
      "logsBloom": "0x10000000000000000080000000000000000800000000000000000000000000000000000000000000000000000000000000000000180000000010000000200040000000000000008000000008000000000000800000000000000000000080000000001000002000000000000000000000000040000000000000840010000000000000000000000000000000000000000200000000001000000000000000000000020000000000000000000000000000000000000000000000002000000000000000000002000000000000000000000010000000000100000000000000000000000010000000000000000000000000040000000000000000000000000000000000",
      "effectiveGasPrice": "0x14568028f"
    }
  ],
  "libraries": [],
  "pending": [],
  "returns": {},
  "timestamp": 1690019164,
  "chain": 5,
  "multi": false,
  "commit": "06221d4"
}