{
  "transactions": [
    {
      "hash": "0x6026205f0a0f1c0e8eaa0a00ce17c90c51109dcc3a9973e207ba7c9b94d43813",
      "transactionType": "CALL",
      "contractName": "ZetaEth",
      "contractAddress": "0x0000c304D2934c00Db1d51995b9f6996AffD17c0",
      "function": "approve(address,uint256):(bool)",
      "arguments": [
        "0x8d48c62d029e082F0376f5Be47A8d8096eE8856b",
        "3000000000000000000"
      ],
      "transaction": {
        "type": "0x00",
        "from": "0xde3089d40f3491de794fbb1eca109fac36f889d0",
        "to": "0x0000c304d2934c00db1d51995b9f6996affd17c0",
        "gas": "0xfd03",
        "value": "0x0",
        "data": "0x095ea7b30000000000000000000000008d48c62d029e082f0376f5be47a8d8096ee8856b00000000000000000000000000000000000000000000000029a2241af62c0000",
        "nonce": "0x65"
      },
      "additionalContracts": [],
      "isFixedGasLimit": false
    },
    {
      "hash": "0x2e84d7587e7ad229bb6722e9e0886625d0bd72686a4ccfe40181f9778ddc3097",
      "transactionType": "CALL",
      "contractName": "FootyDAOTokenAdapter",
      "contractAddress": "0x8d48c62d029e082F0376f5Be47A8d8096eE8856b",
      "function": "delegate(address)",
      "arguments": [
        "0xDe3089d40F3491De794fBb1ECA109fAc36F889d0"
      ],
      "transaction": {
        "type": "0x00",
        "from": "0xde3089d40f3491de794fbb1eca109fac36f889d0",
        "to": "0x8d48c62d029e082f0376f5be47a8d8096ee8856b",
        "gas": "0x22547",
        "value": "0x0",
        "data": "0x5c19a95c000000000000000000000000de3089d40f3491de794fbb1eca109fac36f889d0",
        "nonce": "0x66"
      },
      "additionalContracts": [],
      "isFixedGasLimit": false
    }
  ],
  "receipts": [
    {
      "transactionHash": "0x6026205f0a0f1c0e8eaa0a00ce17c90c51109dcc3a9973e207ba7c9b94d43813",
      "transactionIndex": "0x45",
      "blockHash": "0xa4bf18cf21af753225d202745e303156aaa11f4e0b0cfd2d1cd23f683ecc6694",
      "blockNumber": "0x8f3ed6",
      "from": "0xDe3089d40F3491De794fBb1ECA109fAc36F889d0",
      "to": "0x0000c304D2934c00Db1d51995b9f6996AffD17c0",
      "cumulativeGasUsed": "0xac9100",
      "gasUsed": "0xb72e",
      "contractAddress": null,
      "logs": [
        {
          "address": "0x0000c304D2934c00Db1d51995b9f6996AffD17c0",
          "topics": [
            "0x8c5be1e5ebec7d5bd14f71427d1e84f3dd0314c0f7b2291e5b200ac8c7c3b925",
            "0x000000000000000000000000de3089d40f3491de794fbb1eca109fac36f889d0",
            "0x0000000000000000000000008d48c62d029e082f0376f5be47a8d8096ee8856b"
          ],
          "data": "0x00000000000000000000000000000000000000000000000029a2241af62c0000",
          "blockHash": "0xa4bf18cf21af753225d202745e303156aaa11f4e0b0cfd2d1cd23f683ecc6694",
          "blockNumber": "0x8f3ed6",
          "transactionHash": "0x6026205f0a0f1c0e8eaa0a00ce17c90c51109dcc3a9973e207ba7c9b94d43813",
          "transactionIndex": "0x45",
          "logIndex": "0xd4",
          "removed": false
        }
      ],
      "status": "0x1",
      "logsBloom": "0x10000000000000000000000000000000000000000000000000000000000000000000000000000000000000000000000000000000100080000000000000200040000000000000000000000000000000000000000000000000000000000000000000000000000000000000000000000000000000000000000000000000000000000000000000000000000000000000000000000000001000000000000004000000020000000000000000000000000000000000000000000000000000000000000000000000000000000000000000000010000000000000000000000000001000000010000000000000000000000000040000000000000000000000000000000000",
      "type": "0x0",
      "effectiveGasPrice": "0x11783cf47"
    },
    {
      "transactionHash": "0x2e84d7587e7ad229bb6722e9e0886625d0bd72686a4ccfe40181f9778ddc3097",
      "transactionIndex": "0x46",
      "blockHash": "0xa4bf18cf21af753225d202745e303156aaa11f4e0b0cfd2d1cd23f683ecc6694",
      "blockNumber": "0x8f3ed6",
      "from": "0xDe3089d40F3491De794fBb1ECA109fAc36F889d0",
      "to": "0x8d48c62d029e082F0376f5Be47A8d8096eE8856b",
      "cumulativeGasUsed": "0xae1eac",
      "gasUsed": "0x18dac",
      "contractAddress": null,
      "logs": [
        {
          "address": "0x0000c304D2934c00Db1d51995b9f6996AffD17c0",
          "topics": [
            "0x8c5be1e5ebec7d5bd14f71427d1e84f3dd0314c0f7b2291e5b200ac8c7c3b925",
            "0x000000000000000000000000de3089d40f3491de794fbb1eca109fac36f889d0",
            "0x0000000000000000000000008d48c62d029e082f0376f5be47a8d8096ee8856b"
          ],
          "data": "0x0000000000000000000000000000000000000000000000000000000000000000",
          "blockHash": "0xa4bf18cf21af753225d202745e303156aaa11f4e0b0cfd2d1cd23f683ecc6694",
          "blockNumber": "0x8f3ed6",
          "transactionHash": "0x2e84d7587e7ad229bb6722e9e0886625d0bd72686a4ccfe40181f9778ddc3097",
          "transactionIndex": "0x46",
          "logIndex": "0xd5",
          "removed": false
        },
        {
          "address": "0x0000c304D2934c00Db1d51995b9f6996AffD17c0",
          "topics": [
            "0xddf252ad1be2c89b69c2b068fc378daa952ba7f163c4a11628f55a4df523b3ef",
            "0x000000000000000000000000de3089d40f3491de794fbb1eca109fac36f889d0",
            "0x0000000000000000000000008d48c62d029e082f0376f5be47a8d8096ee8856b"
          ],
          "data": "0x00000000000000000000000000000000000000000000000029a2241af62c0000",
          "blockHash": "0xa4bf18cf21af753225d202745e303156aaa11f4e0b0cfd2d1cd23f683ecc6694",
          "blockNumber": "0x8f3ed6",
          "transactionHash": "0x2e84d7587e7ad229bb6722e9e0886625d0bd72686a4ccfe40181f9778ddc3097",
          "transactionIndex": "0x46",
          "logIndex": "0xd6",
          "removed": false
        },
        {
          "address": "0x0000c304D2934c00Db1d51995b9f6996AffD17c0",
          "topics": [
            "0x8c5be1e5ebec7d5bd14f71427d1e84f3dd0314c0f7b2291e5b200ac8c7c3b925",
            "0x0000000000000000000000008d48c62d029e082f0376f5be47a8d8096ee8856b",
            "0x00000000000000000000000000005e3125aba53c5652f9f0ce1a4cf91d8b15ea"
          ],
          "data": "0x00000000000000000000000000000000000000000000000029a2241af62c0000",
          "blockHash": "0xa4bf18cf21af753225d202745e303156aaa11f4e0b0cfd2d1cd23f683ecc6694",
          "blockNumber": "0x8f3ed6",
          "transactionHash": "0x2e84d7587e7ad229bb6722e9e0886625d0bd72686a4ccfe40181f9778ddc3097",
          "transactionIndex": "0x46",
          "logIndex": "0xd7",
          "removed": false
        },
        {
          "address": "0x0000c304D2934c00Db1d51995b9f6996AffD17c0",
          "topics": [
            "0x8c5be1e5ebec7d5bd14f71427d1e84f3dd0314c0f7b2291e5b200ac8c7c3b925",
            "0x0000000000000000000000008d48c62d029e082f0376f5be47a8d8096ee8856b",
            "0x00000000000000000000000000005e3125aba53c5652f9f0ce1a4cf91d8b15ea"
          ],
          "data": "0x0000000000000000000000000000000000000000000000000000000000000000",
          "blockHash": "0xa4bf18cf21af753225d202745e303156aaa11f4e0b0cfd2d1cd23f683ecc6694",
          "blockNumber": "0x8f3ed6",
          "transactionHash": "0x2e84d7587e7ad229bb6722e9e0886625d0bd72686a4ccfe40181f9778ddc3097",
          "transactionIndex": "0x46",
          "logIndex": "0xd8",
          "removed": false
        },
        {
          "address": "0x0000c304D2934c00Db1d51995b9f6996AffD17c0",
          "topics": [
            "0xddf252ad1be2c89b69c2b068fc378daa952ba7f163c4a11628f55a4df523b3ef",
            "0x0000000000000000000000008d48c62d029e082f0376f5be47a8d8096ee8856b",
            "0x00000000000000000000000000005e3125aba53c5652f9f0ce1a4cf91d8b15ea"
          ],
          "data": "0x00000000000000000000000000000000000000000000000029a2241af62c0000",
          "blockHash": "0xa4bf18cf21af753225d202745e303156aaa11f4e0b0cfd2d1cd23f683ecc6694",
          "blockNumber": "0x8f3ed6",
          "transactionHash": "0x2e84d7587e7ad229bb6722e9e0886625d0bd72686a4ccfe40181f9778ddc3097",
          "transactionIndex": "0x46",
          "logIndex": "0xd9",
          "removed": false
        },
        {
          "address": "0x00005E3125aBA53C5652f9F0CE1a4Cf91D8B15eA",
          "topics": [
            "0x7ec1c94701e09b1652f3e1d307e60c4b9ebf99aff8c2079fd1d8c585e031c4e4",
            "0x0000000000000000000000008d48c62d029e082f0376f5be47a8d8096ee8856b",
            "0x0000000000000000000000000000000000000000000000000000000000013881"
          ],
          "data": "0x000000000000000000000000de3089d40f3491de794fbb1eca109fac36f889d000000000000000000000000000000000000000000000000000000000000000c000000000000000000000000000000000000000000000000029a2241af62c000000000000000000000000000000000000000000000000000000000000000249f0000000000000000000000000000000000000000000000000000000000000010000000000000000000000000000000000000000000000000000000000000001c00000000000000000000000000000000000000000000000000000000000000020000000000000000000000000920b6c3ebcac0cd219c47d5490cf6558a6322bb000000000000000000000000000000000000000000000000000000000000000a0cb30b7a91bfafdecc5aabe95f3f005b0c706843fcfa340dcecee64fb1056bf54000000000000000000000000de3089d40f3491de794fbb1eca109fac36f889d000000000000000000000000000000000000000000000000000000000000000600000000000000000000000000000000000000000000000000000000000000020000000000000000000000000de3089d40f3491de794fbb1eca109fac36f889d0000000000000000000000000000000000000000000000000000000000000004000000000000000000000000000000000000000000000000000000000000000200000000000000000000000000000000000000000000000000000000000000000",
          "blockHash": "0xa4bf18cf21af753225d202745e303156aaa11f4e0b0cfd2d1cd23f683ecc6694",
          "blockNumber": "0x8f3ed6",
          "transactionHash": "0x2e84d7587e7ad229bb6722e9e0886625d0bd72686a4ccfe40181f9778ddc3097",
          "transactionIndex": "0x46",
          "logIndex": "0xda",
          "removed": false
        }
      ],
      "status": "0x1",
      "logsBloom": "0x10000000000000000000000000000000000800000000000000000000000000000000000000000000000000000000000000000000100080000000000000200040000000000000008000000008000000000000800000000000000000000080000000001000002000000000000000000000000040000000000000840010000000000000000000000000000000000000000200000000001000000000000004000000020000000000000000000000000000000000000000000000002000000000000000000002000000000000000000000010000000000100000000000000001000000010000000000000000000000000040000000000000000000000000000000000",
      "type": "0x0",
      "effectiveGasPrice": "0x11783cf47"
    }
  ],
  "libraries": [],
  "pending": [],
  "returns": {},
  "timestamp": 1690020698,
  "chain": 5,
  "multi": false,
  "commit": "06221d4"
}