{
  "transactions": [
    {
      "hash": "0x0ae4c19dd025717b4e585c96af63f93b6fe84c8dd39d303d7869a11f77bdea52",
      "transactionType": "CALL",
      "contractName": "ZetaEth",
      "contractAddress": "0x0000c304D2934c00Db1d51995b9f6996AffD17c0",
      "function": "approve(address,uint256):(bool)",
      "arguments": [
        "0x3C73a767B352E4aED3c2c12f191e4908a14B062b",
        "3000000000000000000"
      ],
      "transaction": {
        "type": "0x00",
        "from": "0xde3089d40f3491de794fbb1eca109fac36f889d0",
        "to": "0x0000c304d2934c00db1d51995b9f6996affd17c0",
        "gas": "0xfd03",
        "value": "0x0",
        "data": "0x095ea7b30000000000000000000000003c73a767b352e4aed3c2c12f191e4908a14b062b00000000000000000000000000000000000000000000000029a2241af62c0000",
        "nonce": "0x5b"
      },
      "additionalContracts": [],
      "isFixedGasLimit": false
    },
    {
      "hash": "0xe13ed0da4700f52540cf55fe28cf7ab32772801aec46bb3556430a60ead09575",
      "transactionType": "CALL",
      "contractName": "FootyDAOTokenAdapter",
      "contractAddress": "0x3C73a767B352E4aED3c2c12f191e4908a14B062b",
      "function": "delegate(address)",
      "arguments": [
        "0xDe3089d40F3491De794fBb1ECA109fAc36F889d0"
      ],
      "transaction": {
        "type": "0x00",
        "from": "0xde3089d40f3491de794fbb1eca109fac36f889d0",
        "to": "0x3c73a767b352e4aed3c2c12f191e4908a14b062b",
        "gas": "0x22547",
        "value": "0x0",
        "data": "0x5c19a95c000000000000000000000000de3089d40f3491de794fbb1eca109fac36f889d0",
        "nonce": "0x5c"
      },
      "additionalContracts": [],
      "isFixedGasLimit": false
    }
  ],
  "receipts": [],
  "libraries": [],
  "pending": [
    "0x0ae4c19dd025717b4e585c96af63f93b6fe84c8dd39d303d7869a11f77bdea52",
    "0xe13ed0da4700f52540cf55fe28cf7ab32772801aec46bb3556430a60ead09575"
  ],
  "returns": {},
  "timestamp": 1690019158,
  "chain": 5,
  "multi": false,
  "commit": "06221d4"
}