{
  "transactions": [
    {
      "hash": "0xdd31bc710cf8b6b65854345c5addfd17f0412138117652e4a433784df48eea50",
      "transactionType": "CALL",
      "contractName": "ZetaEth",
      "contractAddress": "0x0000c304D2934c00Db1d51995b9f6996AffD17c0",
      "function": "approve(address,uint256):(bool)",
      "arguments": [
        "0xE07B7B35AC82fECB64218A51e78337f4237fd11f",
        "3000000000000000000"
      ],
      "transaction": {
        "type": "0x00",
        "from": "0xde3089d40f3491de794fbb1eca109fac36f889d0",
        "to": "0x0000c304d2934c00db1d51995b9f6996affd17c0",
        "gas": "0xfd03",
        "value": "0x0",
        "data": "0x095ea7b3000000000000000000000000e07b7b35ac82fecb64218a51e78337f4237fd11f00000000000000000000000000000000000000000000000029a2241af62c0000",
        "nonce": "0x7b"
      },
      "additionalContracts": [],
      "isFixedGasLimit": false
    },
    {
      "hash": "0xf911d4237f0d415e978069b4af942ae8cfd11983195e1ef28a2def3bfc06b2d8",
      "transactionType": "CALL",
      "contractName": "FootyDAOTokenAdapter",
      "contractAddress": "0xE07B7B35AC82fECB64218A51e78337f4237fd11f",
      "function": "delegate(address)",
      "arguments": [
        "0xDe3089d40F3491De794fBb1ECA109fAc36F889d0"
      ],
      "transaction": {
        "type": "0x00",
        "from": "0xde3089d40f3491de794fbb1eca109fac36f889d0",
        "to": "0xe07b7b35ac82fecb64218a51e78337f4237fd11f",
        "gas": "0x21b68",
        "value": "0x0",
        "data": "0x5c19a95c000000000000000000000000de3089d40f3491de794fbb1eca109fac36f889d0",
        "nonce": "0x7c"
      },
      "additionalContracts": [],
      "isFixedGasLimit": false
    },
    {
      "hash": "0xbdc9938b3aa56d0d900f97362e7366403bf1f6a944f2997633cbc3440a0bd655",
      "transactionType": "CALL",
      "contractName": "ZetaEth",
      "contractAddress": "0x0000c304D2934c00Db1d51995b9f6996AffD17c0",
      "function": "approve(address,uint256):(bool)",
      "arguments": [
        "0x86695F03264E4676B896cdD590e013815f3493b2",
        "3000000000000000000"
      ],
      "transaction": {
        "type": "0x00",
        "from": "0xde3089d40f3491de794fbb1eca109fac36f889d0",
        "to": "0x0000c304d2934c00db1d51995b9f6996affd17c0",
        "gas": "0xfd03",
        "value": "0x0",
        "data": "0x095ea7b300000000000000000000000086695f03264e4676b896cdd590e013815f3493b200000000000000000000000000000000000000000000000029a2241af62c0000",
        "nonce": "0x7d"
      },
      "additionalContracts": [],
      "isFixedGasLimit": false
    },
    {
      "hash": "0x0b1ce5d419eacc41b8377df465c8be571cbc5afe31b2544861689590f321e91c",
      "transactionType": "CALL",
      "contractName": "CrossChainMessage",
      "contractAddress": "0x86695F03264E4676B896cdD590e013815f3493b2",
      "function": "sendHelloWorld(uint256)",
      "arguments": [
        "80001"
      ],
      "transaction": {
        "type": "0x00",
        "from": "0xde3089d40f3491de794fbb1eca109fac36f889d0",
        "to": "0x86695f03264e4676b896cdd590e013815f3493b2",
        "gas": "0x20427",
        "value": "0x0",
        "data": "0x2e61b1c80000000000000000000000000000000000000000000000000000000000013881",
        "nonce": "0x7e"
      },
      "additionalContracts": [],
      "isFixedGasLimit": false
    }
  ],
  "receipts": [],
  "libraries": [],
  "pending": [
    "0xdd31bc710cf8b6b65854345c5addfd17f0412138117652e4a433784df48eea50",
    "0xf911d4237f0d415e978069b4af942ae8cfd11983195e1ef28a2def3bfc06b2d8",
    "0xbdc9938b3aa56d0d900f97362e7366403bf1f6a944f2997633cbc3440a0bd655",
    "0x0b1ce5d419eacc41b8377df465c8be571cbc5afe31b2544861689590f321e91c"
  ],
  "returns": {},
  "timestamp": 1690029872,
  "chain": 5,
  "multi": false,
  "commit": "2a7742d"
}