{
  "transactions": [
    {
      "hash": "0x112bb17d6d0ca683b521924df1515fe78c0d5e3802c7261055470f92178298e7",
      "transactionType": "CALL",
      "contractName": "ZetaEth",
      "contractAddress": "0x0000c304D2934c00Db1d51995b9f6996AffD17c0",
      "function": "approve(address,uint256):(bool)",
      "arguments": [
        "0xbE1bA58AAf83B7db6D6320B8C87B4DDd991cD8c6",
        "3000000000000000000"
      ],
      "transaction": {
        "type": "0x00",
        "from": "0xde3089d40f3491de794fbb1eca109fac36f889d0",
        "to": "0x0000c304d2934c00db1d51995b9f6996affd17c0",
        "gas": "0xfd03",
        "value": "0x0",
        "data": "0x095ea7b3000000000000000000000000be1ba58aaf83b7db6d6320b8c87b4ddd991cd8c600000000000000000000000000000000000000000000000029a2241af62c0000",
        "nonce": "0x8b"
      },
      "additionalContracts": [],
      "isFixedGasLimit": false
    },
    {
      "hash": "0xf9804cd24e75459d446c7e5225613b504db1b958294bed07c048fe3c16833a81",
      "transactionType": "CALL",
      "contractName": "FootyDAOTokenAdapter",
      "contractAddress": "0xbE1bA58AAf83B7db6D6320B8C87B4DDd991cD8c6",
      "function": "delegate(address)",
      "arguments": [
        "0xDe3089d40F3491De794fBb1ECA109fAc36F889d0"
      ],
      "transaction": {
        "type": "0x00",
        "from": "0xde3089d40f3491de794fbb1eca109fac36f889d0",
        "to": "0xbe1ba58aaf83b7db6d6320b8c87b4ddd991cd8c6",
        "gas": "0x21b68",
        "value": "0x0",
        "data": "0x5c19a95c000000000000000000000000de3089d40f3491de794fbb1eca109fac36f889d0",
        "nonce": "0x8c"
      },
      "additionalContracts": [],
      "isFixedGasLimit": false
    }
  ],
  "receipts": [
    {
      "transactionHash": "0x112bb17d6d0ca683b521924df1515fe78c0d5e3802c7261055470f92178298e7",
      "transactionIndex": "0x54",
      "blockHash": "0x6a9e8bf78ca7a19983d1d367c4f7019cb1f12ef52de78a6b71d07f0d89be8c9c",
      "blockNumber": "0x8f418b",
      "from": "0xDe3089d40F3491De794fBb1ECA109fAc36F889d0",
      "to": "0x0000c304D2934c00Db1d51995b9f6996AffD17c0",
      "cumulativeGasUsed": "0x1682f4e",
      "gasUsed": "0xb72e",
      "contractAddress": null,
      "logs": [
        {
          "address": "0x0000c304D2934c00Db1d51995b9f6996AffD17c0",
          "topics": [
            "0x8c5be1e5ebec7d5bd14f71427d1e84f3dd0314c0f7b2291e5b200ac8c7c3b925",
            "0x000000000000000000000000de3089d40f3491de794fbb1eca109fac36f889d0",
            "0x000000000000000000000000be1ba58aaf83b7db6d6320b8c87b4ddd991cd8c6"
          ],
          "data": "0x00000000000000000000000000000000000000000000000029a2241af62c0000",
          "blockHash": "0x6a9e8bf78ca7a19983d1d367c4f7019cb1f12ef52de78a6b71d07f0d89be8c9c",
          "blockNumber": "0x8f418b",
          "transactionHash": "0x112bb17d6d0ca683b521924df1515fe78c0d5e3802c7261055470f92178298e7",
          "transactionIndex": "0x54",
          "logIndex": "0x126",
          "removed": false
        }
      ],
      "status": "0x1",
      "logsBloom": "0x10000000000000000000000000000000000000000000000000000000000000000000000000000000000000000000000000000000100000000000000000200040000000000000000000000000000000000000000000000000000000000000000000000000000000000000000000000000000000000000000000000000000000000000000000000000000000000000000000000001001000000000000000000000020000000000000000000000000000000000000000000000000000000000000040000000000000000000000000000010000000000000000000000000000000000010000000000000000000000200040000000000000000000000000000000000",
      "type": "0x0",
      "effectiveGasPrice": "0x5b09da02"
    },
    {
      "transactionHash": "0xf9804cd24e75459d446c7e5225613b504db1b958294bed07c048fe3c16833a81",
      "transactionIndex": "0x55",
      "blockHash": "0x6a9e8bf78ca7a19983d1d367c4f7019cb1f12ef52de78a6b71d07f0d89be8c9c",
      "blockNumber": "0x8f418b",
      "from": "0xDe3089d40F3491De794fBb1ECA109fAc36F889d0",
      "to": "0xbE1bA58AAf83B7db6D6320B8C87B4DDd991cD8c6",
      "cumulativeGasUsed": "0x169b5d4",
      "gasUsed": "0x18686",
      "contractAddress": null,
      "logs": [
        {
          "address": "0x0000c304D2934c00Db1d51995b9f6996AffD17c0",
          "topics": [
            "0x8c5be1e5ebec7d5bd14f71427d1e84f3dd0314c0f7b2291e5b200ac8c7c3b925",
            "0x000000000000000000000000de3089d40f3491de794fbb1eca109fac36f889d0",
            "0x000000000000000000000000be1ba58aaf83b7db6d6320b8c87b4ddd991cd8c6"
          ],
          "data": "0x0000000000000000000000000000000000000000000000000000000000000000",
          "blockHash": "0x6a9e8bf78ca7a19983d1d367c4f7019cb1f12ef52de78a6b71d07f0d89be8c9c",
          "blockNumber": "0x8f418b",
          "transactionHash": "0xf9804cd24e75459d446c7e5225613b504db1b958294bed07c048fe3c16833a81",
          "transactionIndex": "0x55",
          "logIndex": "0x127",
          "removed": false
        },
        {
          "address": "0x0000c304D2934c00Db1d51995b9f6996AffD17c0",
          "topics": [
            "0xddf252ad1be2c89b69c2b068fc378daa952ba7f163c4a11628f55a4df523b3ef",
            "0x000000000000000000000000de3089d40f3491de794fbb1eca109fac36f889d0",
            "0x000000000000000000000000be1ba58aaf83b7db6d6320b8c87b4ddd991cd8c6"
          ],
          "data": "0x00000000000000000000000000000000000000000000000029a2241af62c0000",
          "blockHash": "0x6a9e8bf78ca7a19983d1d367c4f7019cb1f12ef52de78a6b71d07f0d89be8c9c",
          "blockNumber": "0x8f418b",
          "transactionHash": "0xf9804cd24e75459d446c7e5225613b504db1b958294bed07c048fe3c16833a81",
          "transactionIndex": "0x55",
          "logIndex": "0x128",
          "removed": false
        },
        {
          "address": "0x0000c304D2934c00Db1d51995b9f6996AffD17c0",
          "topics": [
            "0x8c5be1e5ebec7d5bd14f71427d1e84f3dd0314c0f7b2291e5b200ac8c7c3b925",
            "0x000000000000000000000000be1ba58aaf83b7db6d6320b8c87b4ddd991cd8c6",
            "0x00000000000000000000000000005e3125aba53c5652f9f0ce1a4cf91d8b15ea"
          ],
          "data": "0x00000000000000000000000000000000000000000000000029a2241af62c0000",
          "blockHash": "0x6a9e8bf78ca7a19983d1d367c4f7019cb1f12ef52de78a6b71d07f0d89be8c9c",
          "blockNumber": "0x8f418b",
          "transactionHash": "0xf9804cd24e75459d446c7e5225613b504db1b958294bed07c048fe3c16833a81",
          "transactionIndex": "0x55",
          "logIndex": "0x129",
          "removed": false
        },
        {
          "address": "0x0000c304D2934c00Db1d51995b9f6996AffD17c0",
          "topics": [
            "0x8c5be1e5ebec7d5bd14f71427d1e84f3dd0314c0f7b2291e5b200ac8c7c3b925",
            "0x000000000000000000000000be1ba58aaf83b7db6d6320b8c87b4ddd991cd8c6",
            "0x00000000000000000000000000005e3125aba53c5652f9f0ce1a4cf91d8b15ea"
          ],
          "data": "0x0000000000000000000000000000000000000000000000000000000000000000",
          "blockHash": "0x6a9e8bf78ca7a19983d1d367c4f7019cb1f12ef52de78a6b71d07f0d89be8c9c",
          "blockNumber": "0x8f418b",
          "transactionHash": "0xf9804cd24e75459d446c7e5225613b504db1b958294bed07c048fe3c16833a81",
          "transactionIndex": "0x55",
          "logIndex": "0x12a",
          "removed": false
        },
        {
          "address": "0x0000c304D2934c00Db1d51995b9f6996AffD17c0",
          "topics": [
            "0xddf252ad1be2c89b69c2b068fc378daa952ba7f163c4a11628f55a4df523b3ef",
            "0x000000000000000000000000be1ba58aaf83b7db6d6320b8c87b4ddd991cd8c6",
            "0x00000000000000000000000000005e3125aba53c5652f9f0ce1a4cf91d8b15ea"
          ],
          "data": "0x00000000000000000000000000000000000000000000000029a2241af62c0000",
          "blockHash": "0x6a9e8bf78ca7a19983d1d367c4f7019cb1f12ef52de78a6b71d07f0d89be8c9c",
          "blockNumber": "0x8f418b",
          "transactionHash": "0xf9804cd24e75459d446c7e5225613b504db1b958294bed07c048fe3c16833a81",
          "transactionIndex": "0x55",
          "logIndex": "0x12b",
          "removed": false
        },
        {
          "address": "0x00005E3125aBA53C5652f9F0CE1a4Cf91D8B15eA",
          "topics": [
            "0x7ec1c94701e09b1652f3e1d307e60c4b9ebf99aff8c2079fd1d8c585e031c4e4",
            "0x000000000000000000000000be1ba58aaf83b7db6d6320b8c87b4ddd991cd8c6",
            "0x0000000000000000000000000000000000000000000000000000000000013881"
          ],
          "data": "0x000000000000000000000000de3089d40f3491de794fbb1eca109fac36f889d000000000000000000000000000000000000000000000000000000000000000c000000000000000000000000000000000000000000000000029a2241af62c000000000000000000000000000000000000000000000000000000000000000249f0000000000000000000000000000000000000000000000000000000000000010000000000000000000000000000000000000000000000000000000000000001c0000000000000000000000000000000000000000000000000000000000000001414ebd3c782aa93db2f4dbfb5b4e40831bca511d000000000000000000000000000000000000000000000000000000000000000000000000000000000000000a0cb30b7a91bfafdecc5aabe95f3f005b0c706843fcfa340dcecee64fb1056bf54000000000000000000000000de3089d40f3491de794fbb1eca109fac36f889d000000000000000000000000000000000000000000000000000000000000000600000000000000000000000000000000000000000000000000000000000000020000000000000000000000000de3089d40f3491de794fbb1eca109fac36f889d0000000000000000000000000000000000000000000000000000000000000004000000000000000000000000000000000000000000000000000000000000000200000000000000000000000000000000000000000000000000000000000000000",
          "blockHash": "0x6a9e8bf78ca7a19983d1d367c4f7019cb1f12ef52de78a6b71d07f0d89be8c9c",
          "blockNumber": "0x8f418b",
          "transactionHash": "0xf9804cd24e75459d446c7e5225613b504db1b958294bed07c048fe3c16833a81",
          "transactionIndex": "0x55",
          "logIndex": "0x12c",
          "removed": false
        }
      ],
      "status": "0x1",
      "logsBloom": "0x10000000000000000000000000000000000800000000000000000000000000000000000000000000000000000000000000000000100000000000000000200040000000000000008000000008000000000000800000000000000000000080000000001000002000000000000000000000000040000000000000840010000000000000000000000000000000000000000200000001001000000000000000000000020000000000000000000000000000000000000000000000002000000000000040000002000000000000000000000010000000000100000000000000000000000010000000000000000000000200040000000000000000000000000000000000",
      "type": "0x0",
      "effectiveGasPrice": "0x5b09da02"
    }
  ],
  "libraries": [],
  "pending": [],
  "returns": {},
  "timestamp": 1690031070,
  "chain": 5,
  "multi": false,
  "commit": "2a7742d"
}