{
  "transactions": [
    {
      "hash": "0x9dcf3d25f8546ad9a4e9644cb4ab2a759b187027ad3ccb114aa566642cf851e4",
      "transactionType": "CALL",
      "contractName": "ZetaEth",
      "contractAddress": "0x0000c304D2934c00Db1d51995b9f6996AffD17c0",
      "function": "approve(address,uint256):(bool)",
      "arguments": [
        "0x50889eE374885277d8A888e3562f95566c751483",
        "3000000000000000000"
      ],
      "transaction": {
        "type": "0x00",
        "from": "0xde3089d40f3491de794fbb1eca109fac36f889d0",
        "to": "0x0000c304d2934c00db1d51995b9f6996affd17c0",
        "gas": "0xfd03",
        "value": "0x0",
        "data": "0x095ea7b300000000000000000000000050889ee374885277d8a888e3562f95566c75148300000000000000000000000000000000000000000000000029a2241af62c0000",
        "nonce": "0x9f"
      },
      "additionalContracts": [],
      "isFixedGasLimit": false
    },
    {
      "hash": "0x618bd9be722e1fbc7c33f6ae7ad7a07ddc22ea949bcf7002a24b15ca059dc74c",
      "transactionType": "CALL",
      "contractName": null,
      "contractAddress": "0x50889eE374885277d8A888e3562f95566c751483",
      "function": null,
      "arguments": null,
      "transaction": {
        "type": "0x00",
        "from": "0xde3089d40f3491de794fbb1eca109fac36f889d0",
        "to": "0x50889ee374885277d8a888e3562f95566c751483",
        "gas": "0x21fce",
        "value": "0x0",
        "data": "0x567813886052b36a9ae406dbd854bfd9f22c42dac9b6374b9d3a9c0d817a3793de02cd470000000000000000000000000000000000000000000000000000000000000001",
        "nonce": "0xa0"
      },
      "additionalContracts": [],
      "isFixedGasLimit": false
    }
  ],
  "receipts": [],
  "libraries": [],
  "pending": [
    "0x9dcf3d25f8546ad9a4e9644cb4ab2a759b187027ad3ccb114aa566642cf851e4",
    "0x618bd9be722e1fbc7c33f6ae7ad7a07ddc22ea949bcf7002a24b15ca059dc74c"
  ],
  "returns": {},
  "timestamp": 1690037009,
  "chain": 5,
  "multi": false,
  "commit": "11626f6"
}