{
  "transactions": [
    {
      "hash": "0xc330ba38a925b58e75f3cc03377ec2ffbe6a34ca3aa6e28de26379bf3966ddae",
      "transactionType": "CALL",
      "contractName": "ZetaEth",
      "contractAddress": "0x0000c304D2934c00Db1d51995b9f6996AffD17c0",
      "function": "approve(address,uint256):(bool)",
      "arguments": [
        "0x42E3ADaeEF7076595CbFB2a9468118464c091395",
        "3000000000000000000"
      ],
      "transaction": {
        "type": "0x00",
        "from": "0xde3089d40f3491de794fbb1eca109fac36f889d0",
        "to": "0x0000c304d2934c00db1d51995b9f6996affd17c0",
        "gas": "0xfd03",
        "value": "0x0",
        "data": "0x095ea7b300000000000000000000000042e3adaeef7076595cbfb2a9468118464c09139500000000000000000000000000000000000000000000000029a2241af62c0000",
        "nonce": "0x98"
      },
      "additionalContracts": [],
      "isFixedGasLimit": false
    },
    {
      "hash": "0xb08fc98523a5577c211f194f0302724703410387788c8d588ef41e24eda6db34",
      "transactionType": "CALL",
      "contractName": "FootyDAOTokenAdapter",
      "contractAddress": "0x42E3ADaeEF7076595CbFB2a9468118464c091395",
      "function": "delegate(address)",
      "arguments": [
        "0xDe3089d40F3491De794fBb1ECA109fAc36F889d0"
      ],
      "transaction": {
        "type": "0x00",
        "from": "0xde3089d40f3491de794fbb1eca109fac36f889d0",
        "to": "0x42e3adaeef7076595cbfb2a9468118464c091395",
        "gas": "0x21b68",
        "value": "0x0",
        "data": "0x5c19a95c000000000000000000000000de3089d40f3491de794fbb1eca109fac36f889d0",
        "nonce": "0x99"
      },
      "additionalContracts": [],
      "isFixedGasLimit": false
    }
  ],
  "receipts": [
    {
      "transactionHash": "0xc330ba38a925b58e75f3cc03377ec2ffbe6a34ca3aa6e28de26379bf3966ddae",
      "transactionIndex": "0x2e",
      "blockHash": "0x5b538416ac22e18382a4db86a956b7a9182c4f28635684fca3a1eab79d93095b",
      "blockNumber": "0x8f428a",
      "from": "0xDe3089d40F3491De794fBb1ECA109fAc36F889d0",
      "to": "0x0000c304D2934c00Db1d51995b9f6996AffD17c0",
      "cumulativeGasUsed": "0xcf0a55",
      "gasUsed": "0xb72e",
      "contractAddress": null,
      "logs": [
        {
          "address": "0x0000c304D2934c00Db1d51995b9f6996AffD17c0",
          "topics": [
            "0x8c5be1e5ebec7d5bd14f71427d1e84f3dd0314c0f7b2291e5b200ac8c7c3b925",
            "0x000000000000000000000000de3089d40f3491de794fbb1eca109fac36f889d0",
            "0x00000000000000000000000042e3adaeef7076595cbfb2a9468118464c091395"
          ],
          "data": "0x00000000000000000000000000000000000000000000000029a2241af62c0000",
          "blockHash": "0x5b538416ac22e18382a4db86a956b7a9182c4f28635684fca3a1eab79d93095b",
          "blockNumber": "0x8f428a",
          "transactionHash": "0xc330ba38a925b58e75f3cc03377ec2ffbe6a34ca3aa6e28de26379bf3966ddae",
          "transactionIndex": "0x2e",
          "logIndex": "0x7d",
          "removed": false
        }
      ],
      "status": "0x1",
      "logsBloom": "0x10000000000000000000000000000000000000000000000000000000002000000000000000000000000000000000000000000000100000000000000000200040000000000000000000000000000000000000000000000000000000000000000000000000000020000000000000000000000000000000000000000000000000000000000000000000000000000000000000000000001000000000000000000004020000000000000000000000000000000000000000000000000000000000000000000000000000000000000000000010000000000000000000000000000000000010000000000000000000000000040000000000000000000000000000000000",
      "type": "0x0",
      "effectiveGasPrice": "0x6412399f"
    },
    {
      "transactionHash": "0xb08fc98523a5577c211f194f0302724703410387788c8d588ef41e24eda6db34",
      "transactionIndex": "0x2f",
      "blockHash": "0x5b538416ac22e18382a4db86a956b7a9182c4f28635684fca3a1eab79d93095b",
      "blockNumber": "0x8f428a",
      "from": "0xDe3089d40F3491De794fBb1ECA109fAc36F889d0",
      "to": "0x42E3ADaeEF7076595CbFB2a9468118464c091395",
      "cumulativeGasUsed": "0xd090db",
      "gasUsed": "0x18686",
      "contractAddress": null,
      "logs": [
        {
          "address": "0x0000c304D2934c00Db1d51995b9f6996AffD17c0",
          "topics": [
            "0x8c5be1e5ebec7d5bd14f71427d1e84f3dd0314c0f7b2291e5b200ac8c7c3b925",
            "0x000000000000000000000000de3089d40f3491de794fbb1eca109fac36f889d0",
            "0x00000000000000000000000042e3adaeef7076595cbfb2a9468118464c091395"
          ],
          "data": "0x0000000000000000000000000000000000000000000000000000000000000000",
          "blockHash": "0x5b538416ac22e18382a4db86a956b7a9182c4f28635684fca3a1eab79d93095b",
          "blockNumber": "0x8f428a",
          "transactionHash": "0xb08fc98523a5577c211f194f0302724703410387788c8d588ef41e24eda6db34",
          "transactionIndex": "0x2f",
          "logIndex": "0x7e",
          "removed": false
        },
        {
          "address": "0x0000c304D2934c00Db1d51995b9f6996AffD17c0",
          "topics": [
            "0xddf252ad1be2c89b69c2b068fc378daa952ba7f163c4a11628f55a4df523b3ef",
            "0x000000000000000000000000de3089d40f3491de794fbb1eca109fac36f889d0",
            "0x00000000000000000000000042e3adaeef7076595cbfb2a9468118464c091395"
          ],
          "data": "0x00000000000000000000000000000000000000000000000029a2241af62c0000",
          "blockHash": "0x5b538416ac22e18382a4db86a956b7a9182c4f28635684fca3a1eab79d93095b",
          "blockNumber": "0x8f428a",
          "transactionHash": "0xb08fc98523a5577c211f194f0302724703410387788c8d588ef41e24eda6db34",
          "transactionIndex": "0x2f",
          "logIndex": "0x7f",
          "removed": false
        },
        {
          "address": "0x0000c304D2934c00Db1d51995b9f6996AffD17c0",
          "topics": [
            "0x8c5be1e5ebec7d5bd14f71427d1e84f3dd0314c0f7b2291e5b200ac8c7c3b925",
            "0x00000000000000000000000042e3adaeef7076595cbfb2a9468118464c091395",
            "0x00000000000000000000000000005e3125aba53c5652f9f0ce1a4cf91d8b15ea"
          ],
          "data": "0x00000000000000000000000000000000000000000000000029a2241af62c0000",
          "blockHash": "0x5b538416ac22e18382a4db86a956b7a9182c4f28635684fca3a1eab79d93095b",
          "blockNumber": "0x8f428a",
          "transactionHash": "0xb08fc98523a5577c211f194f0302724703410387788c8d588ef41e24eda6db34",
          "transactionIndex": "0x2f",
          "logIndex": "0x80",
          "removed": false
        },
        {
          "address": "0x0000c304D2934c00Db1d51995b9f6996AffD17c0",
          "topics": [
            "0x8c5be1e5ebec7d5bd14f71427d1e84f3dd0314c0f7b2291e5b200ac8c7c3b925",
            "0x00000000000000000000000042e3adaeef7076595cbfb2a9468118464c091395",
            "0x00000000000000000000000000005e3125aba53c5652f9f0ce1a4cf91d8b15ea"
          ],
          "data": "0x0000000000000000000000000000000000000000000000000000000000000000",
          "blockHash": "0x5b538416ac22e18382a4db86a956b7a9182c4f28635684fca3a1eab79d93095b",
          "blockNumber": "0x8f428a",
          "transactionHash": "0xb08fc98523a5577c211f194f0302724703410387788c8d588ef41e24eda6db34",
          "transactionIndex": "0x2f",
          "logIndex": "0x81",
          "removed": false
        },
        {
          "address": "0x0000c304D2934c00Db1d51995b9f6996AffD17c0",
          "topics": [
            "0xddf252ad1be2c89b69c2b068fc378daa952ba7f163c4a11628f55a4df523b3ef",
            "0x00000000000000000000000042e3adaeef7076595cbfb2a9468118464c091395",
            "0x00000000000000000000000000005e3125aba53c5652f9f0ce1a4cf91d8b15ea"
          ],
          "data": "0x00000000000000000000000000000000000000000000000029a2241af62c0000",
          "blockHash": "0x5b538416ac22e18382a4db86a956b7a9182c4f28635684fca3a1eab79d93095b",
          "blockNumber": "0x8f428a",
          "transactionHash": "0xb08fc98523a5577c211f194f0302724703410387788c8d588ef41e24eda6db34",
          "transactionIndex": "0x2f",
          "logIndex": "0x82",
          "removed": false
        },
        {
          "address": "0x00005E3125aBA53C5652f9F0CE1a4Cf91D8B15eA",
          "topics": [
            "0x7ec1c94701e09b1652f3e1d307e60c4b9ebf99aff8c2079fd1d8c585e031c4e4",
            "0x00000000000000000000000042e3adaeef7076595cbfb2a9468118464c091395",
            "0x0000000000000000000000000000000000000000000000000000000000013881"
          ],
          "data": "0x000000000000000000000000de3089d40f3491de794fbb1eca109fac36f889d000000000000000000000000000000000000000000000000000000000000000c000000000000000000000000000000000000000000000000029a2241af62c000000000000000000000000000000000000000000000000000000000000000493e0000000000000000000000000000000000000000000000000000000000000010000000000000000000000000000000000000000000000000000000000000001c000000000000000000000000000000000000000000000000000000000000000145f7b0bdee6f07ce4ea8681509cdc39ea809c7a6d00000000000000000000000000000000000000000000000000000000000000000000000000000000000000a0cb30b7a91bfafdecc5aabe95f3f005b0c706843fcfa340dcecee64fb1056bf54000000000000000000000000de3089d40f3491de794fbb1eca109fac36f889d000000000000000000000000000000000000000000000000000000000000000600000000000000000000000000000000000000000000000000000000000000020000000000000000000000000de3089d40f3491de794fbb1eca109fac36f889d0000000000000000000000000000000000000000000000000000000000000004000000000000000000000000000000000000000000000000000000000000000200000000000000000000000000000000000000000000000000000000000000000",
          "blockHash": "0x5b538416ac22e18382a4db86a956b7a9182c4f28635684fca3a1eab79d93095b",
          "blockNumber": "0x8f428a",
          "transactionHash": "0xb08fc98523a5577c211f194f0302724703410387788c8d588ef41e24eda6db34",
          "transactionIndex": "0x2f",
          "logIndex": "0x83",
          "removed": false
        }
      ],
      "status": "0x1",
      "logsBloom": "0x10000000000000000000000000000000000800000000000000000000002000000000000000000000000000000000000000000000100000000000000000200040000000000000008000000008000000000000800000000000000000000080000000001000002020000000000000000000000040000000000000840010000000000000000000000000000000000000000200000000001000000000000000000004020000000000000000000000000000000000000000000000002000000000000000000002000000000000000000000010000000000100000000000000000000000010000000000000000000000000040000000000000000000000000000000000",
      "type": "0x0",
      "effectiveGasPrice": "0x6412399f"
    }
  ],
  "libraries": [],
  "pending": [],
  "returns": {},
  "timestamp": 1690034790,
  "chain": 5,
  "multi": false,
  "commit": "2a7742d"
}