{
  "transactions": [
    {
      "hash": "0x431d46930ed8238a6ca30d149ccf7704b07c426f2aad313268c17444958def53",
      "transactionType": "CALL",
      "contractName": "ZetaEth",
      "contractAddress": "0x0000c304D2934c00Db1d51995b9f6996AffD17c0",
      "function": "approve(address,uint256):(bool)",
      "arguments": [
        "0x0dA0063089979E3776842d8Bc782D2c7BF05B4C0",
        "3000000000000000000"
      ],
      "transaction": {
        "type": "0x00",
        "from": "0xde3089d40f3491de794fbb1eca109fac36f889d0",
        "to": "0x0000c304d2934c00db1d51995b9f6996affd17c0",
        "gas": "0xfd03",
        "value": "0x0",
        "data": "0x095ea7b30000000000000000000000000da0063089979e3776842d8bc782d2c7bf05b4c000000000000000000000000000000000000000000000000029a2241af62c0000",
        "nonce": "0x6d"
      },
      "additionalContracts": [],
      "isFixedGasLimit": false
    },
    {
      "hash": "0x284772c24ead7c20084af36a4feb6f6966bd9a974c9d63ab9b1492aeece8b308",
      "transactionType": "CALL",
      "contractName": "FootyDAOTokenAdapter",
      "contractAddress": "0x0dA0063089979E3776842d8Bc782D2c7BF05B4C0",
      "function": "delegate(address)",
      "arguments": [
        "0xDe3089d40F3491De794fBb1ECA109fAc36F889d0"
      ],
      "transaction": {
        "type": "0x00",
        "from": "0xde3089d40f3491de794fbb1eca109fac36f889d0",
        "to": "0x0da0063089979e3776842d8bc782d2c7bf05b4c0",
        "gas": "0x21b68",
        "value": "0x0",
        "data": "0x5c19a95c000000000000000000000000de3089d40f3491de794fbb1eca109fac36f889d0",
        "nonce": "0x6e"
      },
      "additionalContracts": [],
      "isFixedGasLimit": false
    }
  ],
  "receipts": [
    {
      "transactionHash": "0x431d46930ed8238a6ca30d149ccf7704b07c426f2aad313268c17444958def53",
      "transactionIndex": "0x33",
      "blockHash": "0xeaf321631382c08b7d5166f582ba64a0c299f84fbda7b659823644b2dd3ed10a",
      "blockNumber": "0x8f3fa4",
      "from": "0xDe3089d40F3491De794fBb1ECA109fAc36F889d0",
      "to": "0x0000c304D2934c00Db1d51995b9f6996AffD17c0",
      "cumulativeGasUsed": "0x105dc1b",
      "gasUsed": "0xb72e",
      "contractAddress": null,
      "logs": [
        {
          "address": "0x0000c304D2934c00Db1d51995b9f6996AffD17c0",
          "topics": [
            "0x8c5be1e5ebec7d5bd14f71427d1e84f3dd0314c0f7b2291e5b200ac8c7c3b925",
            "0x000000000000000000000000de3089d40f3491de794fbb1eca109fac36f889d0",
            "0x0000000000000000000000000da0063089979e3776842d8bc782d2c7bf05b4c0"
          ],
          "data": "0x00000000000000000000000000000000000000000000000029a2241af62c0000",
          "blockHash": "0xeaf321631382c08b7d5166f582ba64a0c299f84fbda7b659823644b2dd3ed10a",
          "blockNumber": "0x8f3fa4",
          "transactionHash": "0x431d46930ed8238a6ca30d149ccf7704b07c426f2aad313268c17444958def53",
          "transactionIndex": "0x33",
          "logIndex": "0xc44",
          "removed": false
        }
      ],
      "status": "0x1",
      "logsBloom": "0x10000000000000000000000000000000000000000000000000000000000000000000000000000000000000000000000000000000100000000000000000200040000000000800000000000000000000000000000000000000000000000000000000000000040000000000000000000000000000000000000000000000000000000000000000000000000000000000000000000000001000000000000000000000020000000000000000000000000000000100000000000000000000000000000000000000000000000000000000000010000000000000000000000000000000000010000000000000000000000000040000000000000000000000000000000000",
      "effectiveGasPrice": "0x724b2fc9"
    },
    {
      "transactionHash": "0x284772c24ead7c20084af36a4feb6f6966bd9a974c9d63ab9b1492aeece8b308",
      "transactionIndex": "0x34",
      "blockHash": "0xeaf321631382c08b7d5166f582ba64a0c299f84fbda7b659823644b2dd3ed10a",
      "blockNumber": "0x8f3fa4",
      "from": "0xDe3089d40F3491De794fBb1ECA109fAc36F889d0",
      "to": "0x0dA0063089979E3776842d8Bc782D2c7BF05B4C0",
      "cumulativeGasUsed": "0x10762a1",
      "gasUsed": "0x18686",
      "contractAddress": null,
      "logs": [
        {
          "address": "0x0000c304D2934c00Db1d51995b9f6996AffD17c0",
          "topics": [
            "0x8c5be1e5ebec7d5bd14f71427d1e84f3dd0314c0f7b2291e5b200ac8c7c3b925",
            "0x000000000000000000000000de3089d40f3491de794fbb1eca109fac36f889d0",
            "0x0000000000000000000000000da0063089979e3776842d8bc782d2c7bf05b4c0"
          ],
          "data": "0x0000000000000000000000000000000000000000000000000000000000000000",
          "blockHash": "0xeaf321631382c08b7d5166f582ba64a0c299f84fbda7b659823644b2dd3ed10a",
          "blockNumber": "0x8f3fa4",
          "transactionHash": "0x284772c24ead7c20084af36a4feb6f6966bd9a974c9d63ab9b1492aeece8b308",
          "transactionIndex": "0x34",
          "logIndex": "0xc45",
          "removed": false
        },
        {
          "address": "0x0000c304D2934c00Db1d51995b9f6996AffD17c0",
          "topics": [
            "0xddf252ad1be2c89b69c2b068fc378daa952ba7f163c4a11628f55a4df523b3ef",
            "0x000000000000000000000000de3089d40f3491de794fbb1eca109fac36f889d0",
            "0x0000000000000000000000000da0063089979e3776842d8bc782d2c7bf05b4c0"
          ],
          "data": "0x00000000000000000000000000000000000000000000000029a2241af62c0000",
          "blockHash": "0xeaf321631382c08b7d5166f582ba64a0c299f84fbda7b659823644b2dd3ed10a",
          "blockNumber": "0x8f3fa4",
          "transactionHash": "0x284772c24ead7c20084af36a4feb6f6966bd9a974c9d63ab9b1492aeece8b308",
          "transactionIndex": "0x34",
          "logIndex": "0xc46",
          "removed": false
        },
        {
          "address": "0x0000c304D2934c00Db1d51995b9f6996AffD17c0",
          "topics": [
            "0x8c5be1e5ebec7d5bd14f71427d1e84f3dd0314c0f7b2291e5b200ac8c7c3b925",
            "0x0000000000000000000000000da0063089979e3776842d8bc782d2c7bf05b4c0",
            "0x00000000000000000000000000005e3125aba53c5652f9f0ce1a4cf91d8b15ea"
          ],
          "data": "0x00000000000000000000000000000000000000000000000029a2241af62c0000",
          "blockHash": "0xeaf321631382c08b7d5166f582ba64a0c299f84fbda7b659823644b2dd3ed10a",
          "blockNumber": "0x8f3fa4",
          "transactionHash": "0x284772c24ead7c20084af36a4feb6f6966bd9a974c9d63ab9b1492aeece8b308",
          "transactionIndex": "0x34",
          "logIndex": "0xc47",
          "removed": false
        },
        {
          "address": "0x0000c304D2934c00Db1d51995b9f6996AffD17c0",
          "topics": [
            "0x8c5be1e5ebec7d5bd14f71427d1e84f3dd0314c0f7b2291e5b200ac8c7c3b925",
            "0x0000000000000000000000000da0063089979e3776842d8bc782d2c7bf05b4c0",
            "0x00000000000000000000000000005e3125aba53c5652f9f0ce1a4cf91d8b15ea"
          ],
          "data": "0x0000000000000000000000000000000000000000000000000000000000000000",
          "blockHash": "0xeaf321631382c08b7d5166f582ba64a0c299f84fbda7b659823644b2dd3ed10a",
          "blockNumber": "0x8f3fa4",
          "transactionHash": "0x284772c24ead7c20084af36a4feb6f6966bd9a974c9d63ab9b1492aeece8b308",
          "transactionIndex": "0x34",
          "logIndex": "0xc48",
          "removed": false
        },
        {
          "address": "0x0000c304D2934c00Db1d51995b9f6996AffD17c0",
          "topics": [
            "0xddf252ad1be2c89b69c2b068fc378daa952ba7f163c4a11628f55a4df523b3ef",
            "0x0000000000000000000000000da0063089979e3776842d8bc782d2c7bf05b4c0",
            "0x00000000000000000000000000005e3125aba53c5652f9f0ce1a4cf91d8b15ea"
          ],
          "data": "0x00000000000000000000000000000000000000000000000029a2241af62c0000",
          "blockHash": "0xeaf321631382c08b7d5166f582ba64a0c299f84fbda7b659823644b2dd3ed10a",
          "blockNumber": "0x8f3fa4",
          "transactionHash": "0x284772c24ead7c20084af36a4feb6f6966bd9a974c9d63ab9b1492aeece8b308",
          "transactionIndex": "0x34",
          "logIndex": "0xc49",
          "removed": false
        },
        {
          "address": "0x00005E3125aBA53C5652f9F0CE1a4Cf91D8B15eA",
          "topics": [
            "0x7ec1c94701e09b1652f3e1d307e60c4b9ebf99aff8c2079fd1d8c585e031c4e4",
            "0x0000000000000000000000000da0063089979e3776842d8bc782d2c7bf05b4c0",
            "0x0000000000000000000000000000000000000000000000000000000000013881"
          ],
          "data": "0x000000000000000000000000de3089d40f3491de794fbb1eca109fac36f889d000000000000000000000000000000000000000000000000000000000000000c000000000000000000000000000000000000000000000000029a2241af62c000000000000000000000000000000000000000000000000000000000000000249f0000000000000000000000000000000000000000000000000000000000000010000000000000000000000000000000000000000000000000000000000000001c00000000000000000000000000000000000000000000000000000000000000014c01011c96781eefbbb169b7f70e06af29c950f7e00000000000000000000000000000000000000000000000000000000000000000000000000000000000000a0cb30b7a91bfafdecc5aabe95f3f005b0c706843fcfa340dcecee64fb1056bf54000000000000000000000000de3089d40f3491de794fbb1eca109fac36f889d000000000000000000000000000000000000000000000000000000000000000600000000000000000000000000000000000000000000000000000000000000020000000000000000000000000de3089d40f3491de794fbb1eca109fac36f889d0000000000000000000000000000000000000000000000000000000000000004000000000000000000000000000000000000000000000000000000000000000200000000000000000000000000000000000000000000000000000000000000000",
          "blockHash": "0xeaf321631382c08b7d5166f582ba64a0c299f84fbda7b659823644b2dd3ed10a",
          "blockNumber": "0x8f3fa4",
          "transactionHash": "0x284772c24ead7c20084af36a4feb6f6966bd9a974c9d63ab9b1492aeece8b308",
          "transactionIndex": "0x34",
          "logIndex": "0xc4a",
          "removed": false
        }
      ],
      "status": "0x1",
      "logsBloom": "0x10000000000000000000000000000000000800000000000000000000000000000000000000000000000000000000000000000000100000000000000000200040000000000800008000000008000000000000800000000000000000000080000000001000042000000000000000000000000040000000000000840010000000000000000000000000000000000000000200000000001000000000000000000000020000000000000000000000000000000100000000000000002000000000000000000002000000000000000000000010000000000100000000000000000000000010000000000000000000000000040000000000000000000000000000000000",
      "effectiveGasPrice": "0x724b2fc9"
    }
  ],
  "libraries": [],
  "pending": [],
  "returns": {},
  "timestamp": 1690023754,
  "chain": 5,
  "multi": false,
  "commit": "2a7742d"
}