{
  "transactions": [
    {
      "hash": "0xdf58671ad92debfad3285427aa30e00bce1f69c01e7e9636b9c65f2a2fee7a56",
      "transactionType": "CALL",
      "contractName": "ZetaEth",
      "contractAddress": "0x0000c304D2934c00Db1d51995b9f6996AffD17c0",
      "function": "approve(address,uint256):(bool)",
      "arguments": [
        "0xFfcb0A87D93a983F17C3b862C4Ae0249A960f834",
        "3000000000000000000"
      ],
      "transaction": {
        "type": "0x00",
        "from": "0xde3089d40f3491de794fbb1eca109fac36f889d0",
        "to": "0x0000c304d2934c00db1d51995b9f6996affd17c0",
        "gas": "0xfd03",
        "value": "0x0",
        "data": "0x095ea7b3000000000000000000000000ffcb0a87d93a983f17c3b862c4ae0249a960f83400000000000000000000000000000000000000000000000029a2241af62c0000",
        "nonce": "0x91"
      },
      "additionalContracts": [],
      "isFixedGasLimit": false
    },
    {
      "hash": "0x067bedb2add4676a86d75bcf4f31ee1fe658e93acf9e8e085f64136a32a762c9",
      "transactionType": "CALL",
      "contractName": null,
      "contractAddress": "0xFfcb0A87D93a983F17C3b862C4Ae0249A960f834",
      "function": null,
      "arguments": null,
      "transaction": {
        "type": "0x00",
        "from": "0xde3089d40f3491de794fbb1eca109fac36f889d0",
        "to": "0xffcb0a87d93a983f17c3b862c4ae0249a960f834",
        "gas": "0x21b68",
        "value": "0x0",
        "data": "0x5c19a95c000000000000000000000000de3089d40f3491de794fbb1eca109fac36f889d0",
        "nonce": "0x92"
      },
      "additionalContracts": [],
      "isFixedGasLimit": false
    }
  ],
  "receipts": [],
  "libraries": [],
  "pending": [
    "0xdf58671ad92debfad3285427aa30e00bce1f69c01e7e9636b9c65f2a2fee7a56",
    "0x067bedb2add4676a86d75bcf4f31ee1fe658e93acf9e8e085f64136a32a762c9"
  ],
  "returns": {},
  "timestamp": 1690032072,
  "chain": 5,
  "multi": false,
  "commit": "2a7742d"
}