{
  "transactions": [
    {
      "hash": "0xd93f922ebc8d4667af039a39bfbc3ba813748f2000e0943ad7d18b99d3d85566",
      "transactionType": "CALL",
      "contractName": "ZetaEth",
      "contractAddress": "0x0000c304D2934c00Db1d51995b9f6996AffD17c0",
      "function": "approve(address,uint256):(bool)",
      "arguments": [
        "0x8d48c62d029e082F0376f5Be47A8d8096eE8856b",
        "3000000000000000000"
      ],
      "transaction": {
        "type": "0x00",
        "from": "0xde3089d40f3491de794fbb1eca109fac36f889d0",
        "to": "0x0000c304d2934c00db1d51995b9f6996affd17c0",
        "gas": "0xfd03",
        "value": "0x0",
        "data": "0x095ea7b30000000000000000000000008d48c62d029e082f0376f5be47a8d8096ee8856b00000000000000000000000000000000000000000000000029a2241af62c0000",
        "nonce": "0x67"
      },
      "additionalContracts": [],
      "isFixedGasLimit": false
    },
    {
      "hash": "0xdbebcd172c972ec41e5beeea445cac7672a5319f87a24e2daafbd8ff93574d26",
      "transactionType": "CALL",
      "contractName": "FootyDAOTokenAdapter",
      "contractAddress": "0x8d48c62d029e082F0376f5Be47A8d8096eE8856b",
      "function": "delegate(address)",
      "arguments": [
        "0xDe3089d40F3491De794fBb1ECA109fAc36F889d0"
      ],
      "transaction": {
        "type": "0x00",
        "from": "0xde3089d40f3491de794fbb1eca109fac36f889d0",
        "to": "0x8d48c62d029e082f0376f5be47a8d8096ee8856b",
        "gas": "0x22547",
        "value": "0x0",
        "data": "0x5c19a95c000000000000000000000000de3089d40f3491de794fbb1eca109fac36f889d0",
        "nonce": "0x68"
      },
      "additionalContracts": [],
      "isFixedGasLimit": false
    }
  ],
  "receipts": [
    {
      "transactionHash": "0xd93f922ebc8d4667af039a39bfbc3ba813748f2000e0943ad7d18b99d3d85566",
      "transactionIndex": "0x25",
      "blockHash": "0x6d416188ad84e36eb3fa89349cc3f07cd2ea9fa042fa600c913d3f4749a76333",
      "blockNumber": "0x8f3f14",
      "from": "0xDe3089d40F3491De794fBb1ECA109fAc36F889d0",
      "to": "0x0000c304D2934c00Db1d51995b9f6996AffD17c0",
      "cumulativeGasUsed": "0x4da67c",
      "gasUsed": "0xb72e",
      "contractAddress": null,
      "logs": [
        {
          "address": "0x0000c304D2934c00Db1d51995b9f6996AffD17c0",
          "topics": [
            "0x8c5be1e5ebec7d5bd14f71427d1e84f3dd0314c0f7b2291e5b200ac8c7c3b925",
            "0x000000000000000000000000de3089d40f3491de794fbb1eca109fac36f889d0",
            "0x0000000000000000000000008d48c62d029e082f0376f5be47a8d8096ee8856b"
          ],
          "data": "0x00000000000000000000000000000000000000000000000029a2241af62c0000",
          "blockHash": "0x6d416188ad84e36eb3fa89349cc3f07cd2ea9fa042fa600c913d3f4749a76333",
          "blockNumber": "0x8f3f14",
          "transactionHash": "0xd93f922ebc8d4667af039a39bfbc3ba813748f2000e0943ad7d18b99d3d85566",
          "transactionIndex": "0x25",
          "logIndex": "0x4c",
          "removed": false
        }
      ],
      "status": "0x1",
      "logsBloom": "0x10000000000000000000000000000000000000000000000000000000000000000000000000000000000000000000000000000000100080000000000000200040000000000000000000000000000000000000000000000000000000000000000000000000000000000000000000000000000000000000000000000000000000000000000000000000000000000000000000000000001000000000000004000000020000000000000000000000000000000000000000000000000000000000000000000000000000000000000000000010000000000000000000000000001000000010000000000000000000000000040000000000000000000000000000000000",
      "type": "0x0",
      "effectiveGasPrice": "0x6290f09b"
    },
    {
      "transactionHash": "0xdbebcd172c972ec41e5beeea445cac7672a5319f87a24e2daafbd8ff93574d26",
      "transactionIndex": "0x26",
      "blockHash": "0x6d416188ad84e36eb3fa89349cc3f07cd2ea9fa042fa600c913d3f4749a76333",
      "blockNumber": "0x8f3f14",
      "from": "0xDe3089d40F3491De794fBb1ECA109fAc36F889d0",
      "to": "0x8d48c62d029e082F0376f5Be47A8d8096eE8856b",
      "cumulativeGasUsed": "0x4f3428",
      "gasUsed": "0x18dac",
      "contractAddress": null,
      "logs": [
        {
          "address": "0x0000c304D2934c00Db1d51995b9f6996AffD17c0",
          "topics": [
            "0x8c5be1e5ebec7d5bd14f71427d1e84f3dd0314c0f7b2291e5b200ac8c7c3b925",
            "0x000000000000000000000000de3089d40f3491de794fbb1eca109fac36f889d0",
            "0x0000000000000000000000008d48c62d029e082f0376f5be47a8d8096ee8856b"
          ],
          "data": "0x0000000000000000000000000000000000000000000000000000000000000000",
          "blockHash": "0x6d416188ad84e36eb3fa89349cc3f07cd2ea9fa042fa600c913d3f4749a76333",
          "blockNumber": "0x8f3f14",
          "transactionHash": "0xdbebcd172c972ec41e5beeea445cac7672a5319f87a24e2daafbd8ff93574d26",
          "transactionIndex": "0x26",
          "logIndex": "0x4d",
          "removed": false
        },
        {
          "address": "0x0000c304D2934c00Db1d51995b9f6996AffD17c0",
          "topics": [
            "0xddf252ad1be2c89b69c2b068fc378daa952ba7f163c4a11628f55a4df523b3ef",
            "0x000000000000000000000000de3089d40f3491de794fbb1eca109fac36f889d0",
            "0x0000000000000000000000008d48c62d029e082f0376f5be47a8d8096ee8856b"
          ],
          "data": "0x00000000000000000000000000000000000000000000000029a2241af62c0000",
          "blockHash": "0x6d416188ad84e36eb3fa89349cc3f07cd2ea9fa042fa600c913d3f4749a76333",
          "blockNumber": "0x8f3f14",
          "transactionHash": "0xdbebcd172c972ec41e5beeea445cac7672a5319f87a24e2daafbd8ff93574d26",
          "transactionIndex": "0x26",
          "logIndex": "0x4e",
          "removed": false
        },
        {
          "address": "0x0000c304D2934c00Db1d51995b9f6996AffD17c0",
          "topics": [
            "0x8c5be1e5ebec7d5bd14f71427d1e84f3dd0314c0f7b2291e5b200ac8c7c3b925",
            "0x0000000000000000000000008d48c62d029e082f0376f5be47a8d8096ee8856b",
            "0x00000000000000000000000000005e3125aba53c5652f9f0ce1a4cf91d8b15ea"
          ],
          "data": "0x00000000000000000000000000000000000000000000000029a2241af62c0000",
          "blockHash": "0x6d416188ad84e36eb3fa89349cc3f07cd2ea9fa042fa600c913d3f4749a76333",
          "blockNumber": "0x8f3f14",
          "transactionHash": "0xdbebcd172c972ec41e5beeea445cac7672a5319f87a24e2daafbd8ff93574d26",
          "transactionIndex": "0x26",
          "logIndex": "0x4f",
          "removed": false
        },
        {
          "address": "0x0000c304D2934c00Db1d51995b9f6996AffD17c0",
          "topics": [
            "0x8c5be1e5ebec7d5bd14f71427d1e84f3dd0314c0f7b2291e5b200ac8c7c3b925",
            "0x0000000000000000000000008d48c62d029e082f0376f5be47a8d8096ee8856b",
            "0x00000000000000000000000000005e3125aba53c5652f9f0ce1a4cf91d8b15ea"
          ],
          "data": "0x0000000000000000000000000000000000000000000000000000000000000000",
          "blockHash": "0x6d416188ad84e36eb3fa89349cc3f07cd2ea9fa042fa600c913d3f4749a76333",
          "blockNumber": "0x8f3f14",
          "transactionHash": "0xdbebcd172c972ec41e5beeea445cac7672a5319f87a24e2daafbd8ff93574d26",
          "transactionIndex": "0x26",
          "logIndex": "0x50",
          "removed": false
        },
        {
          "address": "0x0000c304D2934c00Db1d51995b9f6996AffD17c0",
          "topics": [
            "0xddf252ad1be2c89b69c2b068fc378daa952ba7f163c4a11628f55a4df523b3ef",
            "0x0000000000000000000000008d48c62d029e082f0376f5be47a8d8096ee8856b",
            "0x00000000000000000000000000005e3125aba53c5652f9f0ce1a4cf91d8b15ea"
          ],
          "data": "0x00000000000000000000000000000000000000000000000029a2241af62c0000",
          "blockHash": "0x6d416188ad84e36eb3fa89349cc3f07cd2ea9fa042fa600c913d3f4749a76333",
          "blockNumber": "0x8f3f14",
          "transactionHash": "0xdbebcd172c972ec41e5beeea445cac7672a5319f87a24e2daafbd8ff93574d26",
          "transactionIndex": "0x26",
          "logIndex": "0x51",
          "removed": false
        },
        {
          "address": "0x00005E3125aBA53C5652f9F0CE1a4Cf91D8B15eA",
          "topics": [
            "0x7ec1c94701e09b1652f3e1d307e60c4b9ebf99aff8c2079fd1d8c585e031c4e4",
            "0x0000000000000000000000008d48c62d029e082f0376f5be47a8d8096ee8856b",
            "0x0000000000000000000000000000000000000000000000000000000000013881"
          ],
          "data": "0x000000000000000000000000de3089d40f3491de794fbb1eca109fac36f889d000000000000000000000000000000000000000000000000000000000000000c000000000000000000000000000000000000000000000000029a2241af62c000000000000000000000000000000000000000000000000000000000000000249f0000000000000000000000000000000000000000000000000000000000000010000000000000000000000000000000000000000000000000000000000000001c00000000000000000000000000000000000000000000000000000000000000020000000000000000000000000920b6c3ebcac0cd219c47d5490cf6558a6322bb000000000000000000000000000000000000000000000000000000000000000a0cb30b7a91bfafdecc5aabe95f3f005b0c706843fcfa340dcecee64fb1056bf54000000000000000000000000de3089d40f3491de794fbb1eca109fac36f889d000000000000000000000000000000000000000000000000000000000000000600000000000000000000000000000000000000000000000000000000000000020000000000000000000000000de3089d40f3491de794fbb1eca109fac36f889d0000000000000000000000000000000000000000000000000000000000000004000000000000000000000000000000000000000000000000000000000000000200000000000000000000000000000000000000000000000000000000000000000",
          "blockHash": "0x6d416188ad84e36eb3fa89349cc3f07cd2ea9fa042fa600c913d3f4749a76333",
          "blockNumber": "0x8f3f14",
          "transactionHash": "0xdbebcd172c972ec41e5beeea445cac7672a5319f87a24e2daafbd8ff93574d26",
          "transactionIndex": "0x26",
          "logIndex": "0x52",
          "removed": false
        }
      ],
      "status": "0x1",
      "logsBloom": "0x10000000000000000000000000000000000800000000000000000000000000000000000000000000000000000000000000000000100080000000000000200040000000000000008000000008000000000000800000000000000000000080000000001000002000000000000000000000000040000000000000840010000000000000000000000000000000000000000200000000001000000000000004000000020000000000000000000000000000000000000000000000002000000000000000000002000000000000000000000010000000000100000000000000001000000010000000000000000000000000040000000000000000000000000000000000",
      "type": "0x0",
      "effectiveGasPrice": "0x6290f09b"
    }
  ],
  "libraries": [],
  "pending": [],
  "returns": {},
  "timestamp": 1690021639,
  "chain": 5,
  "multi": false,
  "commit": "06221d4"
}