{
  "transactions": [
    {
      "hash": "0x6539937f987278ec7f8cb50e677ac68f2efba37c2d96fa65b304be86cb27b124",
      "transactionType": "CALL",
      "contractName": "ZetaEth",
      "contractAddress": "0x0000c304D2934c00Db1d51995b9f6996AffD17c0",
      "function": "approve(address,uint256):(bool)",
      "arguments": [
        "0xd09e495C4A3C2cf4CEee3739708eb2a810E1e7b3",
        "3000000000000000000"
      ],
      "transaction": {
        "type": "0x00",
        "from": "0xde3089d40f3491de794fbb1eca109fac36f889d0",
        "to": "0x0000c304d2934c00db1d51995b9f6996affd17c0",
        "gas": "0xfd03",
        "value": "0x0",
        "data": "0x095ea7b3000000000000000000000000d09e495c4a3c2cf4ceee3739708eb2a810e1e7b300000000000000000000000000000000000000000000000029a2241af62c0000",
        "nonce": "0xa6"
      },
      "additionalContracts": [],
      "isFixedGasLimit": false
    },
    {
      "hash": "0x6e15647d969f86317eaf78b3281c25cd32c8cea33cd25d7fa279c6b46608e62c",
      "transactionType": "CALL",
      "contractName": "FootyDAOTokenAdapter",
      "contractAddress": "0xd09e495C4A3C2cf4CEee3739708eb2a810E1e7b3",
      "function": "delegate(address)",
      "arguments": [
        "0xDe3089d40F3491De794fBb1ECA109fAc36F889d0"
      ],
      "transaction": {
        "type": "0x00",
        "from": "0xde3089d40f3491de794fbb1eca109fac36f889d0",
        "to": "0xd09e495c4a3c2cf4ceee3739708eb2a810e1e7b3",
        "gas": "0x21b68",
        "value": "0x0",
        "data": "0x5c19a95c000000000000000000000000de3089d40f3491de794fbb1eca109fac36f889d0",
        "nonce": "0xa7"
      },
      "additionalContracts": [],
      "isFixedGasLimit": false
    },
    {
      "hash": "0x390c5b7e9abc3587eaf35d1a0943d4ac84b38120507fd759541e7fb7cbb4dc76",
      "transactionType": "CALL",
      "contractName": "ZetaEth",
      "contractAddress": "0x0000c304D2934c00Db1d51995b9f6996AffD17c0",
      "function": "approve(address,uint256):(bool)",
      "arguments": [
        "0x26e328BC62207D7aCf801C405167bc0F4eccedEa",
        "3000000000000000000"
      ],
      "transaction": {
        "type": "0x00",
        "from": "0xde3089d40f3491de794fbb1eca109fac36f889d0",
        "to": "0x0000c304d2934c00db1d51995b9f6996affd17c0",
        "gas": "0xfd03",
        "value": "0x0",
        "data": "0x095ea7b300000000000000000000000026e328bc62207d7acf801c405167bc0f4eccedea00000000000000000000000000000000000000000000000029a2241af62c0000",
        "nonce": "0xa8"
      },
      "additionalContracts": [],
      "isFixedGasLimit": false
    },
    {
      "hash": "0xee619c689a3d1c6d95e6fe231fa1ed93db2c5a3ba355b5e21def69eb6dbd28f7",
      "transactionType": "CALL",
      "contractName": "FootyDAOGovernorAdapter",
      "contractAddress": "0x26e328BC62207D7aCf801C405167bc0F4eccedEa",
      "function": "castVote(uint256,uint8)",
      "arguments": [
        "104012589921587364222543712049515143756071027815071951104258712845126821314477",
        "1"
      ],
      "transaction": {
        "type": "0x00",
        "from": "0xde3089d40f3491de794fbb1eca109fac36f889d0",
        "to": "0x26e328bc62207d7acf801c405167bc0f4eccedea",
        "gas": "0x215f0",
        "value": "0x0",
        "data": "0x56781388e5f50a26dc5d9de3c0c8a250acc54d80cf2df3cdf7183dd7140bec3406d57fad0000000000000000000000000000000000000000000000000000000000000001",
        "nonce": "0xa9"
      },
      "additionalContracts": [],
      "isFixedGasLimit": false
    }
  ],
  "receipts": [
    {
      "transactionHash": "0x6539937f987278ec7f8cb50e677ac68f2efba37c2d96fa65b304be86cb27b124",
      "transactionIndex": "0x5f",
      "blockHash": "0x1f06fd62f494ec145e7d0fabfd65805af4e8cacae7973873c09eca3275929cf4",
      "blockNumber": "0x8f4389",
      "from": "0xDe3089d40F3491De794fBb1ECA109fAc36F889d0",
      "to": "0x0000c304D2934c00Db1d51995b9f6996AffD17c0",
      "cumulativeGasUsed": "0xfbd09b",
      "gasUsed": "0xb72e",
      "contractAddress": null,
      "logs": [
        {
          "address": "0x0000c304D2934c00Db1d51995b9f6996AffD17c0",
          "topics": [
            "0x8c5be1e5ebec7d5bd14f71427d1e84f3dd0314c0f7b2291e5b200ac8c7c3b925",
            "0x000000000000000000000000de3089d40f3491de794fbb1eca109fac36f889d0",
            "0x000000000000000000000000d09e495c4a3c2cf4ceee3739708eb2a810e1e7b3"
          ],
          "data": "0x00000000000000000000000000000000000000000000000029a2241af62c0000",
          "blockHash": "0x1f06fd62f494ec145e7d0fabfd65805af4e8cacae7973873c09eca3275929cf4",
          "blockNumber": "0x8f4389",
          "transactionHash": "0x6539937f987278ec7f8cb50e677ac68f2efba37c2d96fa65b304be86cb27b124",
          "transactionIndex": "0x5f",
          "logIndex": "0xcc",
          "removed": false
        }
      ],
      "status": "0x1",
      "logsBloom": "0x10000000000000000000000000000000000000000000000000000000000000000000000000000000000000000000000000000000100000000000000000200040000000000000000000000000000000000000000000000000000000000000000000000000000000000000000000000000000000000000000000800000000000000000000000000000000000000000000000010000001000000000000000000000020000000000000000000000000000000000000000000000000000000000000000000000000000000000000000000010000000000000000000000000000000000010000000000000000000000000040000000000000000000000000000000000",
      "type": "0x0",
      "effectiveGasPrice": "0x7940635d"
    },
    {
      "transactionHash": "0x6e15647d969f86317eaf78b3281c25cd32c8cea33cd25d7fa279c6b46608e62c",
      "transactionIndex": "0x60",
      "blockHash": "0x1f06fd62f494ec145e7d0fabfd65805af4e8cacae7973873c09eca3275929cf4",
      "blockNumber": "0x8f4389",
      "from": "0xDe3089d40F3491De794fBb1ECA109fAc36F889d0",
      "to": "0xd09e495C4A3C2cf4CEee3739708eb2a810E1e7b3",
      "cumulativeGasUsed": "0xfd5721",
      "gasUsed": "0x18686",
      "contractAddress": null,
      "logs": [
        {
          "address": "0x0000c304D2934c00Db1d51995b9f6996AffD17c0",
          "topics": [
            "0x8c5be1e5ebec7d5bd14f71427d1e84f3dd0314c0f7b2291e5b200ac8c7c3b925",
            "0x000000000000000000000000de3089d40f3491de794fbb1eca109fac36f889d0",
            "0x000000000000000000000000d09e495c4a3c2cf4ceee3739708eb2a810e1e7b3"
          ],
          "data": "0x0000000000000000000000000000000000000000000000000000000000000000",
          "blockHash": "0x1f06fd62f494ec145e7d0fabfd65805af4e8cacae7973873c09eca3275929cf4",
          "blockNumber": "0x8f4389",
          "transactionHash": "0x6e15647d969f86317eaf78b3281c25cd32c8cea33cd25d7fa279c6b46608e62c",
          "transactionIndex": "0x60",
          "logIndex": "0xcd",
          "removed": false
        },
        {
          "address": "0x0000c304D2934c00Db1d51995b9f6996AffD17c0",
          "topics": [
            "0xddf252ad1be2c89b69c2b068fc378daa952ba7f163c4a11628f55a4df523b3ef",
            "0x000000000000000000000000de3089d40f3491de794fbb1eca109fac36f889d0",
            "0x000000000000000000000000d09e495c4a3c2cf4ceee3739708eb2a810e1e7b3"
          ],
          "data": "0x00000000000000000000000000000000000000000000000029a2241af62c0000",
          "blockHash": "0x1f06fd62f494ec145e7d0fabfd65805af4e8cacae7973873c09eca3275929cf4",
          "blockNumber": "0x8f4389",
          "transactionHash": "0x6e15647d969f86317eaf78b3281c25cd32c8cea33cd25d7fa279c6b46608e62c",
          "transactionIndex": "0x60",
          "logIndex": "0xce",
          "removed": false
        },
        {
          "address": "0x0000c304D2934c00Db1d51995b9f6996AffD17c0",
          "topics": [
            "0x8c5be1e5ebec7d5bd14f71427d1e84f3dd0314c0f7b2291e5b200ac8c7c3b925",
            "0x000000000000000000000000d09e495c4a3c2cf4ceee3739708eb2a810e1e7b3",
            "0x00000000000000000000000000005e3125aba53c5652f9f0ce1a4cf91d8b15ea"
          ],
          "data": "0x00000000000000000000000000000000000000000000000029a2241af62c0000",
          "blockHash": "0x1f06fd62f494ec145e7d0fabfd65805af4e8cacae7973873c09eca3275929cf4",
          "blockNumber": "0x8f4389",
          "transactionHash": "0x6e15647d969f86317eaf78b3281c25cd32c8cea33cd25d7fa279c6b46608e62c",
          "transactionIndex": "0x60",
          "logIndex": "0xcf",
          "removed": false
        },
        {
          "address": "0x0000c304D2934c00Db1d51995b9f6996AffD17c0",
          "topics": [
            "0x8c5be1e5ebec7d5bd14f71427d1e84f3dd0314c0f7b2291e5b200ac8c7c3b925",
            "0x000000000000000000000000d09e495c4a3c2cf4ceee3739708eb2a810e1e7b3",
            "0x00000000000000000000000000005e3125aba53c5652f9f0ce1a4cf91d8b15ea"
          ],
          "data": "0x0000000000000000000000000000000000000000000000000000000000000000",
          "blockHash": "0x1f06fd62f494ec145e7d0fabfd65805af4e8cacae7973873c09eca3275929cf4",
          "blockNumber": "0x8f4389",
          "transactionHash": "0x6e15647d969f86317eaf78b3281c25cd32c8cea33cd25d7fa279c6b46608e62c",
          "transactionIndex": "0x60",
          "logIndex": "0xd0",
          "removed": false
        },
        {
          "address": "0x0000c304D2934c00Db1d51995b9f6996AffD17c0",
          "topics": [
            "0xddf252ad1be2c89b69c2b068fc378daa952ba7f163c4a11628f55a4df523b3ef",
            "0x000000000000000000000000d09e495c4a3c2cf4ceee3739708eb2a810e1e7b3",
            "0x00000000000000000000000000005e3125aba53c5652f9f0ce1a4cf91d8b15ea"
          ],
          "data": "0x00000000000000000000000000000000000000000000000029a2241af62c0000",
          "blockHash": "0x1f06fd62f494ec145e7d0fabfd65805af4e8cacae7973873c09eca3275929cf4",
          "blockNumber": "0x8f4389",
          "transactionHash": "0x6e15647d969f86317eaf78b3281c25cd32c8cea33cd25d7fa279c6b46608e62c",
          "transactionIndex": "0x60",
          "logIndex": "0xd1",
          "removed": false
        },
        {
          "address": "0x00005E3125aBA53C5652f9F0CE1a4Cf91D8B15eA",
          "topics": [
            "0x7ec1c94701e09b1652f3e1d307e60c4b9ebf99aff8c2079fd1d8c585e031c4e4",
            "0x000000000000000000000000d09e495c4a3c2cf4ceee3739708eb2a810e1e7b3",
            "0x0000000000000000000000000000000000000000000000000000000000013881"
          ],
          "data": "0x000000000000000000000000de3089d40f3491de794fbb1eca109fac36f889d000000000000000000000000000000000000000000000000000000000000000c000000000000000000000000000000000000000000000000029a2241af62c000000000000000000000000000000000000000000000000000000000000000493e0000000000000000000000000000000000000000000000000000000000000010000000000000000000000000000000000000000000000000000000000000001c00000000000000000000000000000000000000000000000000000000000000014b4b2d82f6cfeefdbf90e5e633af6d63d46bd747800000000000000000000000000000000000000000000000000000000000000000000000000000000000000a0cb30b7a91bfafdecc5aabe95f3f005b0c706843fcfa340dcecee64fb1056bf54000000000000000000000000de3089d40f3491de794fbb1eca109fac36f889d000000000000000000000000000000000000000000000000000000000000000600000000000000000000000000000000000000000000000000000000000000020000000000000000000000000de3089d40f3491de794fbb1eca109fac36f889d0000000000000000000000000000000000000000000000000000000000000004000000000000000000000000000000000000000000000000000000000000000200000000000000000000000000000000000000000000000000000000000000000",
          "blockHash": "0x1f06fd62f494ec145e7d0fabfd65805af4e8cacae7973873c09eca3275929cf4",
          "blockNumber": "0x8f4389",
          "transactionHash": "0x6e15647d969f86317eaf78b3281c25cd32c8cea33cd25d7fa279c6b46608e62c",
          "transactionIndex": "0x60",
          "logIndex": "0xd2",
          "removed": false
        }
      ],
      "status": "0x1",
      "logsBloom": "0x10000000000000000000000000000000000800000000000000000000000000000000000000000000000000000000000000000000100000000000000000200040000000000000008000000008000000000000800000000000000000000080000000001000002000000000000000000000000040000000000000840010000000000000000000000000000000000000000200010000001000000000000000000000020000000000000000000000000000000000000000000000002000000000000000000002000000000000000000000010000000000100000000000000000000000010000000000000000000000000040000000000000000000000000000000000",
      "type": "0x0",
      "effectiveGasPrice": "0x7940635d"
    },
    {
      "transactionHash": "0x390c5b7e9abc3587eaf35d1a0943d4ac84b38120507fd759541e7fb7cbb4dc76",
      "transactionIndex": "0x61",
      "blockHash": "0x1f06fd62f494ec145e7d0fabfd65805af4e8cacae7973873c09eca3275929cf4",
      "blockNumber": "0x8f4389",
      "from": "0xDe3089d40F3491De794fBb1ECA109fAc36F889d0",
      "to": "0x0000c304D2934c00Db1d51995b9f6996AffD17c0",
      "cumulativeGasUsed": "0xfe0e4f",
      "gasUsed": "0xb72e",
      "contractAddress": null,
      "logs": [
        {
          "address": "0x0000c304D2934c00Db1d51995b9f6996AffD17c0",
          "topics": [
            "0x8c5be1e5ebec7d5bd14f71427d1e84f3dd0314c0f7b2291e5b200ac8c7c3b925",
            "0x000000000000000000000000de3089d40f3491de794fbb1eca109fac36f889d0",
            "0x00000000000000000000000026e328bc62207d7acf801c405167bc0f4eccedea"
          ],
          "data": "0x00000000000000000000000000000000000000000000000029a2241af62c0000",
          "blockHash": "0x1f06fd62f494ec145e7d0fabfd65805af4e8cacae7973873c09eca3275929cf4",
          "blockNumber": "0x8f4389",
          "transactionHash": "0x390c5b7e9abc3587eaf35d1a0943d4ac84b38120507fd759541e7fb7cbb4dc76",
          "transactionIndex": "0x61",
          "logIndex": "0xd3",
          "removed": false
        }
      ],
      "status": "0x1",
      "logsBloom": "0x10000000000000000000000000000000000000000000000000000000000000000000000000000000000000002000000000000000100000000000000000200040000000000000000000000000000000000000020000000000000000000000000000000000000000000000000000000000000000000000000000000000000000000000000000000000000000000000000000000000001000000000000000000000020000000000000000000000000000000000000000000000000000000000000000000000000000000000000000000010000000000000000000000000000000000010000000000000000040000000040000000000000000000000000000000000",
      "type": "0x0",
      "effectiveGasPrice": "0x7940635d"
    },
    {
      "transactionHash": "0xee619c689a3d1c6d95e6fe231fa1ed93db2c5a3ba355b5e21def69eb6dbd28f7",
      "transactionIndex": "0x62",
      "blockHash": "0x1f06fd62f494ec145e7d0fabfd65805af4e8cacae7973873c09eca3275929cf4",
      "blockNumber": "0x8f4389",
      "from": "0xDe3089d40F3491De794fBb1ECA109fAc36F889d0",
      "to": "0x26e328BC62207D7aCf801C405167bc0F4eccedEa",
      "cumulativeGasUsed": "0xff90df",
      "gasUsed": "0x18290",
      "contractAddress": null,
      "logs": [
        {
          "address": "0x0000c304D2934c00Db1d51995b9f6996AffD17c0",
          "topics": [
            "0x8c5be1e5ebec7d5bd14f71427d1e84f3dd0314c0f7b2291e5b200ac8c7c3b925",
            "0x000000000000000000000000de3089d40f3491de794fbb1eca109fac36f889d0",
            "0x00000000000000000000000026e328bc62207d7acf801c405167bc0f4eccedea"
          ],
          "data": "0x0000000000000000000000000000000000000000000000000000000000000000",
          "blockHash": "0x1f06fd62f494ec145e7d0fabfd65805af4e8cacae7973873c09eca3275929cf4",
          "blockNumber": "0x8f4389",
          "transactionHash": "0xee619c689a3d1c6d95e6fe231fa1ed93db2c5a3ba355b5e21def69eb6dbd28f7",
          "transactionIndex": "0x62",
          "logIndex": "0xd4",
          "removed": false
        },
        {
          "address": "0x0000c304D2934c00Db1d51995b9f6996AffD17c0",
          "topics": [
            "0xddf252ad1be2c89b69c2b068fc378daa952ba7f163c4a11628f55a4df523b3ef",
            "0x000000000000000000000000de3089d40f3491de794fbb1eca109fac36f889d0",
            "0x00000000000000000000000026e328bc62207d7acf801c405167bc0f4eccedea"
          ],
          "data": "0x00000000000000000000000000000000000000000000000029a2241af62c0000",
          "blockHash": "0x1f06fd62f494ec145e7d0fabfd65805af4e8cacae7973873c09eca3275929cf4",
          "blockNumber": "0x8f4389",
          "transactionHash": "0xee619c689a3d1c6d95e6fe231fa1ed93db2c5a3ba355b5e21def69eb6dbd28f7",
          "transactionIndex": "0x62",
          "logIndex": "0xd5",
          "removed": false
        },
        {
          "address": "0x0000c304D2934c00Db1d51995b9f6996AffD17c0",
          "topics": [
            "0x8c5be1e5ebec7d5bd14f71427d1e84f3dd0314c0f7b2291e5b200ac8c7c3b925",
            "0x00000000000000000000000026e328bc62207d7acf801c405167bc0f4eccedea",
            "0x00000000000000000000000000005e3125aba53c5652f9f0ce1a4cf91d8b15ea"
          ],
          "data": "0x00000000000000000000000000000000000000000000000029a2241af62c0000",
          "blockHash": "0x1f06fd62f494ec145e7d0fabfd65805af4e8cacae7973873c09eca3275929cf4",
          "blockNumber": "0x8f4389",
          "transactionHash": "0xee619c689a3d1c6d95e6fe231fa1ed93db2c5a3ba355b5e21def69eb6dbd28f7",
          "transactionIndex": "0x62",
          "logIndex": "0xd6",
          "removed": false
        },
        {
          "address": "0x0000c304D2934c00Db1d51995b9f6996AffD17c0",
          "topics": [
            "0x8c5be1e5ebec7d5bd14f71427d1e84f3dd0314c0f7b2291e5b200ac8c7c3b925",
            "0x00000000000000000000000026e328bc62207d7acf801c405167bc0f4eccedea",
            "0x00000000000000000000000000005e3125aba53c5652f9f0ce1a4cf91d8b15ea"
          ],
          "data": "0x0000000000000000000000000000000000000000000000000000000000000000",
          "blockHash": "0x1f06fd62f494ec145e7d0fabfd65805af4e8cacae7973873c09eca3275929cf4",
          "blockNumber": "0x8f4389",
          "transactionHash": "0xee619c689a3d1c6d95e6fe231fa1ed93db2c5a3ba355b5e21def69eb6dbd28f7",
          "transactionIndex": "0x62",
          "logIndex": "0xd7",
          "removed": false
        },
        {
          "address": "0x0000c304D2934c00Db1d51995b9f6996AffD17c0",
          "topics": [
            "0xddf252ad1be2c89b69c2b068fc378daa952ba7f163c4a11628f55a4df523b3ef",
            "0x00000000000000000000000026e328bc62207d7acf801c405167bc0f4eccedea",
            "0x00000000000000000000000000005e3125aba53c5652f9f0ce1a4cf91d8b15ea"
          ],
          "data": "0x00000000000000000000000000000000000000000000000029a2241af62c0000",
          "blockHash": "0x1f06fd62f494ec145e7d0fabfd65805af4e8cacae7973873c09eca3275929cf4",
          "blockNumber": "0x8f4389",
          "transactionHash": "0xee619c689a3d1c6d95e6fe231fa1ed93db2c5a3ba355b5e21def69eb6dbd28f7",
          "transactionIndex": "0x62",
          "logIndex": "0xd8",
          "removed": false
        },
        {
          "address": "0x00005E3125aBA53C5652f9F0CE1a4Cf91D8B15eA",
          "topics": [
            "0x7ec1c94701e09b1652f3e1d307e60c4b9ebf99aff8c2079fd1d8c585e031c4e4",
            "0x00000000000000000000000026e328bc62207d7acf801c405167bc0f4eccedea",
            "0x0000000000000000000000000000000000000000000000000000000000013881"
          ],
          "data": "0x000000000000000000000000de3089d40f3491de794fbb1eca109fac36f889d000000000000000000000000000000000000000000000000000000000000000c000000000000000000000000000000000000000000000000029a2241af62c000000000000000000000000000000000000000000000000000029a2241af62c0000000000000000000000000000000000000000000000000000000000000000010000000000000000000000000000000000000000000000000000000000000001e000000000000000000000000000000000000000000000000000000000000000140ca3549ed2c0fa6942d7585be2363990812afb1800000000000000000000000000000000000000000000000000000000000000000000000000000000000000c0c8e4cff35edc43bbdb181c6949bedcf4a8069932153ed4ab09e7939264c13e2d000000000000000000000000de3089d40f3491de794fbb1eca109fac36f889d000000000000000000000000000000000000000000000000000000000000000600000000000000000000000000000000000000000000000000000000000000040e5f50a26dc5d9de3c0c8a250acc54d80cf2df3cdf7183dd7140bec3406d57fad0000000000000000000000000000000000000000000000000000000000000001000000000000000000000000000000000000000000000000000000000000004000000000000000000000000000000000000000000000000000000000000000200000000000000000000000000000000000000000000000000000000000000000",
          "blockHash": "0x1f06fd62f494ec145e7d0fabfd65805af4e8cacae7973873c09eca3275929cf4",
          "blockNumber": "0x8f4389",
          "transactionHash": "0xee619c689a3d1c6d95e6fe231fa1ed93db2c5a3ba355b5e21def69eb6dbd28f7",
          "transactionIndex": "0x62",
          "logIndex": "0xd9",
          "removed": false
        }
      ],
      "status": "0x1",
      "logsBloom": "0x10000000000000000000000000000000000800000000000000000000000000000000000000000000000000002000000000000000100000000000000000200040000000000000008000000008000000000000820000000000000000000080000000001000002000000000000000000000000040000000000000840010000000000000000000000000000000000000000200000000001000000000000000000000020000000000000000000000000000000000000000000000002000000000000000000002000000000000000000000010000000000100000000000000000000000010000000000000000040000000040000000000000000000000000000000000",
      "type": "0x0",
      "effectiveGasPrice": "0x7940635d"
    }
  ],
  "libraries": [],
  "pending": [],
  "returns": {},
  "timestamp": 1690038543,
  "chain": 5,
  "multi": false,
  "commit": "11626f6"
}