{
  "transactions": [
    {
      "hash": "0xdf58671ad92debfad3285427aa30e00bce1f69c01e7e9636b9c65f2a2fee7a56",
      "transactionType": "CALL",
      "contractName": "ZetaEth",
      "contractAddress": "0x0000c304D2934c00Db1d51995b9f6996AffD17c0",
      "function": "approve(address,uint256):(bool)",
      "arguments": [
        "0xFfcb0A87D93a983F17C3b862C4Ae0249A960f834",
        "3000000000000000000"
      ],
      "transaction": {
        "type": "0x00",
        "from": "0xde3089d40f3491de794fbb1eca109fac36f889d0",
        "to": "0x0000c304d2934c00db1d51995b9f6996affd17c0",
        "gas": "0xfd03",
        "value": "0x0",
        "data": "0x095ea7b3000000000000000000000000ffcb0a87d93a983f17c3b862c4ae0249a960f83400000000000000000000000000000000000000000000000029a2241af62c0000",
        "nonce": "0x91"
      },
      "additionalContracts": [],
      "isFixedGasLimit": false
    },
    {
      "hash": "0x067bedb2add4676a86d75bcf4f31ee1fe658e93acf9e8e085f64136a32a762c9",
      "transactionType": "CALL",
      "contractName": null,
      "contractAddress": "0xFfcb0A87D93a983F17C3b862C4Ae0249A960f834",
      "function": null,
      "arguments": null,
      "transaction": {
        "type": "0x00",
        "from": "0xde3089d40f3491de794fbb1eca109fac36f889d0",
        "to": "0xffcb0a87d93a983f17c3b862c4ae0249a960f834",
        "gas": "0x21b68",
        "value": "0x0",
        "data": "0x5c19a95c000000000000000000000000de3089d40f3491de794fbb1eca109fac36f889d0",
        "nonce": "0x92"
      },
      "additionalContracts": [],
      "isFixedGasLimit": false
    }
  ],
  "receipts": [
    {
      "transactionHash": "0xdf58671ad92debfad3285427aa30e00bce1f69c01e7e9636b9c65f2a2fee7a56",
      "transactionIndex": "0x3d",
      "blockHash": "0xcf17d8dddd5a2bac2531166e661754bb0b98dd5c0806bb7aaa3050f69465709a",
      "blockNumber": "0x8f41d3",
      "from": "0xDe3089d40F3491De794fBb1ECA109fAc36F889d0",
      "to": "0x0000c304D2934c00Db1d51995b9f6996AffD17c0",
      "cumulativeGasUsed": "0x1456008",
      "gasUsed": "0xb72e",
      "contractAddress": null,
      "logs": [
        {
          "address": "0x0000c304D2934c00Db1d51995b9f6996AffD17c0",
          "topics": [
            "0x8c5be1e5ebec7d5bd14f71427d1e84f3dd0314c0f7b2291e5b200ac8c7c3b925",
            "0x000000000000000000000000de3089d40f3491de794fbb1eca109fac36f889d0",
            "0x000000000000000000000000ffcb0a87d93a983f17c3b862c4ae0249a960f834"
          ],
          "data": "0x00000000000000000000000000000000000000000000000029a2241af62c0000",
          "blockHash": "0xcf17d8dddd5a2bac2531166e661754bb0b98dd5c0806bb7aaa3050f69465709a",
          "blockNumber": "0x8f41d3",
          "transactionHash": "0xdf58671ad92debfad3285427aa30e00bce1f69c01e7e9636b9c65f2a2fee7a56",
          "transactionIndex": "0x3d",
          "logIndex": "0xc56",
          "removed": false
        }
      ],
      "status": "0x1",
      "logsBloom": "0x10000000000000000000000000000000000000000000000000000000000000000000000000000000000000000000000000000000100000000000000000200040000000000000000000000000000000000000000000000000000000000000000000000000000000000000000000000000000000000000000000000000000000000000000000000000000000000000000000000000001000000000000000000000020000000000020000000000000000000000000000000000000000000000000000800000000000000000000000000010000000000010000000000000000000000010000000000000000000000000040000000000000000000000000000000000",
      "type": "0x0",
      "effectiveGasPrice": "0x645508b7"
    },
    {
      "transactionHash": "0x067bedb2add4676a86d75bcf4f31ee1fe658e93acf9e8e085f64136a32a762c9",
      "transactionIndex": "0x3e",
      "blockHash": "0xcf17d8dddd5a2bac2531166e661754bb0b98dd5c0806bb7aaa3050f69465709a",
      "blockNumber": "0x8f41d3",
      "from": "0xDe3089d40F3491De794fBb1ECA109fAc36F889d0",
      "to": "0xFfcb0A87D93a983F17C3b862C4Ae0249A960f834",
      "cumulativeGasUsed": "0x146e68e",
      "gasUsed": "0x18686",
      "contractAddress": null,
      "logs": [
        {
          "address": "0x0000c304D2934c00Db1d51995b9f6996AffD17c0",
          "topics": [
            "0x8c5be1e5ebec7d5bd14f71427d1e84f3dd0314c0f7b2291e5b200ac8c7c3b925",
            "0x000000000000000000000000de3089d40f3491de794fbb1eca109fac36f889d0",
            "0x000000000000000000000000ffcb0a87d93a983f17c3b862c4ae0249a960f834"
          ],
          "data": "0x0000000000000000000000000000000000000000000000000000000000000000",
          "blockHash": "0xcf17d8dddd5a2bac2531166e661754bb0b98dd5c0806bb7aaa3050f69465709a",
          "blockNumber": "0x8f41d3",
          "transactionHash": "0x067bedb2add4676a86d75bcf4f31ee1fe658e93acf9e8e085f64136a32a762c9",
          "transactionIndex": "0x3e",
          "logIndex": "0xc57",
          "removed": false
        },
        {
          "address": "0x0000c304D2934c00Db1d51995b9f6996AffD17c0",
          "topics": [
            "0xddf252ad1be2c89b69c2b068fc378daa952ba7f163c4a11628f55a4df523b3ef",
            "0x000000000000000000000000de3089d40f3491de794fbb1eca109fac36f889d0",
            "0x000000000000000000000000ffcb0a87d93a983f17c3b862c4ae0249a960f834"
          ],
          "data": "0x00000000000000000000000000000000000000000000000029a2241af62c0000",
          "blockHash": "0xcf17d8dddd5a2bac2531166e661754bb0b98dd5c0806bb7aaa3050f69465709a",
          "blockNumber": "0x8f41d3",
          "transactionHash": "0x067bedb2add4676a86d75bcf4f31ee1fe658e93acf9e8e085f64136a32a762c9",
          "transactionIndex": "0x3e",
          "logIndex": "0xc58",
          "removed": false
        },
        {
          "address": "0x0000c304D2934c00Db1d51995b9f6996AffD17c0",
          "topics": [
            "0x8c5be1e5ebec7d5bd14f71427d1e84f3dd0314c0f7b2291e5b200ac8c7c3b925",
            "0x000000000000000000000000ffcb0a87d93a983f17c3b862c4ae0249a960f834",
            "0x00000000000000000000000000005e3125aba53c5652f9f0ce1a4cf91d8b15ea"
          ],
          "data": "0x00000000000000000000000000000000000000000000000029a2241af62c0000",
          "blockHash": "0xcf17d8dddd5a2bac2531166e661754bb0b98dd5c0806bb7aaa3050f69465709a",
          "blockNumber": "0x8f41d3",
          "transactionHash": "0x067bedb2add4676a86d75bcf4f31ee1fe658e93acf9e8e085f64136a32a762c9",
          "transactionIndex": "0x3e",
          "logIndex": "0xc59",
          "removed": false
        },
        {
          "address": "0x0000c304D2934c00Db1d51995b9f6996AffD17c0",
          "topics": [
            "0x8c5be1e5ebec7d5bd14f71427d1e84f3dd0314c0f7b2291e5b200ac8c7c3b925",
            "0x000000000000000000000000ffcb0a87d93a983f17c3b862c4ae0249a960f834",
            "0x00000000000000000000000000005e3125aba53c5652f9f0ce1a4cf91d8b15ea"
          ],
          "data": "0x0000000000000000000000000000000000000000000000000000000000000000",
          "blockHash": "0xcf17d8dddd5a2bac2531166e661754bb0b98dd5c0806bb7aaa3050f69465709a",
          "blockNumber": "0x8f41d3",
          "transactionHash": "0x067bedb2add4676a86d75bcf4f31ee1fe658e93acf9e8e085f64136a32a762c9",
          "transactionIndex": "0x3e",
          "logIndex": "0xc5a",
          "removed": false
        },
        {
          "address": "0x0000c304D2934c00Db1d51995b9f6996AffD17c0",
          "topics": [
            "0xddf252ad1be2c89b69c2b068fc378daa952ba7f163c4a11628f55a4df523b3ef",
            "0x000000000000000000000000ffcb0a87d93a983f17c3b862c4ae0249a960f834",
            "0x00000000000000000000000000005e3125aba53c5652f9f0ce1a4cf91d8b15ea"
          ],
          "data": "0x00000000000000000000000000000000000000000000000029a2241af62c0000",
          "blockHash": "0xcf17d8dddd5a2bac2531166e661754bb0b98dd5c0806bb7aaa3050f69465709a",
          "blockNumber": "0x8f41d3",
          "transactionHash": "0x067bedb2add4676a86d75bcf4f31ee1fe658e93acf9e8e085f64136a32a762c9",
          "transactionIndex": "0x3e",
          "logIndex": "0xc5b",
          "removed": false
        },
        {
          "address": "0x00005E3125aBA53C5652f9F0CE1a4Cf91D8B15eA",
          "topics": [
            "0x7ec1c94701e09b1652f3e1d307e60c4b9ebf99aff8c2079fd1d8c585e031c4e4",
            "0x000000000000000000000000ffcb0a87d93a983f17c3b862c4ae0249a960f834",
            "0x0000000000000000000000000000000000000000000000000000000000013881"
          ],
          "data": "0x000000000000000000000000de3089d40f3491de794fbb1eca109fac36f889d000000000000000000000000000000000000000000000000000000000000000c000000000000000000000000000000000000000000000000029a2241af62c000000000000000000000000000000000000000000000000000000000000000493e0000000000000000000000000000000000000000000000000000000000000010000000000000000000000000000000000000000000000000000000000000001c00000000000000000000000000000000000000000000000000000000000000014218a6c35a465c3e5188dedad48c83bca4bbda31e00000000000000000000000000000000000000000000000000000000000000000000000000000000000000a0cb30b7a91bfafdecc5aabe95f3f005b0c706843fcfa340dcecee64fb1056bf54000000000000000000000000de3089d40f3491de794fbb1eca109fac36f889d000000000000000000000000000000000000000000000000000000000000000600000000000000000000000000000000000000000000000000000000000000020000000000000000000000000de3089d40f3491de794fbb1eca109fac36f889d0000000000000000000000000000000000000000000000000000000000000004000000000000000000000000000000000000000000000000000000000000000200000000000000000000000000000000000000000000000000000000000000000",
          "blockHash": "0xcf17d8dddd5a2bac2531166e661754bb0b98dd5c0806bb7aaa3050f69465709a",
          "blockNumber": "0x8f41d3",
          "transactionHash": "0x067bedb2add4676a86d75bcf4f31ee1fe658e93acf9e8e085f64136a32a762c9",
          "transactionIndex": "0x3e",
          "logIndex": "0xc5c",
          "removed": false
        }
      ],
      "status": "0x1",
      "logsBloom": "0x10000000000000000000000000000000000800000000000000000000000000000000000000000000000000000000000000000000100000000000000000200040000000000000008000000008000000000000800000000000000000000080000000001000002000000000000000000000000040000000000000840010000000000000000000000000000000000000000200000000001000000000000000000000020000000000020000000000000000000000000000000000002000000000000000800002000000000000000000000010000000000110000000000000000000000010000000000000000000000000040000000000000000000000000000000000",
      "type": "0x0",
      "effectiveGasPrice": "0x645508b7"
    }
  ],
  "libraries": [],
  "pending": [],
  "returns": {},
  "timestamp": 1690032090,
  "chain": 5,
  "multi": false,
  "commit": "2a7742d"
}