{
  "transactions": [
    {
      "hash": "0xc330ba38a925b58e75f3cc03377ec2ffbe6a34ca3aa6e28de26379bf3966ddae",
      "transactionType": "CALL",
      "contractName": "ZetaEth",
      "contractAddress": "0x0000c304D2934c00Db1d51995b9f6996AffD17c0",
      "function": "approve(address,uint256):(bool)",
      "arguments": [
        "0x42E3ADaeEF7076595CbFB2a9468118464c091395",
        "3000000000000000000"
      ],
      "transaction": {
        "type": "0x00",
        "from": "0xde3089d40f3491de794fbb1eca109fac36f889d0",
        "to": "0x0000c304d2934c00db1d51995b9f6996affd17c0",
        "gas": "0xfd03",
        "value": "0x0",
        "data": "0x095ea7b300000000000000000000000042e3adaeef7076595cbfb2a9468118464c09139500000000000000000000000000000000000000000000000029a2241af62c0000",
        "nonce": "0x98"
      },
      "additionalContracts": [],
      "isFixedGasLimit": false
    },
    {
      "hash": "0xb08fc98523a5577c211f194f0302724703410387788c8d588ef41e24eda6db34",
      "transactionType": "CALL",
      "contractName": "FootyDAOTokenAdapter",
      "contractAddress": "0x42E3ADaeEF7076595CbFB2a9468118464c091395",
      "function": "delegate(address)",
      "arguments": [
        "0xDe3089d40F3491De794fBb1ECA109fAc36F889d0"
      ],
      "transaction": {
        "type": "0x00",
        "from": "0xde3089d40f3491de794fbb1eca109fac36f889d0",
        "to": "0x42e3adaeef7076595cbfb2a9468118464c091395",
        "gas": "0x21b68",
        "value": "0x0",
        "data": "0x5c19a95c000000000000000000000000de3089d40f3491de794fbb1eca109fac36f889d0",
        "nonce": "0x99"
      },
      "additionalContracts": [],
      "isFixedGasLimit": false
    }
  ],
  "receipts": [],
  "libraries": [],
  "pending": [
    "0xc330ba38a925b58e75f3cc03377ec2ffbe6a34ca3aa6e28de26379bf3966ddae",
    "0xb08fc98523a5577c211f194f0302724703410387788c8d588ef41e24eda6db34"
  ],
  "returns": {},
  "timestamp": 1690034771,
  "chain": 5,
  "multi": false,
  "commit": "2a7742d"
}